Component: ARM Compiler 5.06 update 6 (build 750) Tool: armlink [4d35ed]

==============================================================================

Section Cross References

    rtc.o(i.MX_RTC_Init) refers to stm32l4xx_hal_rtc.o(i.HAL_RTC_Init) for HAL_RTC_Init
    rtc.o(i.MX_RTC_Init) refers to main.o(i._Error_Handler) for _Error_Handler
    rtc.o(i.MX_RTC_Init) refers to stm32l4xx_hal_rtc_ex.o(i.HAL_RTCEx_BKUPRead) for HAL_RTCEx_BKUPRead
    rtc.o(i.MX_RTC_Init) refers to stm32l4xx_hal_rtc.o(i.HAL_RTC_SetTime) for HAL_RTC_SetTime
    rtc.o(i.MX_RTC_Init) refers to stm32l4xx_hal_rtc.o(i.HAL_RTC_SetDate) for HAL_RTC_SetDate
    rtc.o(i.MX_RTC_Init) refers to stm32l4xx_hal_rtc_ex.o(i.HAL_RTCEx_BKUPWrite) for HAL_RTCEx_BKUPWrite
    rtc.o(i.MX_RTC_Init) refers to rtc.o(.bss) for .bss
    usb_device.o(i.HAL_PCDEx_BCD_Callback) refers to memcpya.o(.text) for __aeabi_memcpy4
    usb_device.o(i.HAL_PCDEx_BCD_Callback) refers to usbd_core.o(i.USBD_Start) for USBD_Start
    usb_device.o(i.HAL_PCDEx_BCD_Callback) refers to usb_device.o(.bss) for .bss
    usb_device.o(i.MX_USB_DEVICE_Init) refers to usbd_core.o(i.USBD_Init) for USBD_Init
    usb_device.o(i.MX_USB_DEVICE_Init) refers to usbd_core.o(i.USBD_RegisterClass) for USBD_RegisterClass
    usb_device.o(i.MX_USB_DEVICE_Init) refers to myusbd_customhid.o(i.USBD_CUSTOM_HID_RegisterInterface) for USBD_CUSTOM_HID_RegisterInterface
    usb_device.o(i.MX_USB_DEVICE_Init) refers to usbd_conf.o(i.USBD_LL_BatteryCharging) for USBD_LL_BatteryCharging
    usb_device.o(i.MX_USB_DEVICE_Init) refers to usbd_core.o(i.USBD_Start) for USBD_Start
    usb_device.o(i.MX_USB_DEVICE_Init) refers to myusbd_desc.o(.data) for FS_Desc
    usb_device.o(i.MX_USB_DEVICE_Init) refers to usb_device.o(.bss) for .bss
    usb_device.o(i.MX_USB_DEVICE_Init) refers to myusbd_customhid.o(.data) for USBD_CUSTOM_HID
==============================================================================

Removing Unused input sections from the image.

    Removing rtc.o(.rev16_text), (4 bytes).
    Removing rtc.o(.revsh_text), (4 bytes).
    Removing rtc.o(.rrx_text), (6 bytes).
    Removing rtc.o(i.HAL_RTC_MspDeInit), (32 bytes).
    Removing usb_device.o(.rev16_text), (4 bytes).
    Removing usb_device.o(.revsh_text), (4 bytes).
    Removing usb_device.o(.rrx_text), (6 bytes).
    Removing usb_device.o(i.HAL_PCDEx_BCD_Callback), (56 bytes).
    Removing gpio.o(.rev16_text), (4 bytes).
    Removing gpio.o(.revsh_text), (4 bytes).
    Removing gpio.o(.rrx_text), (6 bytes).
    Removing usbd_conf.o(.rev16_text), (4 bytes).
    Removing usbd_conf.o(.revsh_text), (4 bytes).
    Removing usbd_conf.o(.rrx_text), (6 bytes).
    Removing usbd_conf.o(i.HAL_PCDEx_SetConnectionState), (2 bytes).
    Removing usbd_conf.o(i.HAL_PCD_ConnectCallback), (8 bytes).
    Removing usbd_conf.o(i.HAL_PCD_DisconnectCallback), (8 bytes).
    Removing usbd_conf.o(i.HAL_PCD_ISOINIncompleteCallback), (8 bytes).
==============================================================================

Image Symbol Table

    Local Symbols

    Symbol Name                              Value     Ov Type        Size  Object(Section)

    ../Drivers/STM32L4xx_HAL_Driver/Src/stm32l4xx_hal.c 0x00000000   Number         0  stm32l4xx_hal.o ABSOLUTE
    ../Drivers/STM32L4xx_HAL_Driver/Src/stm32l4xx_hal_cortex.c 0x00000000   Number         0  stm32l4xx_hal_cortex.o ABSOLUTE
    ../Drivers/STM32L4xx_HAL_Driver/Src/stm32l4xx_hal_dma.c 0x00000000   Number         0  stm32l4xx_hal_dma.o ABSOLUTE
    ../Drivers/STM32L4xx_HAL_Driver/Src/stm32l4xx_hal_flash.c 0x00000000   Number         0  stm32l4xx_hal_flash.o ABSOLUTE
    ../Drivers/STM32L4xx_HAL_Driver/Src/stm32l4xx_hal_flash_ex.c 0x00000000   Number         0  stm32l4xx_hal_flash_ex.o ABSOLUTE
    ../Drivers/STM32L4xx_HAL_Driver/Src/stm32l4xx_hal_flash_ramfunc.c 0x00000000   Number         0  stm32l4xx_hal_flash_ramfunc.o ABSOLUTE
    ../Drivers/STM32L4xx_HAL_Driver/Src/stm32l4xx_hal_gpio.c 0x00000000   Number         0  stm32l4xx_hal_gpio.o ABSOLUTE
    ../Drivers/STM32L4xx_HAL_Driver/Src/stm32l4xx_hal_i2c.c 0x00000000   Number         0  stm32l4xx_hal_i2c.o ABSOLUTE
    ../Drivers/STM32L4xx_HAL_Driver/Src/stm32l4xx_hal_i2c_ex.c 0x00000000   Number         0  stm32l4xx_hal_i2c_ex.o ABSOLUTE
    ../Drivers/STM32L4xx_HAL_Driver/Src/stm32l4xx_hal_iwdg.c 0x00000000   Number         0  stm32l4xx_hal_iwdg.o ABSOLUTE
    ../Drivers/STM32L4xx_HAL_Driver/Src/stm32l4xx_hal_lptim.c 0x00000000   Number         0  stm32l4xx_hal_lptim.o ABSOLUTE
    ../Drivers/STM32L4xx_HAL_Driver/Src/stm32l4xx_hal_pcd.c 0x00000000   Number         0  stm32l4xx_hal_pcd.o ABSOLUTE
    ../Drivers/STM32L4xx_HAL_Driver/Src/stm32l4xx_hal_pcd_ex.c 0x00000000   Number         0  stm32l4xx_hal_pcd_ex.o ABSOLUTE
    ../Drivers/STM32L4xx_HAL_Driver/Src/stm32l4xx_hal_pwr.c 0x00000000   Number         0  stm32l4xx_hal_pwr.o ABSOLUTE
    ../Drivers/STM32L4xx_HAL_Driver/Src/stm32l4xx_hal_pwr_ex.c 0x00000000   Number         0  stm32l4xx_hal_pwr_ex.o ABSOLUTE
    ../Drivers/STM32L4xx_HAL_Driver/Src/stm32l4xx_hal_qspi.c 0x00000000   Number         0  stm32l4xx_hal_qspi.o ABSOLUTE
    ../Drivers/STM32L4xx_HAL_Driver/Src/stm32l4xx_hal_rcc.c 0x00000000   Number         0  stm32l4xx_hal_rcc.o ABSOLUTE
    ../Drivers/STM32L4xx_HAL_Driver/Src/stm32l4xx_hal_rcc_ex.c 0x00000000   Number         0  stm32l4xx_hal_rcc_ex.o ABSOLUTE
    ../Drivers/STM32L4xx_HAL_Driver/Src/stm32l4xx_hal_rtc.c 0x00000000   Number         0  stm32l4xx_hal_rtc.o ABSOLUTE
    ../Drivers/STM32L4xx_HAL_Driver/Src/stm32l4xx_hal_rtc_ex.c 0x00000000   Number         0  stm32l4xx_hal_rtc_ex.o ABSOLUTE
    ../Drivers/STM32L4xx_HAL_Driver/Src/stm32l4xx_hal_spi.c 0x00000000   Number         0  stm32l4xx_hal_spi.o ABSOLUTE
    ../Drivers/STM32L4xx_HAL_Driver/Src/stm32l4xx_hal_spi_ex.c 0x00000000   Number         0  stm32l4xx_hal_spi_ex.o ABSOLUTE
    ../Drivers/STM32L4xx_HAL_Driver/Src/stm32l4xx_hal_tim.c 0x00000000   Number         0  stm32l4xx_hal_tim.o ABSOLUTE
    ../Drivers/STM32L4xx_HAL_Driver/Src/stm32l4xx_hal_tim_ex.c 0x00000000   Number         0  stm32l4xx_hal_tim_ex.o ABSOLUTE
    ../Drivers/STM32L4xx_HAL_Driver/Src/stm32l4xx_hal_uart.c 0x00000000   Number         0  stm32l4xx_hal_uart.o ABSOLUTE
    ../Drivers/STM32L4xx_HAL_Driver/Src/stm32l4xx_hal_uart_ex.c 0x00000000   Number         0  stm32l4xx_hal_uart_ex.o ABSOLUTE
    ../Drivers/STM32L4xx_HAL_Driver/Src/stm32l4xx_ll_usb.c 0x00000000   Number         0  stm32l4xx_ll_usb.o ABSOLUTE
    ../Middlewares/ST/STM32_USB_Device_Library/Core/Src/usbd_core.c 0x00000000   Number         0  usbd_core.o ABSOLUTE
    ../Middlewares/ST/STM32_USB_Device_Library/Core/Src/usbd_ctlreq.c 0x00000000   Number         0  usbd_ctlreq.o ABSOLUTE
    ../Middlewares/ST/STM32_USB_Device_Library/Core/Src/usbd_ioreq.c 0x00000000   Number         0  usbd_ioreq.o ABSOLUTE
    ../Src/gpio.c                            0x00000000   Number         0  gpio.o ABSOLUTE
    ../Src/i2c.c                             0x00000000   Number         0  i2c.o ABSOLUTE
    ../Src/iwdg.c                            0x00000000   Number         0  iwdg.o ABSOLUTE
    ../Src/lptim.c                           0x00000000   Number         0  lptim.o ABSOLUTE
    ../Src/main.c                            0x00000000   Number         0  main.o ABSOLUTE
    ../Src/quadspi.c                         0x00000000   Number         0  quadspi.o ABSOLUTE
    ../Src/rtc.c                             0x00000000   Number         0  rtc.o ABSOLUTE
    ../Src/spi.c                             0x00000000   Number         0  spi.o ABSOLUTE
    ../Src/stm32l4xx_hal_msp.c               0x00000000   Number         0  stm32l4xx_hal_msp.o ABSOLUTE
    ../Src/stm32l4xx_it.c                    0x00000000   Number         0  stm32l4xx_it.o ABSOLUTE
    ../Src/system_stm32l4xx.c                0x00000000   Number         0  system_stm32l4xx.o ABSOLUTE
    ../Src/tim.c                             0x00000000   Number         0  tim.o ABSOLUTE
    ../Src/usart.c                           0x00000000   Number         0  usart.o ABSOLUTE
    ../Src/usb_device.c                      0x00000000   Number         0  usb_device.o ABSOLUTE
    ../Src/usbd_conf.c                       0x00000000   Number         0  usbd_conf.o ABSOLUTE
    ../clib/../cmprslib/zerorunl2.c          0x00000000   Number         0  __dczerorl2.o ABSOLUTE
    ../clib/microlib/division.c              0x00000000   Number         0  uldiv.o ABSOLUTE
    ../clib/microlib/init/entry.s            0x00000000   Number         0  entry8a.o ABSOLUTE
    ../clib/microlib/init/entry.s            0x00000000   Number         0  entry2.o ABSOLUTE
    ../clib/microlib/init/entry.s            0x00000000   Number         0  entry5.o ABSOLUTE
    ../clib/microlib/init/entry.s            0x00000000   Number         0  entry7a.o ABSOLUTE
    ../clib/microlib/init/entry.s            0x00000000   Number         0  entry7b.o ABSOLUTE
    ../clib/microlib/init/entry.s            0x00000000   Number         0  entry10a.o ABSOLUTE
    ../clib/microlib/init/entry.s            0x00000000   Number         0  entry8b.o ABSOLUTE
    ../clib/microlib/init/entry.s            0x00000000   Number         0  entry11a.o ABSOLUTE
    ../clib/microlib/init/entry.s            0x00000000   Number         0  entry9a.o ABSOLUTE
    ../clib/microlib/init/entry.s            0x00000000   Number         0  entry10b.o ABSOLUTE
    ../clib/microlib/init/entry.s            0x00000000   Number         0  entry11b.o ABSOLUTE
    ../clib/microlib/init/entry.s            0x00000000   Number         0  entry.o ABSOLUTE
    ../clib/microlib/init/entry.s            0x00000000   Number         0  entry9b.o ABSOLUTE
    ../clib/microlib/longlong.c              0x00000000   Number         0  llushr.o ABSOLUTE
    ../clib/microlib/longlong.c              0x00000000   Number         0  llshl.o ABSOLUTE
    ../clib/microlib/string/memcmp.c         0x00000000   Number         0  memcmp.o ABSOLUTE
    ../clib/microlib/string/memcpy.c         0x00000000   Number         0  memcpya.o ABSOLUTE
    ../clib/microlib/string/memcpy.c         0x00000000   Number         0  memcpyb.o ABSOLUTE
    ../clib/microlib/string/memset.c         0x00000000   Number         0  memseta.o ABSOLUTE
    ..\Drivers\STM32L4xx_HAL_Driver\Src\stm32l4xx_hal.c 0x00000000   Number         0  stm32l4xx_hal.o ABSOLUTE
    ..\Drivers\STM32L4xx_HAL_Driver\Src\stm32l4xx_hal_cortex.c 0x00000000   Number         0  stm32l4xx_hal_cortex.o ABSOLUTE
    ..\Drivers\STM32L4xx_HAL_Driver\Src\stm32l4xx_hal_dma.c 0x00000000   Number         0  stm32l4xx_hal_dma.o ABSOLUTE
    ..\Drivers\STM32L4xx_HAL_Driver\Src\stm32l4xx_hal_flash.c 0x00000000   Number         0  stm32l4xx_hal_flash.o ABSOLUTE
    ..\Drivers\STM32L4xx_HAL_Driver\Src\stm32l4xx_hal_flash_ex.c 0x00000000   Number         0  stm32l4xx_hal_flash_ex.o ABSOLUTE
    ..\Drivers\STM32L4xx_HAL_Driver\Src\stm32l4xx_hal_flash_ramfunc.c 0x00000000   Number         0  stm32l4xx_hal_flash_ramfunc.o ABSOLUTE
    ..\Drivers\STM32L4xx_HAL_Driver\Src\stm32l4xx_hal_gpio.c 0x00000000   Number         0  stm32l4xx_hal_gpio.o ABSOLUTE
    ..\Drivers\STM32L4xx_HAL_Driver\Src\stm32l4xx_hal_i2c.c 0x00000000   Number         0  stm32l4xx_hal_i2c.o ABSOLUTE
    ..\Drivers\STM32L4xx_HAL_Driver\Src\stm32l4xx_hal_i2c_ex.c 0x00000000   Number         0  stm32l4xx_hal_i2c_ex.o ABSOLUTE
    ..\Drivers\STM32L4xx_HAL_Driver\Src\stm32l4xx_hal_iwdg.c 0x00000000   Number         0  stm32l4xx_hal_iwdg.o ABSOLUTE
    ..\Drivers\STM32L4xx_HAL_Driver\Src\stm32l4xx_hal_lptim.c 0x00000000   Number         0  stm32l4xx_hal_lptim.o ABSOLUTE
    ..\Drivers\STM32L4xx_HAL_Driver\Src\stm32l4xx_hal_pcd.c 0x00000000   Number         0  stm32l4xx_hal_pcd.o ABSOLUTE
    ..\Drivers\STM32L4xx_HAL_Driver\Src\stm32l4xx_hal_pcd_ex.c 0x00000000   Number         0  stm32l4xx_hal_pcd_ex.o ABSOLUTE
    ..\Drivers\STM32L4xx_HAL_Driver\Src\stm32l4xx_hal_pwr.c 0x00000000   Number         0  stm32l4xx_hal_pwr.o ABSOLUTE
    ..\Drivers\STM32L4xx_HAL_Driver\Src\stm32l4xx_hal_pwr_ex.c 0x00000000   Number         0  stm32l4xx_hal_pwr_ex.o ABSOLUTE
    ..\Drivers\STM32L4xx_HAL_Driver\Src\stm32l4xx_hal_qspi.c 0x00000000   Number         0  stm32l4xx_hal_qspi.o ABSOLUTE
    ..\Drivers\STM32L4xx_HAL_Driver\Src\stm32l4xx_hal_rcc.c 0x00000000   Number         0  stm32l4xx_hal_rcc.o ABSOLUTE
    ..\Drivers\STM32L4xx_HAL_Driver\Src\stm32l4xx_hal_rcc_ex.c 0x00000000   Number         0  stm32l4xx_hal_rcc_ex.o ABSOLUTE
    ..\Drivers\STM32L4xx_HAL_Driver\Src\stm32l4xx_hal_rtc.c 0x00000000   Number         0  stm32l4xx_hal_rtc.o ABSOLUTE
    ..\Drivers\STM32L4xx_HAL_Driver\Src\stm32l4xx_hal_rtc_ex.c 0x00000000   Number         0  stm32l4xx_hal_rtc_ex.o ABSOLUTE
    ..\Drivers\STM32L4xx_HAL_Driver\Src\stm32l4xx_hal_spi.c 0x00000000   Number         0  stm32l4xx_hal_spi.o ABSOLUTE
    ..\Drivers\STM32L4xx_HAL_Driver\Src\stm32l4xx_hal_spi_ex.c 0x00000000   Number         0  stm32l4xx_hal_spi_ex.o ABSOLUTE
    ..\Drivers\STM32L4xx_HAL_Driver\Src\stm32l4xx_hal_tim.c 0x00000000   Number         0  stm32l4xx_hal_tim.o ABSOLUTE
    ..\Drivers\STM32L4xx_HAL_Driver\Src\stm32l4xx_hal_tim_ex.c 0x00000000   Number         0  stm32l4xx_hal_tim_ex.o ABSOLUTE
    ..\Drivers\STM32L4xx_HAL_Driver\Src\stm32l4xx_hal_uart.c 0x00000000   Number         0  stm32l4xx_hal_uart.o ABSOLUTE
    ..\Drivers\STM32L4xx_HAL_Driver\Src\stm32l4xx_hal_uart_ex.c 0x00000000   Number         0  stm32l4xx_hal_uart_ex.o ABSOLUTE
    ..\Drivers\STM32L4xx_HAL_Driver\Src\stm32l4xx_ll_usb.c 0x00000000   Number         0  stm32l4xx_ll_usb.o ABSOLUTE
    ..\Middlewares\ST\STM32_USB_Device_Library\Core\Src\usbd_core.c 0x00000000   Number         0  usbd_core.o ABSOLUTE
    ..\Middlewares\ST\STM32_USB_Device_Library\Core\Src\usbd_ctlreq.c 0x00000000   Number         0  usbd_ctlreq.o ABSOLUTE
    ..\Middlewares\ST\STM32_USB_Device_Library\Core\Src\usbd_ioreq.c 0x00000000   Number         0  usbd_ioreq.o ABSOLUTE
    ..\MyCustomHID\Src\myusbd_customhid.c    0x00000000   Number         0  myusbd_customhid.o ABSOLUTE
    ..\Src\CYFISNP\CYFISNP_Eeprom.c          0x00000000   Number         0  cyfisnp_eeprom.o ABSOLUTE
    ..\Src\CYFISNP\CYFISNP_Flash_Utility.c   0x00000000   Number         0  cyfisnp_flash_utility.o ABSOLUTE
    ..\Src\CYFISNP\CYFISNP_ISR.c             0x00000000   Number         0  cyfisnp_isr.o ABSOLUTE
    ..\Src\CYFISNP\CYFISNP_Protocol.c        0x00000000   Number         0  cyfisnp_protocol.o ABSOLUTE
    ..\Src\CYFISNP\CYFISNP_Timer.c           0x00000000   Number         0  cyfisnp_timer.o ABSOLUTE
    ..\Src\CYFISNP\cyfi_hal.c                0x00000000   Number         0  cyfi_hal.o ABSOLUTE
    ..\Src\CYFISNP\cyfi_radio.c              0x00000000   Number         0  cyfi_radio.o ABSOLUTE
    ..\Src\MAX14676\MAX14676.c               0x00000000   Number         0  max14676.o ABSOLUTE
    ..\Src\gpio.c                            0x00000000   Number         0  gpio.o ABSOLUTE
    ..\Src\i2c.c                             0x00000000   Number         0  i2c.o ABSOLUTE
    ..\Src\iwdg.c                            0x00000000   Number         0  iwdg.o ABSOLUTE
    ..\Src\lptim.c                           0x00000000   Number         0  lptim.o ABSOLUTE
    ..\Src\main.c                            0x00000000   Number         0  main.o ABSOLUTE
    ..\Src\myusbd_custom_hid_if.c            0x00000000   Number         0  myusbd_custom_hid_if.o ABSOLUTE
    ..\Src\myusbd_desc.c                     0x00000000   Number         0  myusbd_desc.o ABSOLUTE
    ..\Src\quadspi.c                         0x00000000   Number         0  quadspi.o ABSOLUTE
    ..\Src\rtc.c                             0x00000000   Number         0  rtc.o ABSOLUTE
    ..\Src\spi.c                             0x00000000   Number         0  spi.o ABSOLUTE
    ..\Src\stm32l4xx_hal_msp.c               0x00000000   Number         0  stm32l4xx_hal_msp.o ABSOLUTE
    ..\Src\stm32l4xx_it.c                    0x00000000   Number         0  stm32l4xx_it.o ABSOLUTE
    ..\Src\system_stm32l4xx.c                0x00000000   Number         0  system_stm32l4xx.o ABSOLUTE
    ..\Src\tim.c                             0x00000000   Number         0  tim.o ABSOLUTE
    ..\Src\usart.c                           0x00000000   Number         0  usart.o ABSOLUTE
    ..\Src\usb_device.c                      0x00000000   Number         0  usb_device.o ABSOLUTE
    ..\Src\usbd_conf.c                       0x00000000   Number         0  usbd_conf.o ABSOLUTE
    ..\\MyCustomHID\\Src\\myusbd_customhid.c 0x00000000   Number         0  myusbd_customhid.o ABSOLUTE
    ..\\Src\\CYFISNP\\CYFISNP_Eeprom.c       0x00000000   Number         0  cyfisnp_eeprom.o ABSOLUTE
    ..\\Src\\CYFISNP\\CYFISNP_Flash_Utility.c 0x00000000   Number         0  cyfisnp_flash_utility.o ABSOLUTE
    ..\\Src\\CYFISNP\\CYFISNP_ISR.c          0x00000000   Number         0  cyfisnp_isr.o ABSOLUTE
    ..\\Src\\CYFISNP\\CYFISNP_Protocol.c     0x00000000   Number         0  cyfisnp_protocol.o ABSOLUTE
    ..\\Src\\CYFISNP\\CYFISNP_Timer.c        0x00000000   Number         0  cyfisnp_timer.o ABSOLUTE
    ..\\Src\\CYFISNP\\cyfi_hal.c             0x00000000   Number         0  cyfi_hal.o ABSOLUTE
    ..\\Src\\CYFISNP\\cyfi_radio.c           0x00000000   Number         0  cyfi_radio.o ABSOLUTE
    ..\\Src\\MAX14676\\MAX14676.c            0x00000000   Number         0  max14676.o ABSOLUTE
    ..\\Src\\myusbd_custom_hid_if.c          0x00000000   Number         0  myusbd_custom_hid_if.o ABSOLUTE
    ..\\Src\\myusbd_desc.c                   0x00000000   Number         0  myusbd_desc.o ABSOLUTE
    dc.s                                     0x00000000   Number         0  dc.o ABSOLUTE
    handlers.s                               0x00000000   Number         0  handlers.o ABSOLUTE
    init.s                                   0x00000000   Number         0  init.o ABSOLUTE
    startup_stm32l433xx.s                    0x00000000   Number         0  startup_stm32l433xx.o ABSOLUTE
    RESET                                    0x08000000   Section      396  startup_stm32l433xx.o(RESET)
    .ARM.Collect$$$$00000000                 0x0800018c   Section        0  entry.o(.ARM.Collect$$$$00000000)
    .ARM.Collect$$$$00000001                 0x0800018c   Section        4  entry2.o(.ARM.Collect$$$$00000001)
    .ARM.Collect$$$$00000004                 0x08000190   Section        4  entry5.o(.ARM.Collect$$$$00000004)
    .ARM.Collect$$$$00000008                 0x08000194   Section        0  entry7b.o(.ARM.Collect$$$$00000008)
    .ARM.Collect$$$$0000000A                 0x08000194   Section        0  entry8b.o(.ARM.Collect$$$$0000000A)
    .ARM.Collect$$$$0000000B                 0x08000194   Section        8  entry9a.o(.ARM.Collect$$$$0000000B)
    .ARM.Collect$$$$0000000D                 0x0800019c   Section        0  entry10a.o(.ARM.Collect$$$$0000000D)
    .ARM.Collect$$$$0000000F                 0x0800019c   Section        0  entry11a.o(.ARM.Collect$$$$0000000F)
    .ARM.Collect$$$$00002712                 0x0800019c   Section        4  entry2.o(.ARM.Collect$$$$00002712)
    __lit__00000000                          0x0800019c   Data           4  entry2.o(.ARM.Collect$$$$00002712)
    .text                                    0x080001a0   Section       36  startup_stm32l433xx.o(.text)
    $v0                                      0x080001a0   Number         0  startup_stm32l433xx.o(.text)
    .text                                    0x080001c4   Section        0  uldiv.o(.text)
    .text                                    0x0800022c   Section        0  memcpya.o(.text)
    .text                                    0x08000250   Section        0  memseta.o(.text)
    .text                                    0x08000274   Section        0  memcmp.o(.text)
    .text                                    0x0800028e   Section        0  llshl.o(.text)
    .text                                    0x080002ac   Section        0  llushr.o(.text)
    .text                                    0x080002cc   Section       36  init.o(.text)
    .text                                    0x080002f0   Section        0  __dczerorl2.o(.text)
    i.BCD_Cmd_Process                        0x08000348   Section        0  myusbd_custom_hid_if.o(i.BCD_Cmd_Process)
    i.BUZZ_Off                               0x08000680   Section        0  lptim.o(i.BUZZ_Off)
    i.BUZZ_On                                0x0800068c   Section        0  lptim.o(i.BUZZ_On)
    i.BusFault_Handler                       0x0800069c   Section        0  stm32l4xx_it.o(i.BusFault_Handler)
    i.CUSTOM_HID_DeInit_FS                   0x0800069e   Section        0  myusbd_custom_hid_if.o(i.CUSTOM_HID_DeInit_FS)
    CUSTOM_HID_DeInit_FS                     0x0800069f   Thumb Code     4  myusbd_custom_hid_if.o(i.CUSTOM_HID_DeInit_FS)
    i.CUSTOM_HID_Init_FS                     0x080006a2   Section        0  myusbd_custom_hid_if.o(i.CUSTOM_HID_Init_FS)
    CUSTOM_HID_Init_FS                       0x080006a3   Thumb Code     4  myusbd_custom_hid_if.o(i.CUSTOM_HID_Init_FS)
    i.CYFISNP_Abort                          0x080006a8   Section        0  cyfi_radio.o(i.CYFISNP_Abort)
    i.CYFISNP_BindStart                      0x08000710   Section        0  cyfisnp_protocol.o(i.CYFISNP_BindStart)
    i.CYFISNP_ByteWrite                      0x08000748   Section        0  cyfi_hal.o(i.CYFISNP_ByteWrite)
    i.CYFISNP_EndReceive                     0x0800074c   Section        0  cyfi_radio.o(i.CYFISNP_EndReceive)
    i.CYFISNP_EndTransmit                    0x080007ac   Section        0  cyfi_radio.o(i.CYFISNP_EndTransmit)
    i.CYFISNP_FileRead                       0x080007b8   Section        0  cyfi_hal.o(i.CYFISNP_FileRead)
    i.CYFISNP_FileWrite                      0x08000834   Section        0  cyfi_hal.o(i.CYFISNP_FileWrite)
    i.CYFISNP_ForceState                     0x0800087c   Section        0  cyfi_radio.o(i.CYFISNP_ForceState)
    i.CYFISNP_GetCrcSeed                     0x080008a0   Section        0  cyfi_radio.o(i.CYFISNP_GetCrcSeed)
    i.CYFISNP_GetFuses                       0x080008b8   Section        0  cyfi_radio.o(i.CYFISNP_GetFuses)
    i.CYFISNP_GetHubMid                      0x080008f0   Section        0  cyfisnp_protocol.o(i.CYFISNP_GetHubMid)
    i.CYFISNP_GetHubNet                      0x08000904   Section        0  cyfisnp_protocol.o(i.CYFISNP_GetHubNet)
    i.CYFISNP_GetReceiveState                0x08000978   Section        0  cyfi_radio.o(i.CYFISNP_GetReceiveState)
    i.CYFISNP_GetReceiveStatus               0x080009a8   Section        0  cyfi_radio.o(i.CYFISNP_GetReceiveStatus)
    i.CYFISNP_GetRssi                        0x080009ae   Section        0  cyfi_radio.o(i.CYFISNP_GetRssi)
    i.CYFISNP_GetTransmitState               0x080009b4   Section        0  cyfi_radio.o(i.CYFISNP_GetTransmitState)
    i.CYFISNP_IRQ_Read                       0x08000a08   Section        0  cyfisnp_isr.o(i.CYFISNP_IRQ_Read)
    i.CYFISNP_ISR_Interrupt                  0x08000a14   Section        0  cyfisnp_isr.o(i.CYFISNP_ISR_Interrupt)
    i.CYFISNP_Init                           0x08000dac   Section        0  cyfi_radio.o(i.CYFISNP_Init)
    i.CYFISNP_PhyStart                       0x08000e1c   Section        0  cyfi_radio.o(i.CYFISNP_PhyStart)
    i.CYFISNP_PhyStop                        0x08000e42   Section        0  cyfi_radio.o(i.CYFISNP_PhyStop)
    i.CYFISNP_Read                           0x08000e52   Section        0  cyfi_hal.o(i.CYFISNP_Read)
    i.CYFISNP_ReadStatusDebounced            0x08000e80   Section        0  cyfi_hal.o(i.CYFISNP_ReadStatusDebounced)
    i.CYFISNP_Reset                          0x08000ea0   Section        0  cyfi_hal.o(i.CYFISNP_Reset)
    i.CYFISNP_RestartTransmit                0x08000ebc   Section        0  cyfi_radio.o(i.CYFISNP_RestartTransmit)
    i.CYFISNP_Run                            0x08000ef0   Section        0  cyfisnp_protocol.o(i.CYFISNP_Run)
    i.CYFISNP_RxdataGet                      0x08000fb8   Section        0  cyfisnp_isr.o(i.CYFISNP_RxdataGet)
    i.CYFISNP_RxdataPend                     0x08000fcc   Section        0  cyfisnp_protocol.o(i.CYFISNP_RxdataPend)
    i.CYFISNP_RxdataRelease                  0x08001080   Section        0  cyfisnp_isr.o(i.CYFISNP_RxdataRelease)
    i.CYFISNP_SPI_ByteWrite                  0x080010c4   Section        0  spi.o(i.CYFISNP_SPI_ByteWrite)
    i.CYFISNP_SetChannel                     0x080010e4   Section        0  cyfi_radio.o(i.CYFISNP_SetChannel)
    i.CYFISNP_SetConstSopPnCode              0x080010f4   Section        0  cyfi_radio.o(i.CYFISNP_SetConstSopPnCode)
    i.CYFISNP_SetCrcSeed                     0x0800110e   Section        0  cyfi_radio.o(i.CYFISNP_SetCrcSeed)
    i.CYFISNP_SetFrameConfig                 0x08001126   Section        0  cyfi_radio.o(i.CYFISNP_SetFrameConfig)
    i.CYFISNP_SetLength                      0x08001130   Section        0  cyfi_hal.o(i.CYFISNP_SetLength)
    i.CYFISNP_SetPreambleCount               0x0800113c   Section        0  cyfi_radio.o(i.CYFISNP_SetPreambleCount)
    i.CYFISNP_SetPtr                         0x08001164   Section        0  cyfi_hal.o(i.CYFISNP_SetPtr)
    i.CYFISNP_SetSopPnCode                   0x08001170   Section        0  cyfi_radio.o(i.CYFISNP_SetSopPnCode)
    i.CYFISNP_SetThreshold32                 0x08001180   Section        0  cyfi_radio.o(i.CYFISNP_SetThreshold32)
    i.CYFISNP_SetThreshold64                 0x08001188   Section        0  cyfi_radio.o(i.CYFISNP_SetThreshold64)
    i.CYFISNP_SetTxConfig                    0x08001190   Section        0  cyfi_radio.o(i.CYFISNP_SetTxConfig)
    i.CYFISNP_SetXactConfig                  0x08001198   Section        0  cyfi_radio.o(i.CYFISNP_SetXactConfig)
    i.CYFISNP_Start                          0x080011ac   Section        0  cyfisnp_protocol.o(i.CYFISNP_Start)
    i.CYFISNP_StartReceive                   0x080012c4   Section        0  cyfi_radio.o(i.CYFISNP_StartReceive)
    i.CYFISNP_StartTransmit                  0x080012e8   Section        0  cyfi_radio.o(i.CYFISNP_StartTransmit)
    i.CYFISNP_Stop                           0x080012f8   Section        0  cyfisnp_protocol.o(i.CYFISNP_Stop)
    i.CYFISNP_TimeExpired                    0x0800130c   Section        0  cyfisnp_timer.o(i.CYFISNP_TimeExpired)
    i.CYFISNP_TimeSet                        0x08001318   Section        0  cyfisnp_timer.o(i.CYFISNP_TimeSet)
    i.CYFISNP_TxdataPend                     0x0800131c   Section        0  cyfisnp_protocol.o(i.CYFISNP_TxdataPend)
    i.CYFISNP_TxdataPut                      0x08001360   Section        0  cyfisnp_protocol.o(i.CYFISNP_TxdataPut)
    i.CYFISNP_Write                          0x080013c0   Section        0  cyfi_hal.o(i.CYFISNP_Write)
    i.CYFISNP_devRecWrite                    0x080013f8   Section        0  cyfisnp_protocol.o(i.CYFISNP_devRecWrite)
    i.CYFISNP_netRecWrite                    0x08001406   Section        0  cyfisnp_protocol.o(i.CYFISNP_netRecWrite)
    i.CYFISNP_phyIdle                        0x08001414   Section        0  cyfisnp_protocol.o(i.CYFISNP_phyIdle)
    i.CYFISNP_phyRxGo                        0x08001458   Section        0  cyfisnp_protocol.o(i.CYFISNP_phyRxGo)
    i.CYFISNP_startReceive                   0x0800147c   Section        0  cyfisnp_isr.o(i.CYFISNP_startReceive)
    i.Cy_DelayUS2                            0x080014a4   Section        0  main.o(i.Cy_DelayUS2)
    i.DebugMon_Handler                       0x080014c4   Section        0  stm32l4xx_it.o(i.DebugMon_Handler)
    i.DecodeToDec                            0x080014c6   Section        0  usart.o(i.DecodeToDec)
    i.DecodeToHex                            0x08001548   Section        0  usart.o(i.DecodeToHex)
    i.DisableCHG                             0x0800157c   Section        0  max14676.o(i.DisableCHG)
    i.EXTI0_IRQHandler                       0x080015d0   Section        0  stm32l4xx_it.o(i.EXTI0_IRQHandler)
    i.EXTI15_10_IRQHandler                   0x080015d8   Section        0  stm32l4xx_it.o(i.EXTI15_10_IRQHandler)
    i.EXTI3_IRQHandler                       0x080015f0   Section        0  stm32l4xx_it.o(i.EXTI3_IRQHandler)
    i.EXTI9_5_IRQHandler                     0x08001608   Section        0  stm32l4xx_it.o(i.EXTI9_5_IRQHandler)
    i.EnableCHG                              0x08001620   Section        0  max14676.o(i.EnableCHG)
    i.EnterBootMode                          0x080016dc   Section        0  myusbd_custom_hid_if.o(i.EnterBootMode)
    i.FLASH_FlushCaches                      0x080017b4   Section        0  stm32l4xx_hal_flash_ex.o(i.FLASH_FlushCaches)
    i.FLASH_MassErase                        0x08001810   Section        0  stm32l4xx_hal_flash_ex.o(i.FLASH_MassErase)
    FLASH_MassErase                          0x08001811   Thumb Code    24  stm32l4xx_hal_flash_ex.o(i.FLASH_MassErase)
    i.FLASH_OB_PCROPConfig                   0x0800182c   Section        0  stm32l4xx_hal_flash_ex.o(i.FLASH_OB_PCROPConfig)
    FLASH_OB_PCROPConfig                     0x0800182d   Thumb Code    98  stm32l4xx_hal_flash_ex.o(i.FLASH_OB_PCROPConfig)
    i.FLASH_OB_UserConfig                    0x08001894   Section        0  stm32l4xx_hal_flash_ex.o(i.FLASH_OB_UserConfig)
    FLASH_OB_UserConfig                      0x08001895   Thumb Code   242  stm32l4xx_hal_flash_ex.o(i.FLASH_OB_UserConfig)
    i.FLASH_PageErase                        0x0800198c   Section        0  stm32l4xx_hal_flash_ex.o(i.FLASH_PageErase)
    i.FLASH_Program_DoubleWord               0x080019bc   Section        0  stm32l4xx_hal_flash.o(i.FLASH_Program_DoubleWord)
    FLASH_Program_DoubleWord                 0x080019bd   Thumb Code    18  stm32l4xx_hal_flash.o(i.FLASH_Program_DoubleWord)
    i.FLASH_Program_Fast                     0x080019d4   Section        0  stm32l4xx_hal_flash.o(i.FLASH_Program_Fast)
    FLASH_Program_Fast                       0x080019d5   Thumb Code    32  stm32l4xx_hal_flash.o(i.FLASH_Program_Fast)
    i.FLASH_SetErrorCode                     0x080019f8   Section        0  stm32l4xx_hal_flash.o(i.FLASH_SetErrorCode)
    FLASH_SetErrorCode                       0x080019f9   Thumb Code   194  stm32l4xx_hal_flash.o(i.FLASH_SetErrorCode)
    i.FLASH_WaitForLastOperation             0x08001ac4   Section        0  stm32l4xx_hal_flash.o(i.FLASH_WaitForLastOperation)
    i.Flash_Program                          0x08001b4c   Section        0  cyfisnp_flash_utility.o(i.Flash_Program)
    i.GRN_LED_Config                         0x08001c6c   Section        0  tim.o(i.GRN_LED_Config)
    i.GRN_LED_Dime                           0x08001c78   Section        0  tim.o(i.GRN_LED_Dime)
    i.GRN_LED_On                             0x08001cac   Section        0  tim.o(i.GRN_LED_On)
    i.GRN_LED_Toggle                         0x08001ccc   Section        0  tim.o(i.GRN_LED_Toggle)
    i.GetPage                                0x08001cf0   Section        0  cyfisnp_flash_utility.o(i.GetPage)
    GetPage                                  0x08001cf1   Thumb Code    56  cyfisnp_flash_utility.o(i.GetPage)
    i.Get_USB_Out_Buffer                     0x08001d2c   Section        0  myusbd_custom_hid_if.o(i.Get_USB_Out_Buffer)
    i.HAL_DMA_Abort_IT                       0x08001d48   Section        0  stm32l4xx_hal_dma.o(i.HAL_DMA_Abort_IT)
    i.HAL_Delay                              0x08001d92   Section        0  stm32l4xx_hal.o(i.HAL_Delay)
    i.HAL_FLASHEx_Erase                      0x08001db0   Section        0  stm32l4xx_hal_flash_ex.o(i.HAL_FLASHEx_Erase)
    i.HAL_FLASHEx_OBGetConfig                0x08001e94   Section        0  stm32l4xx_hal_flash_ex.o(i.HAL_FLASHEx_OBGetConfig)
    i.HAL_FLASHEx_OBProgram                  0x08001f20   Section        0  stm32l4xx_hal_flash_ex.o(i.HAL_FLASHEx_OBProgram)
    i.HAL_FLASH_GetError                     0x08002038   Section        0  stm32l4xx_hal_flash.o(i.HAL_FLASH_GetError)
    i.HAL_FLASH_Lock                         0x08002044   Section        0  stm32l4xx_hal_flash.o(i.HAL_FLASH_Lock)
    i.HAL_FLASH_OB_Launch                    0x08002058   Section        0  stm32l4xx_hal_flash.o(i.HAL_FLASH_OB_Launch)
    i.HAL_FLASH_OB_Lock                      0x08002070   Section        0  stm32l4xx_hal_flash.o(i.HAL_FLASH_OB_Lock)
    i.HAL_FLASH_OB_Unlock                    0x08002084   Section        0  stm32l4xx_hal_flash.o(i.HAL_FLASH_OB_Unlock)
    i.HAL_FLASH_Program                      0x080020a8   Section        0  stm32l4xx_hal_flash.o(i.HAL_FLASH_Program)
    i.HAL_FLASH_Unlock                       0x08002154   Section        0  stm32l4xx_hal_flash.o(i.HAL_FLASH_Unlock)
    i.HAL_GPIO_EXTI_Callback                 0x08002178   Section        0  main.o(i.HAL_GPIO_EXTI_Callback)
    i.HAL_GPIO_EXTI_IRQHandler               0x0800217c   Section        0  stm32l4xx_hal_gpio.o(i.HAL_GPIO_EXTI_IRQHandler)
    i.HAL_GPIO_EXTI_myCallback10             0x08002194   Section        0  main.o(i.HAL_GPIO_EXTI_myCallback10)
    i.HAL_GPIO_EXTI_myCallback3              0x080021e8   Section        0  main.o(i.HAL_GPIO_EXTI_myCallback3)
    i.HAL_GPIO_EXTI_myCallback9              0x08002218   Section        0  main.o(i.HAL_GPIO_EXTI_myCallback9)
    i.HAL_GPIO_EXTI_myIRQHandler10           0x0800227c   Section        0  main.o(i.HAL_GPIO_EXTI_myIRQHandler10)
    i.HAL_GPIO_EXTI_myIRQHandler3            0x08002290   Section        0  main.o(i.HAL_GPIO_EXTI_myIRQHandler3)
    i.HAL_GPIO_EXTI_myIRQHandler9            0x080022a4   Section        0  main.o(i.HAL_GPIO_EXTI_myIRQHandler9)
    i.HAL_GPIO_Init                          0x080022b8   Section        0  stm32l4xx_hal_gpio.o(i.HAL_GPIO_Init)
    i.HAL_GPIO_ReadPin                       0x08002446   Section        0  stm32l4xx_hal_gpio.o(i.HAL_GPIO_ReadPin)
    i.HAL_GPIO_WritePin                      0x08002450   Section        0  stm32l4xx_hal_gpio.o(i.HAL_GPIO_WritePin)
    i.HAL_GetTick                            0x0800245c   Section        0  stm32l4xx_hal.o(i.HAL_GetTick)
    i.HAL_I2CEx_ConfigAnalogFilter           0x08002468   Section        0  stm32l4xx_hal_i2c_ex.o(i.HAL_I2CEx_ConfigAnalogFilter)
    i.HAL_I2CEx_ConfigDigitalFilter          0x080024be   Section        0  stm32l4xx_hal_i2c_ex.o(i.HAL_I2CEx_ConfigDigitalFilter)
    i.HAL_I2C_Init                           0x08002510   Section        0  stm32l4xx_hal_i2c.o(i.HAL_I2C_Init)
    i.HAL_I2C_Master_Receive                 0x080025c8   Section        0  stm32l4xx_hal_i2c.o(i.HAL_I2C_Master_Receive)
    i.HAL_I2C_Master_Transmit                0x08002700   Section        0  stm32l4xx_hal_i2c.o(i.HAL_I2C_Master_Transmit)
    i.HAL_I2C_MspInit                        0x08002830   Section        0  i2c.o(i.HAL_I2C_MspInit)
    i.HAL_IWDG_Init                          0x0800287c   Section        0  stm32l4xx_hal_iwdg.o(i.HAL_IWDG_Init)
    i.HAL_IWDG_Refresh                       0x080028da   Section        0  stm32l4xx_hal_iwdg.o(i.HAL_IWDG_Refresh)
    i.HAL_IncTick                            0x080028e8   Section        0  stm32l4xx_hal.o(i.HAL_IncTick)
    i.HAL_Init                               0x080028f8   Section        0  stm32l4xx_hal.o(i.HAL_Init)
    i.HAL_InitTick                           0x08002910   Section        0  stm32l4xx_hal.o(i.HAL_InitTick)
    i.HAL_LPTIM_Init                         0x08002938   Section        0  stm32l4xx_hal_lptim.o(i.HAL_LPTIM_Init)
    i.HAL_LPTIM_MspInit                      0x080029dc   Section        0  lptim.o(i.HAL_LPTIM_MspInit)
    i.HAL_LPTIM_PWM_Start                    0x08002a24   Section        0  stm32l4xx_hal_lptim.o(i.HAL_LPTIM_PWM_Start)
    i.HAL_LPTIM_PWM_Stop                     0x08002a5c   Section        0  stm32l4xx_hal_lptim.o(i.HAL_LPTIM_PWM_Stop)
    i.HAL_MspInit                            0x08002a78   Section        0  stm32l4xx_hal_msp.o(i.HAL_MspInit)
    i.HAL_NVIC_DisableIRQ                    0x08002af8   Section        0  stm32l4xx_hal_cortex.o(i.HAL_NVIC_DisableIRQ)
    i.HAL_NVIC_EnableIRQ                     0x08002b0e   Section        0  stm32l4xx_hal_cortex.o(i.HAL_NVIC_EnableIRQ)
    i.HAL_NVIC_SetPriority                   0x08002b24   Section        0  stm32l4xx_hal_cortex.o(i.HAL_NVIC_SetPriority)
    i.HAL_NVIC_SetPriorityGrouping           0x08002b64   Section        0  stm32l4xx_hal_cortex.o(i.HAL_NVIC_SetPriorityGrouping)
    i.HAL_PCDEx_ActivateBCD                  0x08002b88   Section        0  stm32l4xx_hal_pcd_ex.o(i.HAL_PCDEx_ActivateBCD)
    i.HAL_PCDEx_ActivateLPM                  0x08002ba6   Section        0  stm32l4xx_hal_pcd_ex.o(i.HAL_PCDEx_ActivateLPM)
    i.HAL_PCDEx_LPM_Callback                 0x08002bcc   Section        0  usbd_conf.o(i.HAL_PCDEx_LPM_Callback)
    i.HAL_PCDEx_PMAConfig                    0x08002c10   Section        0  stm32l4xx_hal_pcd_ex.o(i.HAL_PCDEx_PMAConfig)
    i.HAL_PCD_DataInStageCallback            0x08002c44   Section        0  usbd_conf.o(i.HAL_PCD_DataInStageCallback)
    i.HAL_PCD_DataOutStageCallback           0x08002c52   Section        0  usbd_conf.o(i.HAL_PCD_DataOutStageCallback)
    i.HAL_PCD_EP_Close                       0x08002c62   Section        0  stm32l4xx_hal_pcd.o(i.HAL_PCD_EP_Close)
    i.HAL_PCD_EP_ClrStall                    0x08002ca2   Section        0  stm32l4xx_hal_pcd.o(i.HAL_PCD_EP_ClrStall)
    i.HAL_PCD_EP_Open                        0x08002cea   Section        0  stm32l4xx_hal_pcd.o(i.HAL_PCD_EP_Open)
    i.HAL_PCD_EP_Receive                     0x08002d2e   Section        0  stm32l4xx_hal_pcd.o(i.HAL_PCD_EP_Receive)
    i.HAL_PCD_EP_SetStall                    0x08002d5e   Section        0  stm32l4xx_hal_pcd.o(i.HAL_PCD_EP_SetStall)
    i.HAL_PCD_EP_Transmit                    0x08002db6   Section        0  stm32l4xx_hal_pcd.o(i.HAL_PCD_EP_Transmit)
    i.HAL_PCD_IRQHandler                     0x08002de2   Section        0  stm32l4xx_hal_pcd.o(i.HAL_PCD_IRQHandler)
    i.HAL_PCD_Init                           0x08002f80   Section        0  stm32l4xx_hal_pcd.o(i.HAL_PCD_Init)
    i.HAL_PCD_MspInit                        0x08003058   Section        0  usbd_conf.o(i.HAL_PCD_MspInit)
    i.HAL_PCD_ResetCallback                  0x080030b4   Section        0  usbd_conf.o(i.HAL_PCD_ResetCallback)
    i.HAL_PCD_ResumeCallback                 0x080030d0   Section        0  usbd_conf.o(i.HAL_PCD_ResumeCallback)
    i.HAL_PCD_SOFCallback                    0x080030f8   Section        0  usbd_conf.o(i.HAL_PCD_SOFCallback)
    i.HAL_PCD_SetAddress                     0x08003100   Section        0  stm32l4xx_hal_pcd.o(i.HAL_PCD_SetAddress)
    i.HAL_PCD_SetupStageCallback             0x08003128   Section        0  usbd_conf.o(i.HAL_PCD_SetupStageCallback)
    i.HAL_PCD_Start                          0x08003136   Section        0  stm32l4xx_hal_pcd.o(i.HAL_PCD_Start)
    i.HAL_PCD_SuspendCallback                0x08003160   Section        0  usbd_conf.o(i.HAL_PCD_SuspendCallback)
    i.HAL_PWREx_ControlVoltageScaling        0x08003184   Section        0  stm32l4xx_hal_pwr_ex.o(i.HAL_PWREx_ControlVoltageScaling)
    i.HAL_PWREx_EnableVddUSB                 0x080031e8   Section        0  stm32l4xx_hal_pwr_ex.o(i.HAL_PWREx_EnableVddUSB)
    i.HAL_PWREx_GetVoltageRange              0x080031f8   Section        0  stm32l4xx_hal_pwr_ex.o(i.HAL_PWREx_GetVoltageRange)
    i.HAL_QSPI_Init                          0x08003208   Section        0  stm32l4xx_hal_qspi.o(i.HAL_QSPI_Init)
    i.HAL_QSPI_MspInit                       0x080032e0   Section        0  quadspi.o(i.HAL_QSPI_MspInit)
    i.HAL_RCCEx_EnableMSIPLLMode             0x08003338   Section        0  stm32l4xx_hal_rcc_ex.o(i.HAL_RCCEx_EnableMSIPLLMode)
    i.HAL_RCCEx_PeriphCLKConfig              0x08003348   Section        0  stm32l4xx_hal_rcc_ex.o(i.HAL_RCCEx_PeriphCLKConfig)
    i.HAL_RCC_ClockConfig                    0x08003638   Section        0  stm32l4xx_hal_rcc.o(i.HAL_RCC_ClockConfig)
    i.HAL_RCC_GetHCLKFreq                    0x080037ac   Section        0  stm32l4xx_hal_rcc.o(i.HAL_RCC_GetHCLKFreq)
    i.HAL_RCC_GetPCLK1Freq                   0x080037b8   Section        0  stm32l4xx_hal_rcc.o(i.HAL_RCC_GetPCLK1Freq)
    i.HAL_RCC_GetPCLK2Freq                   0x080037d8   Section        0  stm32l4xx_hal_rcc.o(i.HAL_RCC_GetPCLK2Freq)
    i.HAL_RCC_GetSysClockFreq                0x080037f8   Section        0  stm32l4xx_hal_rcc.o(i.HAL_RCC_GetSysClockFreq)
    i.HAL_RCC_OscConfig                      0x080038bc   Section        0  stm32l4xx_hal_rcc.o(i.HAL_RCC_OscConfig)
    i.HAL_RTCEx_BKUPRead                     0x08003d6c   Section        0  stm32l4xx_hal_rtc_ex.o(i.HAL_RTCEx_BKUPRead)
    i.HAL_RTCEx_BKUPWrite                    0x08003d76   Section        0  stm32l4xx_hal_rtc_ex.o(i.HAL_RTCEx_BKUPWrite)
    i.HAL_RTC_Init                           0x08003d80   Section        0  stm32l4xx_hal_rtc.o(i.HAL_RTC_Init)
    i.HAL_RTC_MspInit                        0x08003e38   Section        0  rtc.o(i.HAL_RTC_MspInit)
    i.HAL_RTC_SetDate                        0x08003e58   Section        0  stm32l4xx_hal_rtc.o(i.HAL_RTC_SetDate)
    i.HAL_RTC_SetTime                        0x08003f30   Section        0  stm32l4xx_hal_rtc.o(i.HAL_RTC_SetTime)
    i.HAL_RTC_WaitForSynchro                 0x08004028   Section        0  stm32l4xx_hal_rtc.o(i.HAL_RTC_WaitForSynchro)
    i.HAL_SPI_Init                           0x0800405e   Section        0  stm32l4xx_hal_spi.o(i.HAL_SPI_Init)
    i.HAL_SPI_MspInit                        0x0800410c   Section        0  spi.o(i.HAL_SPI_MspInit)
    i.HAL_SPI_TransmitReceive                0x08004158   Section        0  stm32l4xx_hal_spi.o(i.HAL_SPI_TransmitReceive)
    i.HAL_SYSTICK_CLKSourceConfig            0x0800439c   Section        0  stm32l4xx_hal_cortex.o(i.HAL_SYSTICK_CLKSourceConfig)
    i.HAL_SYSTICK_Callback                   0x080043b4   Section        0  stm32l4xx_hal_cortex.o(i.HAL_SYSTICK_Callback)
    i.HAL_SYSTICK_Config                     0x080043b6   Section        0  stm32l4xx_hal_cortex.o(i.HAL_SYSTICK_Config)
    i.HAL_SYSTICK_IRQHandler                 0x080043de   Section        0  stm32l4xx_hal_cortex.o(i.HAL_SYSTICK_IRQHandler)
    i.HAL_TIMEx_MasterConfigSynchronization  0x080043e8   Section        0  stm32l4xx_hal_tim_ex.o(i.HAL_TIMEx_MasterConfigSynchronization)
    i.HAL_TIM_Base_Init                      0x08004434   Section        0  stm32l4xx_hal_tim.o(i.HAL_TIM_Base_Init)
    i.HAL_TIM_Base_MspInit                   0x0800446c   Section        0  tim.o(i.HAL_TIM_Base_MspInit)
    i.HAL_TIM_ConfigClockSource              0x08004490   Section        0  stm32l4xx_hal_tim.o(i.HAL_TIM_ConfigClockSource)
    i.HAL_TIM_MspPostInit                    0x0800458c   Section        0  tim.o(i.HAL_TIM_MspPostInit)
    i.HAL_TIM_PWM_ConfigChannel              0x080045e6   Section        0  stm32l4xx_hal_tim.o(i.HAL_TIM_PWM_ConfigChannel)
    i.HAL_TIM_PWM_Init                       0x0800470e   Section        0  stm32l4xx_hal_tim.o(i.HAL_TIM_PWM_Init)
    i.HAL_TIM_PWM_MspInit                    0x08004744   Section        0  stm32l4xx_hal_tim.o(i.HAL_TIM_PWM_MspInit)
    i.HAL_TIM_PWM_Start                      0x08004748   Section        0  stm32l4xx_hal_tim.o(i.HAL_TIM_PWM_Start)
    i.HAL_TIM_PWM_Stop                       0x0800478c   Section        0  stm32l4xx_hal_tim.o(i.HAL_TIM_PWM_Stop)
    i.HAL_UARTEx_WakeupCallback              0x080047f4   Section        0  stm32l4xx_hal_uart_ex.o(i.HAL_UARTEx_WakeupCallback)
    i.HAL_UART_ErrorCallback                 0x080047f8   Section        0  usart.o(i.HAL_UART_ErrorCallback)
    i.HAL_UART_IRQHandler                    0x0800482c   Section        0  stm32l4xx_hal_uart.o(i.HAL_UART_IRQHandler)
    i.HAL_UART_Init                          0x080049c8   Section        0  stm32l4xx_hal_uart.o(i.HAL_UART_Init)
    i.HAL_UART_MspInit                       0x08004a34   Section        0  usart.o(i.HAL_UART_MspInit)
    i.HAL_UART_Receive_IT                    0x08004a8c   Section        0  stm32l4xx_hal_uart.o(i.HAL_UART_Receive_IT)
    i.HAL_UART_RxCpltCallback                0x08004b18   Section        0  usart.o(i.HAL_UART_RxCpltCallback)
    i.HAL_UART_Transmit                      0x08004ba0   Section        0  stm32l4xx_hal_uart.o(i.HAL_UART_Transmit)
    i.HAL_UART_Transmit_IT                   0x08004c54   Section        0  stm32l4xx_hal_uart.o(i.HAL_UART_Transmit_IT)
    i.HAL_UART_TxCpltCallback                0x08004c92   Section        0  stm32l4xx_hal_uart.o(i.HAL_UART_TxCpltCallback)
    i.HardFault_Handler                      0x08004c94   Section        0  stm32l4xx_it.o(i.HardFault_Handler)
    i.I2C_Flush_TXDR                         0x08004c96   Section        0  stm32l4xx_hal_i2c.o(i.I2C_Flush_TXDR)
    I2C_Flush_TXDR                           0x08004c97   Thumb Code    34  stm32l4xx_hal_i2c.o(i.I2C_Flush_TXDR)
    i.I2C_IsAcknowledgeFailed                0x08004cb8   Section        0  stm32l4xx_hal_i2c.o(i.I2C_IsAcknowledgeFailed)
    I2C_IsAcknowledgeFailed                  0x08004cb9   Thumb Code   118  stm32l4xx_hal_i2c.o(i.I2C_IsAcknowledgeFailed)
    i.I2C_TransferConfig                     0x08004d34   Section        0  stm32l4xx_hal_i2c.o(i.I2C_TransferConfig)
    I2C_TransferConfig                       0x08004d35   Thumb Code    30  stm32l4xx_hal_i2c.o(i.I2C_TransferConfig)
    i.I2C_WaitOnFlagUntilTimeout             0x08004d58   Section        0  stm32l4xx_hal_i2c.o(i.I2C_WaitOnFlagUntilTimeout)
    I2C_WaitOnFlagUntilTimeout               0x08004d59   Thumb Code    82  stm32l4xx_hal_i2c.o(i.I2C_WaitOnFlagUntilTimeout)
    i.I2C_WaitOnRXNEFlagUntilTimeout         0x08004dac   Section        0  stm32l4xx_hal_i2c.o(i.I2C_WaitOnRXNEFlagUntilTimeout)
    I2C_WaitOnRXNEFlagUntilTimeout           0x08004dad   Thumb Code   122  stm32l4xx_hal_i2c.o(i.I2C_WaitOnRXNEFlagUntilTimeout)
    i.I2C_WaitOnSTOPFlagUntilTimeout         0x08004e2c   Section        0  stm32l4xx_hal_i2c.o(i.I2C_WaitOnSTOPFlagUntilTimeout)
    I2C_WaitOnSTOPFlagUntilTimeout           0x08004e2d   Thumb Code    78  stm32l4xx_hal_i2c.o(i.I2C_WaitOnSTOPFlagUntilTimeout)
    i.I2C_WaitOnTXISFlagUntilTimeout         0x08004e7a   Section        0  stm32l4xx_hal_i2c.o(i.I2C_WaitOnTXISFlagUntilTimeout)
    I2C_WaitOnTXISFlagUntilTimeout           0x08004e7b   Thumb Code    82  stm32l4xx_hal_i2c.o(i.I2C_WaitOnTXISFlagUntilTimeout)
    i.IsCYFISNP_InterruptActive              0x08004ecc   Section        0  cyfi_hal.o(i.IsCYFISNP_InterruptActive)
    i.LPUART1_IRQHandler                     0x08004ed8   Section        0  stm32l4xx_it.o(i.LPUART1_IRQHandler)
    i.MX_GPIO_Init                           0x08004ee4   Section        0  gpio.o(i.MX_GPIO_Init)
    i.MX_I2C1_Init                           0x08005104   Section        0  i2c.o(i.MX_I2C1_Init)
    i.MX_IWDG_Init                           0x0800517c   Section        0  iwdg.o(i.MX_IWDG_Init)
    i.MX_IWDG_RESET                          0x080051c0   Section        0  iwdg.o(i.MX_IWDG_RESET)
    i.MX_LPTIM1_Init                         0x080051cc   Section        0  lptim.o(i.MX_LPTIM1_Init)
    i.MX_LPUART1_UART_Init                   0x0800521c   Section        0  usart.o(i.MX_LPUART1_UART_Init)
    i.MX_QUADSPI_Init                        0x08005278   Section        0  quadspi.o(i.MX_QUADSPI_Init)
    i.MX_RTC_Init                            0x080052c8   Section        0  rtc.o(i.MX_RTC_Init)
    i.MX_SPI1_Init                           0x08005374   Section        0  spi.o(i.MX_SPI1_Init)
    i.MX_TIM2_Config                         0x080053d8   Section        0  tim.o(i.MX_TIM2_Config)
    i.MX_TIM2_Init                           0x0800543c   Section        0  tim.o(i.MX_TIM2_Init)
    i.MX_USB_DEVICE_Init                     0x08005510   Section        0  usb_device.o(i.MX_USB_DEVICE_Init)
    i.MemManage_Handler                      0x08005554   Section        0  stm32l4xx_it.o(i.MemManage_Handler)
    i.NMI_Handler                            0x08005556   Section        0  stm32l4xx_it.o(i.NMI_Handler)
    i.NVIC_SetPriority                       0x08005558   Section        0  stm32l4xx_hal_cortex.o(i.NVIC_SetPriority)
    NVIC_SetPriority                         0x08005559   Thumb Code    32  stm32l4xx_hal_cortex.o(i.NVIC_SetPriority)
    i.NVIC_SystemReset                       0x08005578   Section        0  main.o(i.NVIC_SystemReset)
    NVIC_SystemReset                         0x08005579   Thumb Code    26  main.o(i.NVIC_SystemReset)
    i.Node_Table_Init                        0x0800559c   Section        0  cyfisnp_flash_utility.o(i.Node_Table_Init)
    i.PCD_EP_ISR_Handler                     0x0800576c   Section        0  stm32l4xx_hal_pcd.o(i.PCD_EP_ISR_Handler)
    PCD_EP_ISR_Handler                       0x0800576d   Thumb Code   808  stm32l4xx_hal_pcd.o(i.PCD_EP_ISR_Handler)
    i.PROG_Pin_mode                          0x08005a9c   Section        0  gpio.o(i.PROG_Pin_mode)
    i.PendSV_Handler                         0x08005b14   Section        0  stm32l4xx_it.o(i.PendSV_Handler)
    i.PowerOnPacket_process                  0x08005b18   Section        0  myusbd_custom_hid_if.o(i.PowerOnPacket_process)
    PowerOnPacket_process                    0x08005b19   Thumb Code   222  myusbd_custom_hid_if.o(i.PowerOnPacket_process)
    i.QSPI_WaitFlagStateUntilTimeout         0x08005c04   Section        0  stm32l4xx_hal_qspi.o(i.QSPI_WaitFlagStateUntilTimeout)
    QSPI_WaitFlagStateUntilTimeout           0x08005c05   Thumb Code    72  stm32l4xx_hal_qspi.o(i.QSPI_WaitFlagStateUntilTimeout)
    i.RCCEx_PLLSAI1_Config                   0x08005c4c   Section        0  stm32l4xx_hal_rcc_ex.o(i.RCCEx_PLLSAI1_Config)
    RCCEx_PLLSAI1_Config                     0x08005c4d   Thumb Code   278  stm32l4xx_hal_rcc_ex.o(i.RCCEx_PLLSAI1_Config)
    i.RCC_SetFlashLatencyFromMSIRange        0x08005d78   Section        0  stm32l4xx_hal_rcc.o(i.RCC_SetFlashLatencyFromMSIRange)
    RCC_SetFlashLatencyFromMSIRange          0x08005d79   Thumb Code   116  stm32l4xx_hal_rcc.o(i.RCC_SetFlashLatencyFromMSIRange)
    i.RED_LED_Toggle                         0x08005df4   Section        0  tim.o(i.RED_LED_Toggle)
    i.RTC_Bcd2ToByte                         0x08005e1c   Section        0  stm32l4xx_hal_rtc.o(i.RTC_Bcd2ToByte)
    i.RTC_ByteToBcd2                         0x08005e2e   Section        0  stm32l4xx_hal_rtc.o(i.RTC_ByteToBcd2)
    i.RTC_EnterInitMode                      0x08005e44   Section        0  stm32l4xx_hal_rtc.o(i.RTC_EnterInitMode)
    i.ReStart_Process                        0x08005e80   Section        0  max14676.o(i.ReStart_Process)
    i.RfDataCheck                            0x08005ec0   Section        0  main.o(i.RfDataCheck)
    i.SPI_EndRxTxTransaction                 0x08005f10   Section        0  stm32l4xx_hal_spi.o(i.SPI_EndRxTxTransaction)
    SPI_EndRxTxTransaction                   0x08005f11   Thumb Code    72  stm32l4xx_hal_spi.o(i.SPI_EndRxTxTransaction)
    i.SPI_WaitFifoStateUntilTimeout          0x08005f58   Section        0  stm32l4xx_hal_spi.o(i.SPI_WaitFifoStateUntilTimeout)
    SPI_WaitFifoStateUntilTimeout            0x08005f59   Thumb Code   158  stm32l4xx_hal_spi.o(i.SPI_WaitFifoStateUntilTimeout)
    i.SPI_WaitFlagStateUntilTimeout          0x08005ff6   Section        0  stm32l4xx_hal_spi.o(i.SPI_WaitFlagStateUntilTimeout)
    SPI_WaitFlagStateUntilTimeout            0x08005ff7   Thumb Code   148  stm32l4xx_hal_spi.o(i.SPI_WaitFlagStateUntilTimeout)
    i.SVC_Handler                            0x0800608a   Section        0  stm32l4xx_it.o(i.SVC_Handler)
    i.SendToHost                             0x0800608c   Section        0  myusbd_custom_hid_if.o(i.SendToHost)
    i.SendToHostBLEForNodeInfo               0x080060e0   Section        0  myusbd_custom_hid_if.o(i.SendToHostBLEForNodeInfo)
    i.SendToHostBLEUpload                    0x08006124   Section        0  myusbd_custom_hid_if.o(i.SendToHostBLEUpload)
    i.SendToHostUSB                          0x08006160   Section        0  myusbd_custom_hid_if.o(i.SendToHostUSB)
    i.SysTick_Handler                        0x08006174   Section        0  stm32l4xx_it.o(i.SysTick_Handler)
    i.SystemClock_Config                     0x08006208   Section        0  main.o(i.SystemClock_Config)
    i.SystemInit                             0x080062d0   Section        0  system_stm32l4xx.o(i.SystemInit)
    i.TIM_Base_SetConfig                     0x08006314   Section        0  stm32l4xx_hal_tim.o(i.TIM_Base_SetConfig)
    i.TIM_CCxChannelCmd                      0x08006378   Section        0  stm32l4xx_hal_tim.o(i.TIM_CCxChannelCmd)
    i.TIM_ETR_SetConfig                      0x0800638e   Section        0  stm32l4xx_hal_tim.o(i.TIM_ETR_SetConfig)
    i.TIM_ITRx_SetConfig                     0x080063a2   Section        0  stm32l4xx_hal_tim.o(i.TIM_ITRx_SetConfig)
    TIM_ITRx_SetConfig                       0x080063a3   Thumb Code    16  stm32l4xx_hal_tim.o(i.TIM_ITRx_SetConfig)
    i.TIM_OC1_SetConfig                      0x080063b4   Section        0  stm32l4xx_hal_tim.o(i.TIM_OC1_SetConfig)
    TIM_OC1_SetConfig                        0x080063b5   Thumb Code   104  stm32l4xx_hal_tim.o(i.TIM_OC1_SetConfig)
    i.TIM_OC2_SetConfig                      0x0800642c   Section        0  stm32l4xx_hal_tim.o(i.TIM_OC2_SetConfig)
    i.TIM_OC3_SetConfig                      0x080064a4   Section        0  stm32l4xx_hal_tim.o(i.TIM_OC3_SetConfig)
    TIM_OC3_SetConfig                        0x080064a5   Thumb Code   100  stm32l4xx_hal_tim.o(i.TIM_OC3_SetConfig)
    i.TIM_OC4_SetConfig                      0x08006518   Section        0  stm32l4xx_hal_tim.o(i.TIM_OC4_SetConfig)
    TIM_OC4_SetConfig                        0x08006519   Thumb Code    80  stm32l4xx_hal_tim.o(i.TIM_OC4_SetConfig)
    i.TIM_OC5_SetConfig                      0x08006578   Section        0  stm32l4xx_hal_tim.o(i.TIM_OC5_SetConfig)
    TIM_OC5_SetConfig                        0x08006579   Thumb Code    74  stm32l4xx_hal_tim.o(i.TIM_OC5_SetConfig)
    i.TIM_OC6_SetConfig                      0x080065d4   Section        0  stm32l4xx_hal_tim.o(i.TIM_OC6_SetConfig)
    TIM_OC6_SetConfig                        0x080065d5   Thumb Code    76  stm32l4xx_hal_tim.o(i.TIM_OC6_SetConfig)
    i.TIM_TI1_ConfigInputStage               0x08006630   Section        0  stm32l4xx_hal_tim.o(i.TIM_TI1_ConfigInputStage)
    TIM_TI1_ConfigInputStage                 0x08006631   Thumb Code    34  stm32l4xx_hal_tim.o(i.TIM_TI1_ConfigInputStage)
    i.TIM_TI2_ConfigInputStage               0x08006652   Section        0  stm32l4xx_hal_tim.o(i.TIM_TI2_ConfigInputStage)
    TIM_TI2_ConfigInputStage                 0x08006653   Thumb Code    36  stm32l4xx_hal_tim.o(i.TIM_TI2_ConfigInputStage)
    i.Table_Program                          0x08006678   Section        0  cyfisnp_flash_utility.o(i.Table_Program)
    i.UART_AdvFeatureConfig                  0x0800679c   Section        0  stm32l4xx_hal_uart.o(i.UART_AdvFeatureConfig)
    i.UART_CheckIdleState                    0x08006864   Section        0  stm32l4xx_hal_uart.o(i.UART_CheckIdleState)
    i.UART_DMAAbortOnError                   0x080068c0   Section        0  stm32l4xx_hal_uart.o(i.UART_DMAAbortOnError)
    UART_DMAAbortOnError                     0x080068c1   Thumb Code    20  stm32l4xx_hal_uart.o(i.UART_DMAAbortOnError)
    i.UART_EndRxTransfer                     0x080068d4   Section        0  stm32l4xx_hal_uart.o(i.UART_EndRxTransfer)
    UART_EndRxTransfer                       0x080068d5   Thumb Code    28  stm32l4xx_hal_uart.o(i.UART_EndRxTransfer)
    i.UART_Receive_IT                        0x080068f0   Section        0  stm32l4xx_hal_uart.o(i.UART_Receive_IT)
    UART_Receive_IT                          0x080068f1   Thumb Code   118  stm32l4xx_hal_uart.o(i.UART_Receive_IT)
    i.UART_Send                              0x08006968   Section        0  usart.o(i.UART_Send)
    i.UART_SendForNodeInfo                   0x08006998   Section        0  usart.o(i.UART_SendForNodeInfo)
    i.UART_SendUpload                        0x080069cc   Section        0  usart.o(i.UART_SendUpload)
    i.UART_SetConfig                         0x08006a00   Section        0  stm32l4xx_hal_uart.o(i.UART_SetConfig)
    i.UART_WaitOnFlagUntilTimeout            0x08006c50   Section        0  stm32l4xx_hal_uart.o(i.UART_WaitOnFlagUntilTimeout)
    i.USBD_CUSTOM_HID_DataIn                 0x08006cb4   Section        0  myusbd_customhid.o(i.USBD_CUSTOM_HID_DataIn)
    USBD_CUSTOM_HID_DataIn                   0x08006cb5   Thumb Code    14  myusbd_customhid.o(i.USBD_CUSTOM_HID_DataIn)
    i.USBD_CUSTOM_HID_DataOut                0x08006cc2   Section        0  myusbd_customhid.o(i.USBD_CUSTOM_HID_DataOut)
    USBD_CUSTOM_HID_DataOut                  0x08006cc3   Thumb Code    32  myusbd_customhid.o(i.USBD_CUSTOM_HID_DataOut)
    i.USBD_CUSTOM_HID_DeInit                 0x08006ce2   Section        0  myusbd_customhid.o(i.USBD_CUSTOM_HID_DeInit)
    USBD_CUSTOM_HID_DeInit                   0x08006ce3   Thumb Code    50  myusbd_customhid.o(i.USBD_CUSTOM_HID_DeInit)
    i.USBD_CUSTOM_HID_EP0_RxReady            0x08006d14   Section        0  myusbd_customhid.o(i.USBD_CUSTOM_HID_EP0_RxReady)
    USBD_CUSTOM_HID_EP0_RxReady              0x08006d15   Thumb Code    32  myusbd_customhid.o(i.USBD_CUSTOM_HID_EP0_RxReady)
    i.USBD_CUSTOM_HID_GetCfgDesc             0x08006d34   Section        0  myusbd_customhid.o(i.USBD_CUSTOM_HID_GetCfgDesc)
    USBD_CUSTOM_HID_GetCfgDesc               0x08006d35   Thumb Code     8  myusbd_customhid.o(i.USBD_CUSTOM_HID_GetCfgDesc)
    i.USBD_CUSTOM_HID_GetDeviceQualifierDesc 0x08006d40   Section        0  myusbd_customhid.o(i.USBD_CUSTOM_HID_GetDeviceQualifierDesc)
    USBD_CUSTOM_HID_GetDeviceQualifierDesc   0x08006d41   Thumb Code     8  myusbd_customhid.o(i.USBD_CUSTOM_HID_GetDeviceQualifierDesc)
    i.USBD_CUSTOM_HID_Init                   0x08006d4c   Section        0  myusbd_customhid.o(i.USBD_CUSTOM_HID_Init)
    USBD_CUSTOM_HID_Init                     0x08006d4d   Thumb Code    76  myusbd_customhid.o(i.USBD_CUSTOM_HID_Init)
    i.USBD_CUSTOM_HID_RegisterInterface      0x08006d98   Section        0  myusbd_customhid.o(i.USBD_CUSTOM_HID_RegisterInterface)
    i.USBD_CUSTOM_HID_SendReport             0x08006da8   Section        0  myusbd_customhid.o(i.USBD_CUSTOM_HID_SendReport)
    i.USBD_CUSTOM_HID_Setup                  0x08006de8   Section        0  myusbd_customhid.o(i.USBD_CUSTOM_HID_Setup)
    USBD_CUSTOM_HID_Setup                    0x08006de9   Thumb Code   180  myusbd_customhid.o(i.USBD_CUSTOM_HID_Setup)
    i.USBD_ClrClassConfig                    0x08006ea0   Section        0  usbd_core.o(i.USBD_ClrClassConfig)
    i.USBD_CtlContinueRx                     0x08006eae   Section        0  usbd_ioreq.o(i.USBD_CtlContinueRx)
    i.USBD_CtlContinueSendData               0x08006ebe   Section        0  usbd_ioreq.o(i.USBD_CtlContinueSendData)
    i.USBD_CtlError                          0x08006ece   Section        0  usbd_ctlreq.o(i.USBD_CtlError)
    i.USBD_CtlPrepareRx                      0x08006ee4   Section        0  usbd_ioreq.o(i.USBD_CtlPrepareRx)
    i.USBD_CtlReceiveStatus                  0x08006f02   Section        0  usbd_ioreq.o(i.USBD_CtlReceiveStatus)
    i.USBD_CtlSendData                       0x08006f18   Section        0  usbd_ioreq.o(i.USBD_CtlSendData)
    i.USBD_CtlSendStatus                     0x08006f32   Section        0  usbd_ioreq.o(i.USBD_CtlSendStatus)
    i.USBD_FS_ConfigStrDescriptor            0x08006f48   Section        0  myusbd_desc.o(i.USBD_FS_ConfigStrDescriptor)
    i.USBD_FS_DeviceDescriptor               0x08006f70   Section        0  myusbd_desc.o(i.USBD_FS_DeviceDescriptor)
    i.USBD_FS_InterfaceStrDescriptor         0x08006f7c   Section        0  myusbd_desc.o(i.USBD_FS_InterfaceStrDescriptor)
    i.USBD_FS_LangIDStrDescriptor            0x08006fa8   Section        0  myusbd_desc.o(i.USBD_FS_LangIDStrDescriptor)
    i.USBD_FS_ManufacturerStrDescriptor      0x08006fb4   Section        0  myusbd_desc.o(i.USBD_FS_ManufacturerStrDescriptor)
    i.USBD_FS_ProductStrDescriptor           0x08006fd8   Section        0  myusbd_desc.o(i.USBD_FS_ProductStrDescriptor)
    i.USBD_FS_SerialStrDescriptor            0x08006ff8   Section        0  myusbd_desc.o(i.USBD_FS_SerialStrDescriptor)
    i.USBD_FS_USR_BOSDescriptor              0x08007010   Section        0  myusbd_desc.o(i.USBD_FS_USR_BOSDescriptor)
    i.USBD_GetDescriptor                     0x0800701c   Section        0  usbd_ctlreq.o(i.USBD_GetDescriptor)
    USBD_GetDescriptor                       0x0800701d   Thumb Code   264  usbd_ctlreq.o(i.USBD_GetDescriptor)
    i.USBD_GetString                         0x08007124   Section        0  usbd_ctlreq.o(i.USBD_GetString)
    i.USBD_Init                              0x0800716a   Section        0  usbd_core.o(i.USBD_Init)
    i.USBD_LL_BatteryCharging                0x08007194   Section        0  usbd_conf.o(i.USBD_LL_BatteryCharging)
    i.USBD_LL_ClearStallEP                   0x080071a6   Section        0  usbd_conf.o(i.USBD_LL_ClearStallEP)
    i.USBD_LL_CloseEP                        0x080071c6   Section        0  usbd_conf.o(i.USBD_LL_CloseEP)
    i.USBD_LL_DataInStage                    0x080071e6   Section        0  usbd_core.o(i.USBD_LL_DataInStage)
    i.USBD_LL_DataOutStage                   0x08007290   Section        0  usbd_core.o(i.USBD_LL_DataOutStage)
    i.USBD_LL_Init                           0x080072fc   Section        0  usbd_conf.o(i.USBD_LL_Init)
    i.USBD_LL_IsStallEP                      0x08007390   Section        0  usbd_conf.o(i.USBD_LL_IsStallEP)
    i.USBD_LL_OpenEP                         0x080073ac   Section        0  usbd_conf.o(i.USBD_LL_OpenEP)
    i.USBD_LL_PrepareReceive                 0x080073d2   Section        0  usbd_conf.o(i.USBD_LL_PrepareReceive)
    i.USBD_LL_Reset                          0x080073f2   Section        0  usbd_core.o(i.USBD_LL_Reset)
    i.USBD_LL_Resume                         0x08007430   Section        0  usbd_core.o(i.USBD_LL_Resume)
    i.USBD_LL_SOF                            0x0800743c   Section        0  usbd_core.o(i.USBD_LL_SOF)
    i.USBD_LL_SetSpeed                       0x08007454   Section        0  usbd_core.o(i.USBD_LL_SetSpeed)
    i.USBD_LL_SetUSBAddress                  0x0800745a   Section        0  usbd_conf.o(i.USBD_LL_SetUSBAddress)
    i.USBD_LL_SetupStage                     0x0800747a   Section        0  usbd_core.o(i.USBD_LL_SetupStage)
    i.USBD_LL_StallEP                        0x080074d4   Section        0  usbd_conf.o(i.USBD_LL_StallEP)
    i.USBD_LL_Start                          0x080074f4   Section        0  usbd_conf.o(i.USBD_LL_Start)
    i.USBD_LL_Suspend                        0x08007514   Section        0  usbd_core.o(i.USBD_LL_Suspend)
    i.USBD_LL_Transmit                       0x08007526   Section        0  usbd_conf.o(i.USBD_LL_Transmit)
    i.USBD_ParseSetupRequest                 0x08007546   Section        0  usbd_ctlreq.o(i.USBD_ParseSetupRequest)
    i.USBD_RegisterClass                     0x0800756e   Section        0  usbd_core.o(i.USBD_RegisterClass)
    i.USBD_SetClassConfig                    0x0800757e   Section        0  usbd_core.o(i.USBD_SetClassConfig)
    i.USBD_SetConfig                         0x08007594   Section        0  usbd_ctlreq.o(i.USBD_SetConfig)
    USBD_SetConfig                           0x08007595   Thumb Code   110  usbd_ctlreq.o(i.USBD_SetConfig)
    i.USBD_Start                             0x08007608   Section        0  usbd_core.o(i.USBD_Start)
    i.USBD_StdDevReq                         0x08007612   Section        0  usbd_ctlreq.o(i.USBD_StdDevReq)
    i.USBD_StdEPReq                          0x08007704   Section        0  usbd_ctlreq.o(i.USBD_StdEPReq)
    i.USBD_StdItfReq                         0x080077e0   Section        0  usbd_ctlreq.o(i.USBD_StdItfReq)
    i.USBD_static_free                       0x08007814   Section        0  usbd_conf.o(i.USBD_static_free)
    i.USBD_static_malloc                     0x08007818   Section        0  usbd_conf.o(i.USBD_static_malloc)
    i.USB_ActivateEndpoint                   0x08007820   Section        0  stm32l4xx_ll_usb.o(i.USB_ActivateEndpoint)
    i.USB_CoreInit                           0x08007a6c   Section        0  stm32l4xx_ll_usb.o(i.USB_CoreInit)
    i.USB_DeactivateEndpoint                 0x08007a70   Section        0  stm32l4xx_ll_usb.o(i.USB_DeactivateEndpoint)
    i.USB_DevConnect                         0x08007b94   Section        0  stm32l4xx_ll_usb.o(i.USB_DevConnect)
    i.USB_DevDisconnect                      0x08007ba8   Section        0  stm32l4xx_ll_usb.o(i.USB_DevDisconnect)
    i.USB_DevInit                            0x08007bbc   Section        0  stm32l4xx_ll_usb.o(i.USB_DevInit)
    i.USB_DisableGlobalInt                   0x08007bce   Section        0  stm32l4xx_ll_usb.o(i.USB_DisableGlobalInt)
    i.USB_EP0_OutStart                       0x08007bdc   Section        0  stm32l4xx_ll_usb.o(i.USB_EP0_OutStart)
    i.USB_EPClearStall                       0x08007be0   Section        0  stm32l4xx_ll_usb.o(i.USB_EPClearStall)
    i.USB_EPSetStall                         0x08007c4a   Section        0  stm32l4xx_ll_usb.o(i.USB_EPSetStall)
    i.USB_EPStartXfer                        0x08007c94   Section        0  stm32l4xx_ll_usb.o(i.USB_EPStartXfer)
    i.USB_EnableGlobalInt                    0x08007db8   Section        0  stm32l4xx_ll_usb.o(i.USB_EnableGlobalInt)
    i.USB_IRQHandler                         0x08007dc8   Section        0  stm32l4xx_it.o(i.USB_IRQHandler)
    i.USB_ReadInterrupts                     0x08007dd4   Section        0  stm32l4xx_ll_usb.o(i.USB_ReadInterrupts)
    i.USB_ReadPMA                            0x08007dda   Section        0  stm32l4xx_ll_usb.o(i.USB_ReadPMA)
    i.USB_SetCurrentMode                     0x08007df4   Section        0  stm32l4xx_ll_usb.o(i.USB_SetCurrentMode)
    i.USB_SetDevAddress                      0x08007df8   Section        0  stm32l4xx_ll_usb.o(i.USB_SetDevAddress)
    i.USB_WritePMA                           0x08007e04   Section        0  stm32l4xx_ll_usb.o(i.USB_WritePMA)
    i.UsageFault_Handler                     0x08007e2a   Section        0  stm32l4xx_it.o(i.UsageFault_Handler)
    i._Error_Handler                         0x08007e2c   Section        0  main.o(i._Error_Handler)
    i.__scatterload_copy                     0x08007e2e   Section       14  handlers.o(i.__scatterload_copy)
    i.__scatterload_null                     0x08007e3c   Section        2  handlers.o(i.__scatterload_null)
    i.__scatterload_zeroinit                 0x08007e3e   Section       14  handlers.o(i.__scatterload_zeroinit)
    i.bcdSendPacket                          0x08007e4c   Section        0  cyfisnp_protocol.o(i.bcdSendPacket)
    bcdSendPacket                            0x08007e4d   Thumb Code   174  cyfisnp_protocol.o(i.bcdSendPacket)
    i.bcdServeWall                           0x08007f10   Section        0  cyfisnp_protocol.o(i.bcdServeWall)
    bcdServeWall                             0x08007f11   Thumb Code    90  cyfisnp_protocol.o(i.bcdServeWall)
    i.bindAllow                              0x08007f74   Section        0  cyfisnp_protocol.o(i.bindAllow)
    bindAllow                                0x08007f75   Thumb Code   118  cyfisnp_protocol.o(i.bindAllow)
    i.chkSeqBit                              0x08007ff0   Section        0  cyfisnp_isr.o(i.chkSeqBit)
    i.forceState                             0x08008060   Section        0  cyfi_radio.o(i.forceState)
    forceState                               0x08008061   Thumb Code    56  cyfi_radio.o(i.forceState)
    i.goTodataMode                           0x0800809c   Section        0  cyfisnp_protocol.o(i.goTodataMode)
    goTodataMode                             0x0800809d   Thumb Code    42  cyfisnp_protocol.o(i.goTodataMode)
    i.gotoPingMode                           0x080080d0   Section        0  cyfisnp_protocol.o(i.gotoPingMode)
    gotoPingMode                             0x080080d1   Thumb Code    26  cyfisnp_protocol.o(i.gotoPingMode)
    i.main                                   0x080080f0   Section        0  main.o(i.main)
    i.max14676_GetVer                        0x0800847c   Section        0  max14676.o(i.max14676_GetVer)
    i.max14676_Read                          0x080084a0   Section        0  max14676.o(i.max14676_Read)
    i.max14676_ReadReg                       0x080084d8   Section        0  max14676.o(i.max14676_ReadReg)
    i.max14676_WriteReg                      0x0800851c   Section        0  max14676.o(i.max14676_WriteReg)
    i.max14676_init                          0x08008540   Section        0  max14676.o(i.max14676_init)
    i.max14676_poweroff                      0x080085dc   Section        0  max14676.o(i.max14676_poweroff)
    i.myDevNvramWrite                        0x080085f4   Section        0  cyfisnp_protocol.o(i.myDevNvramWrite)
    myDevNvramWrite                          0x080085f5   Thumb Code   104  cyfisnp_protocol.o(i.myDevNvramWrite)
    i.myNetNvramWrite                        0x08008664   Section        0  cyfisnp_protocol.o(i.myNetNvramWrite)
    myNetNvramWrite                          0x08008665   Thumb Code   108  cyfisnp_protocol.o(i.myNetNvramWrite)
    i.nextChan                               0x080086d8   Section        0  cyfisnp_protocol.o(i.nextChan)
    nextChan                                 0x080086d9   Thumb Code    46  cyfisnp_protocol.o(i.nextChan)
    i.phySynth                               0x0800870c   Section        0  cyfisnp_protocol.o(i.phySynth)
    phySynth                                 0x0800870d   Thumb Code    90  cyfisnp_protocol.o(i.phySynth)
    i.pingNextChan                           0x0800876c   Section        0  cyfisnp_protocol.o(i.pingNextChan)
    pingNextChan                             0x0800876d   Thumb Code    74  cyfisnp_protocol.o(i.pingNextChan)
    i.pingRun                                0x080087bc   Section        0  cyfisnp_protocol.o(i.pingRun)
    pingRun                                  0x080087bd   Thumb Code   100  cyfisnp_protocol.o(i.pingRun)
    i.postAndRxGo                            0x0800882c   Section        0  cyfisnp_isr.o(i.postAndRxGo)
    i.purgeRxdata                            0x08008884   Section        0  cyfisnp_protocol.o(i.purgeRxdata)
    purgeRxdata                              0x08008885   Thumb Code    14  cyfisnp_protocol.o(i.purgeRxdata)
    i.putBcdPacket                           0x08008892   Section        0  myusbd_custom_hid_if.o(i.putBcdPacket)
    i.sendRspViaIsrBuf                       0x080088b4   Section        0  cyfisnp_isr.o(i.sendRspViaIsrBuf)
    i.serveRfPkt                             0x08008900   Section        0  main.o(i.serveRfPkt)
    i.setBindChannel                         0x0800898c   Section        0  cyfisnp_protocol.o(i.setBindChannel)
    setBindChannel                           0x0800898d   Thumb Code    40  cyfisnp_protocol.o(i.setBindChannel)
    i.setNetParams                           0x080089bc   Section        0  cyfisnp_protocol.o(i.setNetParams)
    setNetParams                             0x080089bd   Thumb Code    82  cyfisnp_protocol.o(i.setNetParams)
    i.wakeupRadio                            0x08008a18   Section        0  cyfi_radio.o(i.wakeupRadio)
    wakeupRadio                              0x08008a19   Thumb Code    34  cyfi_radio.o(i.wakeupRadio)
    i.writeHwPa                              0x08008a40   Section        0  cyfisnp_protocol.o(i.writeHwPa)
    writeHwPa                                0x08008a41   Thumb Code   118  cyfisnp_protocol.o(i.writeHwPa)
    .constdata                               0x08008abc   Section       17  main.o(.constdata)
    .constdata                               0x08008ad0   Section       64  system_stm32l4xx.o(.constdata)
    .constdata                               0x08008b10   Section        8  system_stm32l4xx.o(.constdata)
    .constdata                               0x08008b18   Section       80  cyfi_radio.o(.constdata)
    PnCode                                   0x08008b18   Data          80  cyfi_radio.o(.constdata)
    .constdata                               0x08008b68   Section        6  cyfisnp_protocol.o(.constdata)
    .ARM.__AT_0x0800F800                     0x0800f800   Section     2048  cyfisnp_eeprom.o(.ARM.__AT_0x0800F800)
    .ARM.__AT_0x08010000                     0x08010000   Section     2048  cyfisnp_flash_utility.o(.ARM.__AT_0x08010000)
    .ARM.__AT_0x08010800                     0x08010800   Section     2048  cyfisnp_flash_utility.o(.ARM.__AT_0x08010800)
    .data                                    0x20000000   Section       40  main.o(.data)
    .data                                    0x20000028   Section        3  tim.o(.data)
    toggle                                   0x20000028   Data           1  tim.o(.data)
    toggle                                   0x20000029   Data           1  tim.o(.data)
    toggle                                   0x2000002a   Data           1  tim.o(.data)
    .data                                    0x2000002b   Section        1  stm32l4xx_it.o(.data)
    myCallback                               0x2000002b   Data           1  stm32l4xx_it.o(.data)
    .data                                    0x2000002c   Section       40  myusbd_custom_hid_if.o(.data)
    CUSTOM_HID_ReportDesc_FS                 0x2000002c   Data          40  myusbd_custom_hid_if.o(.data)
    .data                                    0x20000054   Section       16  myusbd_custom_hid_if.o(.data)
    .data                                    0x20000064   Section       12  myusbd_custom_hid_if.o(.data)
    userConfig                               0x20000064   Data           4  myusbd_custom_hid_if.o(.data)
    rdpLevel                                 0x20000068   Data           4  myusbd_custom_hid_if.o(.data)
    optionType                               0x2000006c   Data           4  myusbd_custom_hid_if.o(.data)
    .data                                    0x20000070   Section       32  myusbd_desc.o(.data)
    .data                                    0x20000090   Section       36  myusbd_desc.o(.data)
    .data                                    0x200000b4   Section        1  usbd_ctlreq.o(.data)
    cfgidx                                   0x200000b4   Data           1  usbd_ctlreq.o(.data)
    .data                                    0x200000b8   Section        4  system_stm32l4xx.o(.data)
    .data                                    0x200000bc   Section        4  stm32l4xx_hal.o(.data)
    .data                                    0x200000c0   Section        8  cyfi_hal.o(.data)
    .data                                    0x200000c8   Section        5  cyfi_radio.o(.data)
    fine_tun_d1                              0x200000c8   Data           1  cyfi_radio.o(.data)
    packetLen                                0x200000cb   Data           1  cyfi_radio.o(.data)
    .data                                    0x200000ce   Section       18  cyfisnp_isr.o(.data)
    CRC_Error_count                          0x200000de   Data           2  cyfisnp_isr.o(.data)
    .data                                    0x200000e0   Section       32  cyfisnp_protocol.o(.data)
    testId                                   0x200000e0   Data           1  cyfisnp_protocol.o(.data)
    nextDevId                                0x200000e5   Data           1  cyfisnp_protocol.o(.data)
    pingRssiThreshold                        0x200000e8   Data           1  cyfisnp_protocol.o(.data)
    pingTxPkt                                0x200000e9   Data           1  cyfisnp_protocol.o(.data)
    bindChIdx                                0x200000ea   Data           1  cyfisnp_protocol.o(.data)
    bindChCount                              0x200000ec   Data           1  cyfisnp_protocol.o(.data)
    apiHasBindResult                         0x200000ed   Data           1  cyfisnp_protocol.o(.data)
    rssiSampleTimer                          0x200000ee   Data           2  cyfisnp_protocol.o(.data)
    .data                                    0x20000100   Section        4  cyfisnp_timer.o(.data)
    .data                                    0x20000108   Section       64  cyfisnp_flash_utility.o(.data)
    .data                                    0x20000148   Section       60  myusbd_customhid.o(.data)
    .data                                    0x20000184   Section       66  myusbd_customhid.o(.data)
    USBD_CUSTOM_HID_CfgDesc                  0x20000184   Data          41  myusbd_customhid.o(.data)
    USBD_CUSTOM_HID_Desc                     0x200001b0   Data           9  myusbd_customhid.o(.data)
    USBD_CUSTOM_HID_DeviceQualifierDesc      0x200001bc   Data          10  myusbd_customhid.o(.data)
    .data                                    0x200001c6   Section       10  max14676.o(.data)
    .data                                    0x200001d0   Section        4  max14676.o(.data)
    .bss                                     0x200001d4   Section       36  rtc.o(.bss)
    .bss                                     0x200001f8   Section      548  usb_device.o(.bss)
    .bss                                     0x2000041c   Section     1164  usbd_conf.o(.bss)
    mem                                      0x2000041c   Data          88  usbd_conf.o(.bss)
    .bss                                     0x200008a8   Section      100  spi.o(.bss)
    .bss                                     0x2000090c   Section       76  i2c.o(.bss)
    .bss                                     0x20000958   Section       56  lptim.o(.bss)
    .bss                                     0x20000990   Section       64  main.o(.bss)
    .bss                                     0x200009d0   Section     2451  main.o(.bss)
    .bss                                     0x20001364   Section       76  quadspi.o(.bss)
    .bss                                     0x200013b0   Section       60  tim.o(.bss)
    .bss                                     0x200013ec   Section      240  usart.o(.bss)
    .bss                                     0x200014dc   Section       16  iwdg.o(.bss)
    .bss                                     0x200014ec   Section      104  myusbd_custom_hid_if.o(.bss)
    mPOBInit                                 0x2000152c   Data          40  myusbd_custom_hid_if.o(.bss)
    .bss                                     0x20001554   Section      512  myusbd_desc.o(.bss)
    .bss                                     0x20001754   Section       32  stm32l4xx_hal_flash.o(.bss)
    .bss                                     0x20001774   Section       67  cyfisnp_isr.o(.bss)
    .bss                                     0x200017b7   Section     1365  cyfisnp_protocol.o(.bss)
    writeBuf                                 0x200019cc   Data         832  cyfisnp_protocol.o(.bss)
    .bss                                     0x20001d0c   Section     4112  cyfisnp_flash_utility.o(.bss)
    EraseInitStruct                          0x20002d0c   Data          16  cyfisnp_flash_utility.o(.bss)
    STACK                                    0x20002d20   Section     1024  startup_stm32l433xx.o(STACK)

    Global Symbols

    Symbol Name                              Value     Ov Type        Size  Object(Section)

    BuildAttributes$$THM_ISAv4$E$P$D$K$B$S$7EM$VFPi3$EXTD16$VFPS$VFMA$PE$A:L22UL41UL21$X:L11$S22US41US21$IEEE1$IW$USESV6$~STKCKD$USESV7$~SHL$OSPACE$EBA8$MICROLIB$REQ8$PRES8$EABIv2 0x00000000   Number         0  anon$$obj.o ABSOLUTE
    __ARM_use_no_argv                        0x00000000   Number         0  main.o ABSOLUTE
    __cpp_initialize__aeabi_                  - Undefined Weak Reference
    __cxa_finalize                            - Undefined Weak Reference
    _clock_init                               - Undefined Weak Reference
    _microlib_exit                            - Undefined Weak Reference
    __Vectors_Size                           0x0000018c   Number         0  startup_stm32l433xx.o ABSOLUTE
    __Vectors                                0x08000000   Data           4  startup_stm32l433xx.o(RESET)
    __Vectors_End                            0x0800018c   Data           0  startup_stm32l433xx.o(RESET)
    __main                                   0x0800018d   Thumb Code     0  entry.o(.ARM.Collect$$$$00000000)
    _main_stk                                0x0800018d   Thumb Code     0  entry2.o(.ARM.Collect$$$$00000001)
    _main_scatterload                        0x08000191   Thumb Code     0  entry5.o(.ARM.Collect$$$$00000004)
    __main_after_scatterload                 0x08000195   Thumb Code     0  entry5.o(.ARM.Collect$$$$00000004)
    _main_clock                              0x08000195   Thumb Code     0  entry7b.o(.ARM.Collect$$$$00000008)
    _main_cpp_init                           0x08000195   Thumb Code     0  entry8b.o(.ARM.Collect$$$$0000000A)
    _main_init                               0x08000195   Thumb Code     0  entry9a.o(.ARM.Collect$$$$0000000B)
    __rt_final_cpp                           0x0800019d   Thumb Code     0  entry10a.o(.ARM.Collect$$$$0000000D)
    __rt_final_exit                          0x0800019d   Thumb Code     0  entry11a.o(.ARM.Collect$$$$0000000F)
    Reset_Handler                            0x080001a1   Thumb Code     8  startup_stm32l433xx.o(.text)
    ADC1_IRQHandler                          0x080001bb   Thumb Code     0  startup_stm32l433xx.o(.text)
    CAN1_RX0_IRQHandler                      0x080001bb   Thumb Code     0  startup_stm32l433xx.o(.text)
    CAN1_RX1_IRQHandler                      0x080001bb   Thumb Code     0  startup_stm32l433xx.o(.text)
    CAN1_SCE_IRQHandler                      0x080001bb   Thumb Code     0  startup_stm32l433xx.o(.text)
    CAN1_TX_IRQHandler                       0x080001bb   Thumb Code     0  startup_stm32l433xx.o(.text)
    COMP_IRQHandler                          0x080001bb   Thumb Code     0  startup_stm32l433xx.o(.text)
    CRS_IRQHandler                           0x080001bb   Thumb Code     0  startup_stm32l433xx.o(.text)
    DMA1_Channel1_IRQHandler                 0x080001bb   Thumb Code     0  startup_stm32l433xx.o(.text)
    DMA1_Channel2_IRQHandler                 0x080001bb   Thumb Code     0  startup_stm32l433xx.o(.text)
    DMA1_Channel3_IRQHandler                 0x080001bb   Thumb Code     0  startup_stm32l433xx.o(.text)
    DMA1_Channel4_IRQHandler                 0x080001bb   Thumb Code     0  startup_stm32l433xx.o(.text)
    DMA1_Channel5_IRQHandler                 0x080001bb   Thumb Code     0  startup_stm32l433xx.o(.text)
    DMA1_Channel6_IRQHandler                 0x080001bb   Thumb Code     0  startup_stm32l433xx.o(.text)
    DMA1_Channel7_IRQHandler                 0x080001bb   Thumb Code     0  startup_stm32l433xx.o(.text)
    DMA2_Channel1_IRQHandler                 0x080001bb   Thumb Code     0  startup_stm32l433xx.o(.text)
    DMA2_Channel2_IRQHandler                 0x080001bb   Thumb Code     0  startup_stm32l433xx.o(.text)
    DMA2_Channel3_IRQHandler                 0x080001bb   Thumb Code     0  startup_stm32l433xx.o(.text)
    DMA2_Channel4_IRQHandler                 0x080001bb   Thumb Code     0  startup_stm32l433xx.o(.text)
    DMA2_Channel5_IRQHandler                 0x080001bb   Thumb Code     0  startup_stm32l433xx.o(.text)
    DMA2_Channel6_IRQHandler                 0x080001bb   Thumb Code     0  startup_stm32l433xx.o(.text)
    DMA2_Channel7_IRQHandler                 0x080001bb   Thumb Code     0  startup_stm32l433xx.o(.text)
    EXTI1_IRQHandler                         0x080001bb   Thumb Code     0  startup_stm32l433xx.o(.text)
    EXTI2_IRQHandler                         0x080001bb   Thumb Code     0  startup_stm32l433xx.o(.text)
    EXTI4_IRQHandler                         0x080001bb   Thumb Code     0  startup_stm32l433xx.o(.text)
    FLASH_IRQHandler                         0x080001bb   Thumb Code     0  startup_stm32l433xx.o(.text)
    FPU_IRQHandler                           0x080001bb   Thumb Code     0  startup_stm32l433xx.o(.text)
    I2C1_ER_IRQHandler                       0x080001bb   Thumb Code     0  startup_stm32l433xx.o(.text)
    I2C1_EV_IRQHandler                       0x080001bb   Thumb Code     0  startup_stm32l433xx.o(.text)
    I2C2_ER_IRQHandler                       0x080001bb   Thumb Code     0  startup_stm32l433xx.o(.text)
    I2C2_EV_IRQHandler                       0x080001bb   Thumb Code     0  startup_stm32l433xx.o(.text)
    I2C3_ER_IRQHandler                       0x080001bb   Thumb Code     0  startup_stm32l433xx.o(.text)
    I2C3_EV_IRQHandler                       0x080001bb   Thumb Code     0  startup_stm32l433xx.o(.text)
    LCD_IRQHandler                           0x080001bb   Thumb Code     0  startup_stm32l433xx.o(.text)
    LPTIM1_IRQHandler                        0x080001bb   Thumb Code     0  startup_stm32l433xx.o(.text)
    LPTIM2_IRQHandler                        0x080001bb   Thumb Code     0  startup_stm32l433xx.o(.text)
    PVD_PVM_IRQHandler                       0x080001bb   Thumb Code     0  startup_stm32l433xx.o(.text)
    QUADSPI_IRQHandler                       0x080001bb   Thumb Code     0  startup_stm32l433xx.o(.text)
    RCC_IRQHandler                           0x080001bb   Thumb Code     0  startup_stm32l433xx.o(.text)
    RNG_IRQHandler                           0x080001bb   Thumb Code     0  startup_stm32l433xx.o(.text)
    RTC_Alarm_IRQHandler                     0x080001bb   Thumb Code     0  startup_stm32l433xx.o(.text)
    RTC_WKUP_IRQHandler                      0x080001bb   Thumb Code     0  startup_stm32l433xx.o(.text)
    SAI1_IRQHandler                          0x080001bb   Thumb Code     0  startup_stm32l433xx.o(.text)
    SDMMC1_IRQHandler                        0x080001bb   Thumb Code     0  startup_stm32l433xx.o(.text)
    SPI1_IRQHandler                          0x080001bb   Thumb Code     0  startup_stm32l433xx.o(.text)
    SPI2_IRQHandler                          0x080001bb   Thumb Code     0  startup_stm32l433xx.o(.text)
    SPI3_IRQHandler                          0x080001bb   Thumb Code     0  startup_stm32l433xx.o(.text)
    SWPMI1_IRQHandler                        0x080001bb   Thumb Code     0  startup_stm32l433xx.o(.text)
    TAMP_STAMP_IRQHandler                    0x080001bb   Thumb Code     0  startup_stm32l433xx.o(.text)
    TIM1_BRK_TIM15_IRQHandler                0x080001bb   Thumb Code     0  startup_stm32l433xx.o(.text)
    TIM1_CC_IRQHandler                       0x080001bb   Thumb Code     0  startup_stm32l433xx.o(.text)
    TIM1_TRG_COM_IRQHandler                  0x080001bb   Thumb Code     0  startup_stm32l433xx.o(.text)
    TIM1_UP_TIM16_IRQHandler                 0x080001bb   Thumb Code     0  startup_stm32l433xx.o(.text)
    TIM2_IRQHandler                          0x080001bb   Thumb Code     0  startup_stm32l433xx.o(.text)
    TIM6_DAC_IRQHandler                      0x080001bb   Thumb Code     0  startup_stm32l433xx.o(.text)
    TIM7_IRQHandler                          0x080001bb   Thumb Code     0  startup_stm32l433xx.o(.text)
    TSC_IRQHandler                           0x080001bb   Thumb Code     0  startup_stm32l433xx.o(.text)
    USART1_IRQHandler                        0x080001bb   Thumb Code     0  startup_stm32l433xx.o(.text)
    USART2_IRQHandler                        0x080001bb   Thumb Code     0  startup_stm32l433xx.o(.text)
    USART3_IRQHandler                        0x080001bb   Thumb Code     0  startup_stm32l433xx.o(.text)
    WWDG_IRQHandler                          0x080001bb   Thumb Code     0  startup_stm32l433xx.o(.text)
    __aeabi_uldivmod                         0x080001c5   Thumb Code    98  uldiv.o(.text)
    __aeabi_memcpy                           0x0800022d   Thumb Code    36  memcpya.o(.text)
    __aeabi_memcpy4                          0x0800022d   Thumb Code     0  memcpya.o(.text)
    __aeabi_memcpy8                          0x0800022d   Thumb Code     0  memcpya.o(.text)
    __aeabi_memset                           0x08000251   Thumb Code    14  memseta.o(.text)
    __aeabi_memset4                          0x08000251   Thumb Code     0  memseta.o(.text)
    __aeabi_memset8                          0x08000251   Thumb Code     0  memseta.o(.text)
    __aeabi_memclr                           0x0800025f   Thumb Code     4  memseta.o(.text)
    __aeabi_memclr4                          0x0800025f   Thumb Code     0  memseta.o(.text)
    __aeabi_memclr8                          0x0800025f   Thumb Code     0  memseta.o(.text)
    _memset$wrapper                          0x08000263   Thumb Code    18  memseta.o(.text)
    memcmp                                   0x08000275   Thumb Code    26  memcmp.o(.text)
    __aeabi_llsl                             0x0800028f   Thumb Code    30  llshl.o(.text)
    _ll_shift_l                              0x0800028f   Thumb Code     0  llshl.o(.text)
    __aeabi_llsr                             0x080002ad   Thumb Code    32  llushr.o(.text)
    _ll_ushift_r                             0x080002ad   Thumb Code     0  llushr.o(.text)
    __scatterload                            0x080002cd   Thumb Code    28  init.o(.text)
    __scatterload_rt2                        0x080002cd   Thumb Code     0  init.o(.text)
    __decompress                             0x080002f1   Thumb Code     0  __dczerorl2.o(.text)
    __decompress1                            0x080002f1   Thumb Code    86  __dczerorl2.o(.text)
    BCD_Cmd_Process                          0x08000349   Thumb Code   758  myusbd_custom_hid_if.o(i.BCD_Cmd_Process)
    BUZZ_Off                                 0x08000681   Thumb Code     6  lptim.o(i.BUZZ_Off)
    BUZZ_On                                  0x0800068d   Thumb Code    10  lptim.o(i.BUZZ_On)
    BusFault_Handler                         0x0800069d   Thumb Code     2  stm32l4xx_it.o(i.BusFault_Handler)
    CYFISNP_Abort                            0x080006a9   Thumb Code    98  cyfi_radio.o(i.CYFISNP_Abort)
    CYFISNP_BindStart                        0x08000711   Thumb Code    44  cyfisnp_protocol.o(i.CYFISNP_BindStart)
    CYFISNP_ByteWrite                        0x08000749   Thumb Code     4  cyfi_hal.o(i.CYFISNP_ByteWrite)
    CYFISNP_EndReceive                       0x0800074d   Thumb Code    92  cyfi_radio.o(i.CYFISNP_EndReceive)
    CYFISNP_EndTransmit                      0x080007ad   Thumb Code     8  cyfi_radio.o(i.CYFISNP_EndTransmit)
    CYFISNP_FileRead                         0x080007b9   Thumb Code   120  cyfi_hal.o(i.CYFISNP_FileRead)
    CYFISNP_FileWrite                        0x08000835   Thumb Code    66  cyfi_hal.o(i.CYFISNP_FileWrite)
    CYFISNP_ForceState                       0x0800087d   Thumb Code    30  cyfi_radio.o(i.CYFISNP_ForceState)
    CYFISNP_GetCrcSeed                       0x080008a1   Thumb Code    22  cyfi_radio.o(i.CYFISNP_GetCrcSeed)
    CYFISNP_GetFuses                         0x080008b9   Thumb Code    50  cyfi_radio.o(i.CYFISNP_GetFuses)
    CYFISNP_GetHubMid                        0x080008f1   Thumb Code    20  cyfisnp_protocol.o(i.CYFISNP_GetHubMid)
    CYFISNP_GetHubNet                        0x08000905   Thumb Code   114  cyfisnp_protocol.o(i.CYFISNP_GetHubNet)
    CYFISNP_GetReceiveState                  0x08000979   Thumb Code    44  cyfi_radio.o(i.CYFISNP_GetReceiveState)
    CYFISNP_GetReceiveStatus                 0x080009a9   Thumb Code     6  cyfi_radio.o(i.CYFISNP_GetReceiveStatus)
    CYFISNP_GetRssi                          0x080009af   Thumb Code     6  cyfi_radio.o(i.CYFISNP_GetRssi)
    CYFISNP_GetTransmitState                 0x080009b5   Thumb Code    80  cyfi_radio.o(i.CYFISNP_GetTransmitState)
    CYFISNP_IRQ_Read                         0x08000a09   Thumb Code    10  cyfisnp_isr.o(i.CYFISNP_IRQ_Read)
    CYFISNP_ISR_Interrupt                    0x08000a15   Thumb Code   824  cyfisnp_isr.o(i.CYFISNP_ISR_Interrupt)
    CYFISNP_Init                             0x08000dad   Thumb Code   106  cyfi_radio.o(i.CYFISNP_Init)
    CYFISNP_PhyStart                         0x08000e1d   Thumb Code    38  cyfi_radio.o(i.CYFISNP_PhyStart)
    CYFISNP_PhyStop                          0x08000e43   Thumb Code    16  cyfi_radio.o(i.CYFISNP_PhyStop)
    CYFISNP_Read                             0x08000e53   Thumb Code    46  cyfi_hal.o(i.CYFISNP_Read)
    CYFISNP_ReadStatusDebounced              0x08000e81   Thumb Code    32  cyfi_hal.o(i.CYFISNP_ReadStatusDebounced)
    CYFISNP_Reset                            0x08000ea1   Thumb Code    26  cyfi_hal.o(i.CYFISNP_Reset)
    CYFISNP_RestartTransmit                  0x08000ebd   Thumb Code    48  cyfi_radio.o(i.CYFISNP_RestartTransmit)
    CYFISNP_Run                              0x08000ef1   Thumb Code   176  cyfisnp_protocol.o(i.CYFISNP_Run)
    CYFISNP_RxdataGet                        0x08000fb9   Thumb Code    16  cyfisnp_isr.o(i.CYFISNP_RxdataGet)
    CYFISNP_RxdataPend                       0x08000fcd   Thumb Code   172  cyfisnp_protocol.o(i.CYFISNP_RxdataPend)
    CYFISNP_RxdataRelease                    0x08001081   Thumb Code    56  cyfisnp_isr.o(i.CYFISNP_RxdataRelease)
    CYFISNP_SPI_ByteWrite                    0x080010c5   Thumb Code    26  spi.o(i.CYFISNP_SPI_ByteWrite)
    CYFISNP_SetChannel                       0x080010e5   Thumb Code    16  cyfi_radio.o(i.CYFISNP_SetChannel)
    CYFISNP_SetConstSopPnCode                0x080010f5   Thumb Code    26  cyfi_radio.o(i.CYFISNP_SetConstSopPnCode)
    CYFISNP_SetCrcSeed                       0x0800110f   Thumb Code    24  cyfi_radio.o(i.CYFISNP_SetCrcSeed)
    CYFISNP_SetFrameConfig                   0x08001127   Thumb Code     8  cyfi_radio.o(i.CYFISNP_SetFrameConfig)
    CYFISNP_SetLength                        0x08001131   Thumb Code     6  cyfi_hal.o(i.CYFISNP_SetLength)
    CYFISNP_SetPreambleCount                 0x0800113d   Thumb Code    38  cyfi_radio.o(i.CYFISNP_SetPreambleCount)
    CYFISNP_SetPtr                           0x08001165   Thumb Code     6  cyfi_hal.o(i.CYFISNP_SetPtr)
    CYFISNP_SetSopPnCode                     0x08001171   Thumb Code    10  cyfi_radio.o(i.CYFISNP_SetSopPnCode)
    CYFISNP_SetThreshold32                   0x08001181   Thumb Code     8  cyfi_radio.o(i.CYFISNP_SetThreshold32)
    CYFISNP_SetThreshold64                   0x08001189   Thumb Code     8  cyfi_radio.o(i.CYFISNP_SetThreshold64)
    CYFISNP_SetTxConfig                      0x08001191   Thumb Code     8  cyfi_radio.o(i.CYFISNP_SetTxConfig)
    CYFISNP_SetXactConfig                    0x08001199   Thumb Code    16  cyfi_radio.o(i.CYFISNP_SetXactConfig)
    CYFISNP_Start                            0x080011ad   Thumb Code   260  cyfisnp_protocol.o(i.CYFISNP_Start)
    CYFISNP_StartReceive                     0x080012c5   Thumb Code    30  cyfi_radio.o(i.CYFISNP_StartReceive)
    CYFISNP_StartTransmit                    0x080012e9   Thumb Code    10  cyfi_radio.o(i.CYFISNP_StartTransmit)
    CYFISNP_Stop                             0x080012f9   Thumb Code    14  cyfisnp_protocol.o(i.CYFISNP_Stop)
    CYFISNP_TimeExpired                      0x0800130d   Thumb Code    12  cyfisnp_timer.o(i.CYFISNP_TimeExpired)
    CYFISNP_TimeSet                          0x08001319   Thumb Code     4  cyfisnp_timer.o(i.CYFISNP_TimeSet)
    CYFISNP_TxdataPend                       0x0800131d   Thumb Code    64  cyfisnp_protocol.o(i.CYFISNP_TxdataPend)
    CYFISNP_TxdataPut                        0x08001361   Thumb Code    86  cyfisnp_protocol.o(i.CYFISNP_TxdataPut)
    CYFISNP_Write                            0x080013c1   Thumb Code    52  cyfi_hal.o(i.CYFISNP_Write)
    CYFISNP_devRecWrite                      0x080013f9   Thumb Code    14  cyfisnp_protocol.o(i.CYFISNP_devRecWrite)
    CYFISNP_netRecWrite                      0x08001407   Thumb Code    14  cyfisnp_protocol.o(i.CYFISNP_netRecWrite)
    CYFISNP_phyIdle                          0x08001415   Thumb Code    64  cyfisnp_protocol.o(i.CYFISNP_phyIdle)
    CYFISNP_phyRxGo                          0x08001459   Thumb Code    30  cyfisnp_protocol.o(i.CYFISNP_phyRxGo)
    CYFISNP_startReceive                     0x0800147d   Thumb Code    32  cyfisnp_isr.o(i.CYFISNP_startReceive)
    Cy_DelayUS2                              0x080014a5   Thumb Code    32  main.o(i.Cy_DelayUS2)
    DebugMon_Handler                         0x080014c5   Thumb Code     2  stm32l4xx_it.o(i.DebugMon_Handler)
    DecodeToDec                              0x080014c7   Thumb Code   128  usart.o(i.DecodeToDec)
    DecodeToHex                              0x08001549   Thumb Code    48  usart.o(i.DecodeToHex)
    DisableCHG                               0x0800157d   Thumb Code    80  max14676.o(i.DisableCHG)
    EXTI0_IRQHandler                         0x080015d1   Thumb Code     6  stm32l4xx_it.o(i.EXTI0_IRQHandler)
    EXTI15_10_IRQHandler                     0x080015d9   Thumb Code    20  stm32l4xx_it.o(i.EXTI15_10_IRQHandler)
    EXTI3_IRQHandler                         0x080015f1   Thumb Code    20  stm32l4xx_it.o(i.EXTI3_IRQHandler)
    EXTI9_5_IRQHandler                       0x08001609   Thumb Code    20  stm32l4xx_it.o(i.EXTI9_5_IRQHandler)
    EnableCHG                                0x08001621   Thumb Code   184  max14676.o(i.EnableCHG)
    EnterBootMode                            0x080016dd   Thumb Code   184  myusbd_custom_hid_if.o(i.EnterBootMode)
    FLASH_FlushCaches                        0x080017b5   Thumb Code    82  stm32l4xx_hal_flash_ex.o(i.FLASH_FlushCaches)
    FLASH_PageErase                          0x0800198d   Thumb Code    44  stm32l4xx_hal_flash_ex.o(i.FLASH_PageErase)
    FLASH_WaitForLastOperation               0x08001ac5   Thumb Code   132  stm32l4xx_hal_flash.o(i.FLASH_WaitForLastOperation)
    Flash_Program                            0x08001b4d   Thumb Code   264  cyfisnp_flash_utility.o(i.Flash_Program)
    GRN_LED_Config                           0x08001c6d   Thumb Code    12  tim.o(i.GRN_LED_Config)
    GRN_LED_Dime                             0x08001c79   Thumb Code    44  tim.o(i.GRN_LED_Dime)
    GRN_LED_On                               0x08001cad   Thumb Code    26  tim.o(i.GRN_LED_On)
    GRN_LED_Toggle                           0x08001ccd   Thumb Code    28  tim.o(i.GRN_LED_Toggle)
    Get_USB_Out_Buffer                       0x08001d2d   Thumb Code    20  myusbd_custom_hid_if.o(i.Get_USB_Out_Buffer)
    HAL_DMA_Abort_IT                         0x08001d49   Thumb Code    74  stm32l4xx_hal_dma.o(i.HAL_DMA_Abort_IT)
    HAL_Delay                                0x08001d93   Thumb Code    28  stm32l4xx_hal.o(i.HAL_Delay)
    HAL_FLASHEx_Erase                        0x08001db1   Thumb Code   212  stm32l4xx_hal_flash_ex.o(i.HAL_FLASHEx_Erase)
    HAL_FLASHEx_OBGetConfig                  0x08001e95   Thumb Code   136  stm32l4xx_hal_flash_ex.o(i.HAL_FLASHEx_OBGetConfig)
    HAL_FLASHEx_OBProgram                    0x08001f21   Thumb Code   262  stm32l4xx_hal_flash_ex.o(i.HAL_FLASHEx_OBProgram)
    HAL_FLASH_GetError                       0x08002039   Thumb Code     6  stm32l4xx_hal_flash.o(i.HAL_FLASH_GetError)
    HAL_FLASH_Lock                           0x08002045   Thumb Code    14  stm32l4xx_hal_flash.o(i.HAL_FLASH_Lock)
    HAL_FLASH_OB_Launch                      0x08002059   Thumb Code    18  stm32l4xx_hal_flash.o(i.HAL_FLASH_OB_Launch)
    HAL_FLASH_OB_Lock                        0x08002071   Thumb Code    14  stm32l4xx_hal_flash.o(i.HAL_FLASH_OB_Lock)
    HAL_FLASH_OB_Unlock                      0x08002085   Thumb Code    24  stm32l4xx_hal_flash.o(i.HAL_FLASH_OB_Unlock)
    HAL_FLASH_Program                        0x080020a9   Thumb Code   156  stm32l4xx_hal_flash.o(i.HAL_FLASH_Program)
    HAL_FLASH_Unlock                         0x08002155   Thumb Code    24  stm32l4xx_hal_flash.o(i.HAL_FLASH_Unlock)
    HAL_GPIO_EXTI_Callback                   0x08002179   Thumb Code     4  main.o(i.HAL_GPIO_EXTI_Callback)
    HAL_GPIO_EXTI_IRQHandler                 0x0800217d   Thumb Code    18  stm32l4xx_hal_gpio.o(i.HAL_GPIO_EXTI_IRQHandler)
    HAL_GPIO_EXTI_myCallback10               0x08002195   Thumb Code    80  main.o(i.HAL_GPIO_EXTI_myCallback10)
    HAL_GPIO_EXTI_myCallback3                0x080021e9   Thumb Code    40  main.o(i.HAL_GPIO_EXTI_myCallback3)
    HAL_GPIO_EXTI_myCallback9                0x08002219   Thumb Code    88  main.o(i.HAL_GPIO_EXTI_myCallback9)
    HAL_GPIO_EXTI_myIRQHandler10             0x0800227d   Thumb Code    16  main.o(i.HAL_GPIO_EXTI_myIRQHandler10)
    HAL_GPIO_EXTI_myIRQHandler3              0x08002291   Thumb Code    16  main.o(i.HAL_GPIO_EXTI_myIRQHandler3)
    HAL_GPIO_EXTI_myIRQHandler9              0x080022a5   Thumb Code    16  main.o(i.HAL_GPIO_EXTI_myIRQHandler9)
    HAL_GPIO_Init                            0x080022b9   Thumb Code   364  stm32l4xx_hal_gpio.o(i.HAL_GPIO_Init)
    HAL_GPIO_ReadPin                         0x08002447   Thumb Code    10  stm32l4xx_hal_gpio.o(i.HAL_GPIO_ReadPin)
    HAL_GPIO_WritePin                        0x08002451   Thumb Code    10  stm32l4xx_hal_gpio.o(i.HAL_GPIO_WritePin)
    HAL_GetTick                              0x0800245d   Thumb Code     6  stm32l4xx_hal.o(i.HAL_GetTick)
    HAL_I2CEx_ConfigAnalogFilter             0x08002469   Thumb Code    86  stm32l4xx_hal_i2c_ex.o(i.HAL_I2CEx_ConfigAnalogFilter)
    HAL_I2CEx_ConfigDigitalFilter            0x080024bf   Thumb Code    82  stm32l4xx_hal_i2c_ex.o(i.HAL_I2CEx_ConfigDigitalFilter)
    HAL_I2C_Init                             0x08002511   Thumb Code   178  stm32l4xx_hal_i2c.o(i.HAL_I2C_Init)
    HAL_I2C_Master_Receive                   0x080025c9   Thumb Code   298  stm32l4xx_hal_i2c.o(i.HAL_I2C_Master_Receive)
    HAL_I2C_Master_Transmit                  0x08002701   Thumb Code   292  stm32l4xx_hal_i2c.o(i.HAL_I2C_Master_Transmit)
    HAL_I2C_MspInit                          0x08002831   Thumb Code    64  i2c.o(i.HAL_I2C_MspInit)
    HAL_IWDG_Init                            0x0800287d   Thumb Code    94  stm32l4xx_hal_iwdg.o(i.HAL_IWDG_Init)
    HAL_IWDG_Refresh                         0x080028db   Thumb Code    12  stm32l4xx_hal_iwdg.o(i.HAL_IWDG_Refresh)
    HAL_IncTick                              0x080028e9   Thumb Code    10  stm32l4xx_hal.o(i.HAL_IncTick)
    HAL_Init                                 0x080028f9   Thumb Code    22  stm32l4xx_hal.o(i.HAL_Init)
    HAL_InitTick                             0x08002911   Thumb Code    34  stm32l4xx_hal.o(i.HAL_InitTick)
    HAL_LPTIM_Init                           0x08002939   Thumb Code   156  stm32l4xx_hal_lptim.o(i.HAL_LPTIM_Init)
    HAL_LPTIM_MspInit                        0x080029dd   Thumb Code    60  lptim.o(i.HAL_LPTIM_MspInit)
    HAL_LPTIM_PWM_Start                      0x08002a25   Thumb Code    56  stm32l4xx_hal_lptim.o(i.HAL_LPTIM_PWM_Start)
    HAL_LPTIM_PWM_Stop                       0x08002a5d   Thumb Code    26  stm32l4xx_hal_lptim.o(i.HAL_LPTIM_PWM_Stop)
    HAL_MspInit                              0x08002a79   Thumb Code   122  stm32l4xx_hal_msp.o(i.HAL_MspInit)
    HAL_NVIC_DisableIRQ                      0x08002af9   Thumb Code    22  stm32l4xx_hal_cortex.o(i.HAL_NVIC_DisableIRQ)
    HAL_NVIC_EnableIRQ                       0x08002b0f   Thumb Code    22  stm32l4xx_hal_cortex.o(i.HAL_NVIC_EnableIRQ)
    HAL_NVIC_SetPriority                     0x08002b25   Thumb Code    60  stm32l4xx_hal_cortex.o(i.HAL_NVIC_SetPriority)
    HAL_NVIC_SetPriorityGrouping             0x08002b65   Thumb Code    26  stm32l4xx_hal_cortex.o(i.HAL_NVIC_SetPriorityGrouping)
    HAL_PCDEx_ActivateBCD                    0x08002b89   Thumb Code    30  stm32l4xx_hal_pcd_ex.o(i.HAL_PCDEx_ActivateBCD)
    HAL_PCDEx_ActivateLPM                    0x08002ba7   Thumb Code    36  stm32l4xx_hal_pcd_ex.o(i.HAL_PCDEx_ActivateLPM)
    HAL_PCDEx_LPM_Callback                   0x08002bcd   Thumb Code    64  usbd_conf.o(i.HAL_PCDEx_LPM_Callback)
    HAL_PCDEx_PMAConfig                      0x08002c11   Thumb Code    52  stm32l4xx_hal_pcd_ex.o(i.HAL_PCDEx_PMAConfig)
    HAL_PCD_DataInStageCallback              0x08002c45   Thumb Code    14  usbd_conf.o(i.HAL_PCD_DataInStageCallback)
    HAL_PCD_DataOutStageCallback             0x08002c53   Thumb Code    16  usbd_conf.o(i.HAL_PCD_DataOutStageCallback)
    HAL_PCD_EP_Close                         0x08002c63   Thumb Code    64  stm32l4xx_hal_pcd.o(i.HAL_PCD_EP_Close)
    HAL_PCD_EP_ClrStall                      0x08002ca3   Thumb Code    72  stm32l4xx_hal_pcd.o(i.HAL_PCD_EP_ClrStall)
    HAL_PCD_EP_Open                          0x08002ceb   Thumb Code    68  stm32l4xx_hal_pcd.o(i.HAL_PCD_EP_Open)
    HAL_PCD_EP_Receive                       0x08002d2f   Thumb Code    48  stm32l4xx_hal_pcd.o(i.HAL_PCD_EP_Receive)
    HAL_PCD_EP_SetStall                      0x08002d5f   Thumb Code    88  stm32l4xx_hal_pcd.o(i.HAL_PCD_EP_SetStall)
    HAL_PCD_EP_Transmit                      0x08002db7   Thumb Code    44  stm32l4xx_hal_pcd.o(i.HAL_PCD_EP_Transmit)
    HAL_PCD_IRQHandler                       0x08002de3   Thumb Code   414  stm32l4xx_hal_pcd.o(i.HAL_PCD_IRQHandler)
    HAL_PCD_Init                             0x08002f81   Thumb Code   216  stm32l4xx_hal_pcd.o(i.HAL_PCD_Init)
    HAL_PCD_MspInit                          0x08003059   Thumb Code    78  usbd_conf.o(i.HAL_PCD_MspInit)
    HAL_PCD_ResetCallback                    0x080030b5   Thumb Code    26  usbd_conf.o(i.HAL_PCD_ResetCallback)
    HAL_PCD_ResumeCallback                   0x080030d1   Thumb Code    34  usbd_conf.o(i.HAL_PCD_ResumeCallback)
    HAL_PCD_SOFCallback                      0x080030f9   Thumb Code     8  usbd_conf.o(i.HAL_PCD_SOFCallback)
    HAL_PCD_SetAddress                       0x08003101   Thumb Code    40  stm32l4xx_hal_pcd.o(i.HAL_PCD_SetAddress)
    HAL_PCD_SetupStageCallback               0x08003129   Thumb Code    14  usbd_conf.o(i.HAL_PCD_SetupStageCallback)
    HAL_PCD_Start                            0x08003137   Thumb Code    42  stm32l4xx_hal_pcd.o(i.HAL_PCD_Start)
    HAL_PCD_SuspendCallback                  0x08003161   Thumb Code    30  usbd_conf.o(i.HAL_PCD_SuspendCallback)
    HAL_PWREx_ControlVoltageScaling          0x08003185   Thumb Code    86  stm32l4xx_hal_pwr_ex.o(i.HAL_PWREx_ControlVoltageScaling)
    HAL_PWREx_EnableVddUSB                   0x080031e9   Thumb Code    12  stm32l4xx_hal_pwr_ex.o(i.HAL_PWREx_EnableVddUSB)
    HAL_PWREx_GetVoltageRange                0x080031f9   Thumb Code    10  stm32l4xx_hal_pwr_ex.o(i.HAL_PWREx_GetVoltageRange)
    HAL_QSPI_Init                            0x08003209   Thumb Code   208  stm32l4xx_hal_qspi.o(i.HAL_QSPI_Init)
    HAL_QSPI_MspInit                         0x080032e1   Thumb Code    74  quadspi.o(i.HAL_QSPI_MspInit)
    HAL_RCCEx_EnableMSIPLLMode               0x08003339   Thumb Code    12  stm32l4xx_hal_rcc_ex.o(i.HAL_RCCEx_EnableMSIPLLMode)
    HAL_RCCEx_PeriphCLKConfig                0x08003349   Thumb Code   736  stm32l4xx_hal_rcc_ex.o(i.HAL_RCCEx_PeriphCLKConfig)
    HAL_RCC_ClockConfig                      0x08003639   Thumb Code   356  stm32l4xx_hal_rcc.o(i.HAL_RCC_ClockConfig)
    HAL_RCC_GetHCLKFreq                      0x080037ad   Thumb Code     6  stm32l4xx_hal_rcc.o(i.HAL_RCC_GetHCLKFreq)
    HAL_RCC_GetPCLK1Freq                     0x080037b9   Thumb Code    20  stm32l4xx_hal_rcc.o(i.HAL_RCC_GetPCLK1Freq)
    HAL_RCC_GetPCLK2Freq                     0x080037d9   Thumb Code    20  stm32l4xx_hal_rcc.o(i.HAL_RCC_GetPCLK2Freq)
    HAL_RCC_GetSysClockFreq                  0x080037f9   Thumb Code   182  stm32l4xx_hal_rcc.o(i.HAL_RCC_GetSysClockFreq)
    HAL_RCC_OscConfig                        0x080038bd   Thumb Code  1194  stm32l4xx_hal_rcc.o(i.HAL_RCC_OscConfig)
    HAL_RTCEx_BKUPRead                       0x08003d6d   Thumb Code    10  stm32l4xx_hal_rtc_ex.o(i.HAL_RTCEx_BKUPRead)
    HAL_RTCEx_BKUPWrite                      0x08003d77   Thumb Code    10  stm32l4xx_hal_rtc_ex.o(i.HAL_RTCEx_BKUPWrite)
    HAL_RTC_Init                             0x08003d81   Thumb Code   180  stm32l4xx_hal_rtc.o(i.HAL_RTC_Init)
    HAL_RTC_MspInit                          0x08003e39   Thumb Code    22  rtc.o(i.HAL_RTC_MspInit)
    HAL_RTC_SetDate                          0x08003e59   Thumb Code   212  stm32l4xx_hal_rtc.o(i.HAL_RTC_SetDate)
    HAL_RTC_SetTime                          0x08003f31   Thumb Code   244  stm32l4xx_hal_rtc.o(i.HAL_RTC_SetTime)
    HAL_RTC_WaitForSynchro                   0x08004029   Thumb Code    54  stm32l4xx_hal_rtc.o(i.HAL_RTC_WaitForSynchro)
    HAL_SPI_Init                             0x0800405f   Thumb Code   172  stm32l4xx_hal_spi.o(i.HAL_SPI_Init)
    HAL_SPI_MspInit                          0x0800410d   Thumb Code    62  spi.o(i.HAL_SPI_MspInit)
    HAL_SPI_TransmitReceive                  0x08004159   Thumb Code   574  stm32l4xx_hal_spi.o(i.HAL_SPI_TransmitReceive)
    HAL_SYSTICK_CLKSourceConfig              0x0800439d   Thumb Code    24  stm32l4xx_hal_cortex.o(i.HAL_SYSTICK_CLKSourceConfig)
    HAL_SYSTICK_Callback                     0x080043b5   Thumb Code     2  stm32l4xx_hal_cortex.o(i.HAL_SYSTICK_Callback)
    HAL_SYSTICK_Config                       0x080043b7   Thumb Code    40  stm32l4xx_hal_cortex.o(i.HAL_SYSTICK_Config)
    HAL_SYSTICK_IRQHandler                   0x080043df   Thumb Code     8  stm32l4xx_hal_cortex.o(i.HAL_SYSTICK_IRQHandler)
    HAL_TIMEx_MasterConfigSynchronization    0x080043e9   Thumb Code    72  stm32l4xx_hal_tim_ex.o(i.HAL_TIMEx_MasterConfigSynchronization)
    HAL_TIM_Base_Init                        0x08004435   Thumb Code    54  stm32l4xx_hal_tim.o(i.HAL_TIM_Base_Init)
    HAL_TIM_Base_MspInit                     0x0800446d   Thumb Code    30  tim.o(i.HAL_TIM_Base_MspInit)
    HAL_TIM_ConfigClockSource                0x08004491   Thumb Code   246  stm32l4xx_hal_tim.o(i.HAL_TIM_ConfigClockSource)
    HAL_TIM_MspPostInit                      0x0800458d   Thumb Code    90  tim.o(i.HAL_TIM_MspPostInit)
    HAL_TIM_PWM_ConfigChannel                0x080045e7   Thumb Code   296  stm32l4xx_hal_tim.o(i.HAL_TIM_PWM_ConfigChannel)
    HAL_TIM_PWM_Init                         0x0800470f   Thumb Code    54  stm32l4xx_hal_tim.o(i.HAL_TIM_PWM_Init)
    HAL_TIM_PWM_MspInit                      0x08004745   Thumb Code     2  stm32l4xx_hal_tim.o(i.HAL_TIM_PWM_MspInit)
    HAL_TIM_PWM_Start                        0x08004749   Thumb Code    54  stm32l4xx_hal_tim.o(i.HAL_TIM_PWM_Start)
    HAL_TIM_PWM_Stop                         0x0800478d   Thumb Code    90  stm32l4xx_hal_tim.o(i.HAL_TIM_PWM_Stop)
    HAL_UARTEx_WakeupCallback                0x080047f5   Thumb Code     2  stm32l4xx_hal_uart_ex.o(i.HAL_UARTEx_WakeupCallback)
    HAL_UART_ErrorCallback                   0x080047f9   Thumb Code    32  usart.o(i.HAL_UART_ErrorCallback)
    HAL_UART_IRQHandler                      0x0800482d   Thumb Code   408  stm32l4xx_hal_uart.o(i.HAL_UART_IRQHandler)
    HAL_UART_Init                            0x080049c9   Thumb Code   106  stm32l4xx_hal_uart.o(i.HAL_UART_Init)
    HAL_UART_MspInit                         0x08004a35   Thumb Code    76  usart.o(i.HAL_UART_MspInit)
    HAL_UART_Receive_IT                      0x08004a8d   Thumb Code   140  stm32l4xx_hal_uart.o(i.HAL_UART_Receive_IT)
    HAL_UART_RxCpltCallback                  0x08004b19   Thumb Code   114  usart.o(i.HAL_UART_RxCpltCallback)
    HAL_UART_Transmit                        0x08004ba1   Thumb Code   180  stm32l4xx_hal_uart.o(i.HAL_UART_Transmit)
    HAL_UART_Transmit_IT                     0x08004c55   Thumb Code    62  stm32l4xx_hal_uart.o(i.HAL_UART_Transmit_IT)
    HAL_UART_TxCpltCallback                  0x08004c93   Thumb Code     2  stm32l4xx_hal_uart.o(i.HAL_UART_TxCpltCallback)
    HardFault_Handler                        0x08004c95   Thumb Code     2  stm32l4xx_it.o(i.HardFault_Handler)
    IsCYFISNP_InterruptActive                0x08004ecd   Thumb Code    10  cyfi_hal.o(i.IsCYFISNP_InterruptActive)
    LPUART1_IRQHandler                       0x08004ed9   Thumb Code     6  stm32l4xx_it.o(i.LPUART1_IRQHandler)
    MX_GPIO_Init                             0x08004ee5   Thumb Code   504  gpio.o(i.MX_GPIO_Init)
    MX_I2C1_Init                             0x08005105   Thumb Code    92  i2c.o(i.MX_I2C1_Init)
    MX_IWDG_Init                             0x0800517d   Thumb Code    42  iwdg.o(i.MX_IWDG_Init)
    MX_IWDG_RESET                            0x080051c1   Thumb Code     6  iwdg.o(i.MX_IWDG_RESET)
    MX_LPTIM1_Init                           0x080051cd   Thumb Code    56  lptim.o(i.MX_LPTIM1_Init)
    MX_LPUART1_UART_Init                     0x0800521d   Thumb Code    66  usart.o(i.MX_LPUART1_UART_Init)
    MX_QUADSPI_Init                          0x08005279   Thumb Code    52  quadspi.o(i.MX_QUADSPI_Init)
    MX_RTC_Init                              0x080052c9   Thumb Code   148  rtc.o(i.MX_RTC_Init)
    MX_SPI1_Init                             0x08005375   Thumb Code    74  spi.o(i.MX_SPI1_Init)
    MX_TIM2_Config                           0x080053d9   Thumb Code    80  tim.o(i.MX_TIM2_Config)
    MX_TIM2_Init                             0x0800543d   Thumb Code   192  tim.o(i.MX_TIM2_Init)
    MX_USB_DEVICE_Init                       0x08005511   Thumb Code    50  usb_device.o(i.MX_USB_DEVICE_Init)
    MemManage_Handler                        0x08005555   Thumb Code     2  stm32l4xx_it.o(i.MemManage_Handler)
    NMI_Handler                              0x08005557   Thumb Code     2  stm32l4xx_it.o(i.NMI_Handler)
    Node_Table_Init                          0x0800559d   Thumb Code   414  cyfisnp_flash_utility.o(i.Node_Table_Init)
    PROG_Pin_mode                            0x08005a9d   Thumb Code   110  gpio.o(i.PROG_Pin_mode)
    PendSV_Handler                           0x08005b15   Thumb Code     2  stm32l4xx_it.o(i.PendSV_Handler)
    RED_LED_Toggle                           0x08005df5   Thumb Code    32  tim.o(i.RED_LED_Toggle)
    RTC_Bcd2ToByte                           0x08005e1d   Thumb Code    18  stm32l4xx_hal_rtc.o(i.RTC_Bcd2ToByte)
    RTC_ByteToBcd2                           0x08005e2f   Thumb Code    22  stm32l4xx_hal_rtc.o(i.RTC_ByteToBcd2)
    RTC_EnterInitMode                        0x08005e45   Thumb Code    58  stm32l4xx_hal_rtc.o(i.RTC_EnterInitMode)
    ReStart_Process                          0x08005e81   Thumb Code    60  max14676.o(i.ReStart_Process)
    RfDataCheck                              0x08005ec1   Thumb Code    74  main.o(i.RfDataCheck)
    SVC_Handler                              0x0800608b   Thumb Code     2  stm32l4xx_it.o(i.SVC_Handler)
    SendToHost                               0x0800608d   Thumb Code    76  myusbd_custom_hid_if.o(i.SendToHost)
    SendToHostBLEForNodeInfo                 0x080060e1   Thumb Code    62  myusbd_custom_hid_if.o(i.SendToHostBLEForNodeInfo)
    SendToHostBLEUpload                      0x08006125   Thumb Code    54  myusbd_custom_hid_if.o(i.SendToHostBLEUpload)
    SendToHostUSB                            0x08006161   Thumb Code    16  myusbd_custom_hid_if.o(i.SendToHostUSB)
    SysTick_Handler                          0x08006175   Thumb Code   108  stm32l4xx_it.o(i.SysTick_Handler)
    SystemClock_Config                       0x08006209   Thumb Code   190  main.o(i.SystemClock_Config)
    SystemInit                               0x080062d1   Thumb Code    56  system_stm32l4xx.o(i.SystemInit)
    TIM_Base_SetConfig                       0x08006315   Thumb Code    86  stm32l4xx_hal_tim.o(i.TIM_Base_SetConfig)
    TIM_CCxChannelCmd                        0x08006379   Thumb Code    22  stm32l4xx_hal_tim.o(i.TIM_CCxChannelCmd)
    TIM_ETR_SetConfig                        0x0800638f   Thumb Code    20  stm32l4xx_hal_tim.o(i.TIM_ETR_SetConfig)
    TIM_OC2_SetConfig                        0x0800642d   Thumb Code   102  stm32l4xx_hal_tim.o(i.TIM_OC2_SetConfig)
    Table_Program                            0x08006679   Thumb Code   276  cyfisnp_flash_utility.o(i.Table_Program)
    UART_AdvFeatureConfig                    0x0800679d   Thumb Code   200  stm32l4xx_hal_uart.o(i.UART_AdvFeatureConfig)
    UART_CheckIdleState                      0x08006865   Thumb Code    92  stm32l4xx_hal_uart.o(i.UART_CheckIdleState)
    UART_Send                                0x08006969   Thumb Code    44  usart.o(i.UART_Send)
    UART_SendForNodeInfo                     0x08006999   Thumb Code    46  usart.o(i.UART_SendForNodeInfo)
    UART_SendUpload                          0x080069cd   Thumb Code    46  usart.o(i.UART_SendUpload)
    UART_SetConfig                           0x08006a01   Thumb Code   550  stm32l4xx_hal_uart.o(i.UART_SetConfig)
    UART_WaitOnFlagUntilTimeout              0x08006c51   Thumb Code   100  stm32l4xx_hal_uart.o(i.UART_WaitOnFlagUntilTimeout)
    USBD_CUSTOM_HID_RegisterInterface        0x08006d99   Thumb Code    16  myusbd_customhid.o(i.USBD_CUSTOM_HID_RegisterInterface)
    USBD_CUSTOM_HID_SendReport               0x08006da9   Thumb Code    64  myusbd_customhid.o(i.USBD_CUSTOM_HID_SendReport)
    USBD_ClrClassConfig                      0x08006ea1   Thumb Code    14  usbd_core.o(i.USBD_ClrClassConfig)
    USBD_CtlContinueRx                       0x08006eaf   Thumb Code    16  usbd_ioreq.o(i.USBD_CtlContinueRx)
    USBD_CtlContinueSendData                 0x08006ebf   Thumb Code    16  usbd_ioreq.o(i.USBD_CtlContinueSendData)
    USBD_CtlError                            0x08006ecf   Thumb Code    22  usbd_ctlreq.o(i.USBD_CtlError)
    USBD_CtlPrepareRx                        0x08006ee5   Thumb Code    30  usbd_ioreq.o(i.USBD_CtlPrepareRx)
    USBD_CtlReceiveStatus                    0x08006f03   Thumb Code    22  usbd_ioreq.o(i.USBD_CtlReceiveStatus)
    USBD_CtlSendData                         0x08006f19   Thumb Code    26  usbd_ioreq.o(i.USBD_CtlSendData)
    USBD_CtlSendStatus                       0x08006f33   Thumb Code    22  usbd_ioreq.o(i.USBD_CtlSendStatus)
    USBD_FS_ConfigStrDescriptor              0x08006f49   Thumb Code    16  myusbd_desc.o(i.USBD_FS_ConfigStrDescriptor)
    USBD_FS_DeviceDescriptor                 0x08006f71   Thumb Code     8  myusbd_desc.o(i.USBD_FS_DeviceDescriptor)
    USBD_FS_InterfaceStrDescriptor           0x08006f7d   Thumb Code    16  myusbd_desc.o(i.USBD_FS_InterfaceStrDescriptor)
    USBD_FS_LangIDStrDescriptor              0x08006fa9   Thumb Code     8  myusbd_desc.o(i.USBD_FS_LangIDStrDescriptor)
    USBD_FS_ManufacturerStrDescriptor        0x08006fb5   Thumb Code    16  myusbd_desc.o(i.USBD_FS_ManufacturerStrDescriptor)
    USBD_FS_ProductStrDescriptor             0x08006fd9   Thumb Code    16  myusbd_desc.o(i.USBD_FS_ProductStrDescriptor)
    USBD_FS_SerialStrDescriptor              0x08006ff9   Thumb Code    16  myusbd_desc.o(i.USBD_FS_SerialStrDescriptor)
    USBD_FS_USR_BOSDescriptor                0x08007011   Thumb Code     8  myusbd_desc.o(i.USBD_FS_USR_BOSDescriptor)
    USBD_GetString                           0x08007125   Thumb Code    70  usbd_ctlreq.o(i.USBD_GetString)
    USBD_Init                                0x0800716b   Thumb Code    42  usbd_core.o(i.USBD_Init)
    USBD_LL_BatteryCharging                  0x08007195   Thumb Code    18  usbd_conf.o(i.USBD_LL_BatteryCharging)
    USBD_LL_ClearStallEP                     0x080071a7   Thumb Code    32  usbd_conf.o(i.USBD_LL_ClearStallEP)
    USBD_LL_CloseEP                          0x080071c7   Thumb Code    32  usbd_conf.o(i.USBD_LL_CloseEP)
    USBD_LL_DataInStage                      0x080071e7   Thumb Code   170  usbd_core.o(i.USBD_LL_DataInStage)
    USBD_LL_DataOutStage                     0x08007291   Thumb Code   106  usbd_core.o(i.USBD_LL_DataOutStage)
    USBD_LL_Init                             0x080072fd   Thumb Code   120  usbd_conf.o(i.USBD_LL_Init)
    USBD_LL_IsStallEP                        0x08007391   Thumb Code    28  usbd_conf.o(i.USBD_LL_IsStallEP)
    USBD_LL_OpenEP                           0x080073ad   Thumb Code    38  usbd_conf.o(i.USBD_LL_OpenEP)
    USBD_LL_PrepareReceive                   0x080073d3   Thumb Code    32  usbd_conf.o(i.USBD_LL_PrepareReceive)
    USBD_LL_Reset                            0x080073f3   Thumb Code    62  usbd_core.o(i.USBD_LL_Reset)
    USBD_LL_Resume                           0x08007431   Thumb Code    12  usbd_core.o(i.USBD_LL_Resume)
    USBD_LL_SOF                              0x0800743d   Thumb Code    24  usbd_core.o(i.USBD_LL_SOF)
    USBD_LL_SetSpeed                         0x08007455   Thumb Code     6  usbd_core.o(i.USBD_LL_SetSpeed)
    USBD_LL_SetUSBAddress                    0x0800745b   Thumb Code    32  usbd_conf.o(i.USBD_LL_SetUSBAddress)
    USBD_LL_SetupStage                       0x0800747b   Thumb Code    90  usbd_core.o(i.USBD_LL_SetupStage)
    USBD_LL_StallEP                          0x080074d5   Thumb Code    32  usbd_conf.o(i.USBD_LL_StallEP)
    USBD_LL_Start                            0x080074f5   Thumb Code    32  usbd_conf.o(i.USBD_LL_Start)
    USBD_LL_Suspend                          0x08007515   Thumb Code    18  usbd_core.o(i.USBD_LL_Suspend)
    USBD_LL_Transmit                         0x08007527   Thumb Code    32  usbd_conf.o(i.USBD_LL_Transmit)
    USBD_ParseSetupRequest                   0x08007547   Thumb Code    40  usbd_ctlreq.o(i.USBD_ParseSetupRequest)
    USBD_RegisterClass                       0x0800756f   Thumb Code    16  usbd_core.o(i.USBD_RegisterClass)
    USBD_SetClassConfig                      0x0800757f   Thumb Code    22  usbd_core.o(i.USBD_SetClassConfig)
    USBD_Start                               0x08007609   Thumb Code    10  usbd_core.o(i.USBD_Start)
    USBD_StdDevReq                           0x08007613   Thumb Code   242  usbd_ctlreq.o(i.USBD_StdDevReq)
    USBD_StdEPReq                            0x08007705   Thumb Code   220  usbd_ctlreq.o(i.USBD_StdEPReq)
    USBD_StdItfReq                           0x080077e1   Thumb Code    52  usbd_ctlreq.o(i.USBD_StdItfReq)
    USBD_static_free                         0x08007815   Thumb Code     2  usbd_conf.o(i.USBD_static_free)
    USBD_static_malloc                       0x08007819   Thumb Code     4  usbd_conf.o(i.USBD_static_malloc)
    USB_ActivateEndpoint                     0x08007821   Thumb Code   582  stm32l4xx_ll_usb.o(i.USB_ActivateEndpoint)
    USB_CoreInit                             0x08007a6d   Thumb Code     4  stm32l4xx_ll_usb.o(i.USB_CoreInit)
    USB_DeactivateEndpoint                   0x08007a71   Thumb Code   292  stm32l4xx_ll_usb.o(i.USB_DeactivateEndpoint)
    USB_DevConnect                           0x08007b95   Thumb Code    14  stm32l4xx_ll_usb.o(i.USB_DevConnect)
    USB_DevDisconnect                        0x08007ba9   Thumb Code    14  stm32l4xx_ll_usb.o(i.USB_DevDisconnect)
    USB_DevInit                              0x08007bbd   Thumb Code    18  stm32l4xx_ll_usb.o(i.USB_DevInit)
    USB_DisableGlobalInt                     0x08007bcf   Thumb Code    14  stm32l4xx_ll_usb.o(i.USB_DisableGlobalInt)
    USB_EP0_OutStart                         0x08007bdd   Thumb Code     4  stm32l4xx_ll_usb.o(i.USB_EP0_OutStart)
    USB_EPClearStall                         0x08007be1   Thumb Code   106  stm32l4xx_ll_usb.o(i.USB_EPClearStall)
    USB_EPSetStall                           0x08007c4b   Thumb Code    74  stm32l4xx_ll_usb.o(i.USB_EPSetStall)
    USB_EPStartXfer                          0x08007c95   Thumb Code   292  stm32l4xx_ll_usb.o(i.USB_EPStartXfer)
    USB_EnableGlobalInt                      0x08007db9   Thumb Code    14  stm32l4xx_ll_usb.o(i.USB_EnableGlobalInt)
    USB_IRQHandler                           0x08007dc9   Thumb Code     6  stm32l4xx_it.o(i.USB_IRQHandler)
    USB_ReadInterrupts                       0x08007dd5   Thumb Code     6  stm32l4xx_ll_usb.o(i.USB_ReadInterrupts)
    USB_ReadPMA                              0x08007ddb   Thumb Code    26  stm32l4xx_ll_usb.o(i.USB_ReadPMA)
    USB_SetCurrentMode                       0x08007df5   Thumb Code     4  stm32l4xx_ll_usb.o(i.USB_SetCurrentMode)
    USB_SetDevAddress                        0x08007df9   Thumb Code    12  stm32l4xx_ll_usb.o(i.USB_SetDevAddress)
    USB_WritePMA                             0x08007e05   Thumb Code    38  stm32l4xx_ll_usb.o(i.USB_WritePMA)
    UsageFault_Handler                       0x08007e2b   Thumb Code     2  stm32l4xx_it.o(i.UsageFault_Handler)
    _Error_Handler                           0x08007e2d   Thumb Code     2  main.o(i._Error_Handler)
    __scatterload_copy                       0x08007e2f   Thumb Code    14  handlers.o(i.__scatterload_copy)
    __scatterload_null                       0x08007e3d   Thumb Code     2  handlers.o(i.__scatterload_null)
    __scatterload_zeroinit                   0x08007e3f   Thumb Code    14  handlers.o(i.__scatterload_zeroinit)
    chkSeqBit                                0x08007ff1   Thumb Code   104  cyfisnp_isr.o(i.chkSeqBit)
    main                                     0x080080f1   Thumb Code   852  main.o(i.main)
    max14676_GetVer                          0x0800847d   Thumb Code    32  max14676.o(i.max14676_GetVer)
    max14676_Read                            0x080084a1   Thumb Code    48  max14676.o(i.max14676_Read)
    max14676_ReadReg                         0x080084d9   Thumb Code    58  max14676.o(i.max14676_ReadReg)
    max14676_WriteReg                        0x0800851d   Thumb Code    30  max14676.o(i.max14676_WriteReg)
    max14676_init                            0x08008541   Thumb Code   146  max14676.o(i.max14676_init)
    max14676_poweroff                        0x080085dd   Thumb Code    22  max14676.o(i.max14676_poweroff)
    postAndRxGo                              0x0800882d   Thumb Code    76  cyfisnp_isr.o(i.postAndRxGo)
    putBcdPacket                             0x08008893   Thumb Code    34  myusbd_custom_hid_if.o(i.putBcdPacket)
    sendRspViaIsrBuf                         0x080088b5   Thumb Code    62  cyfisnp_isr.o(i.sendRspViaIsrBuf)
    serveRfPkt                               0x08008901   Thumb Code   128  main.o(i.serveRfPkt)
    hex                                      0x08008abc   Data          17  main.o(.constdata)
    AHBPrescTable                            0x08008ad0   Data          16  system_stm32l4xx.o(.constdata)
    MSIRangeTable                            0x08008ae0   Data          48  system_stm32l4xx.o(.constdata)
    APBPrescTable                            0x08008b10   Data           8  system_stm32l4xx.o(.constdata)
    CYFISNP_BIND_CH_SEQ                      0x08008b68   Data           6  cyfisnp_protocol.o(.constdata)
    Region$$Table$$Base                      0x08008b70   Number         0  anon$$obj.o(Region$$Table)
    Region$$Table$$Limit                     0x08008b90   Number         0  anon$$obj.o(Region$$Table)
    myEEPROM                                 0x0800f800   Data        2048  cyfisnp_eeprom.o(.ARM.__AT_0x0800F800)
    nodeTableFlash1                          0x08010000   Data        2048  cyfisnp_flash_utility.o(.ARM.__AT_0x08010000)
    nodeTableFlash2                          0x08010800   Data        2048  cyfisnp_flash_utility.o(.ARM.__AT_0x08010800)
    gu8BindFlag                              0x20000000   Data           1  main.o(.data)
    gu8LedTime                               0x20000001   Data           1  main.o(.data)
    USB_OR_BLE                               0x20000002   Data           1  main.o(.data)
    bleStatus                                0x20000003   Data           1  main.o(.data)
    BTNStatus                                0x20000004   Data           1  main.o(.data)
    gu8BuzzBeep                              0x20000005   Data           1  main.o(.data)
    USB_StatusA                              0x20000006   Data           1  main.o(.data)
    ChagerStatusFlag                         0x20000007   Data           1  main.o(.data)
    CYFISNP_HeartBitTimer                    0x20000008   Data           4  main.o(.data)
    GRN_Led_BlinkTimer                       0x2000000c   Data           4  main.o(.data)
    bleDownTimer                             0x20000010   Data           4  main.o(.data)
    bleReBootTimer                           0x20000014   Data           4  main.o(.data)
    BTNDownTimer                             0x20000018   Data           4  main.o(.data)
    gu32LedFlashTimer                        0x2000001c   Data           4  main.o(.data)
    gu32BuzzBeepTimer                        0x20000020   Data           4  main.o(.data)
    pRxApiPkt1                               0x20000024   Data           4  main.o(.data)
    USBD_CustomHID_fops_FS                   0x20000054   Data          16  myusbd_custom_hid_if.o(.data)
    FS_Desc                                  0x20000070   Data          32  myusbd_desc.o(.data)
    USBD_LangIDDesc                          0x20000090   Data           4  myusbd_desc.o(.data)
    USBD_FS_DeviceDesc                       0x20000094   Data          18  myusbd_desc.o(.data)
    USBD_FS_BOSDesc                          0x200000a8   Data          12  myusbd_desc.o(.data)
    SystemCoreClock                          0x200000b8   Data           4  system_stm32l4xx.o(.data)
    uwTick                                   0x200000bc   Data           4  stm32l4xx_hal.o(.data)
    CYFISNP_Len                              0x200000c0   Data           1  cyfi_hal.o(.data)
    spiValue                                 0x200000c1   Data           1  cyfi_hal.o(.data)
    CYFISNP_Ptr                              0x200000c4   Data           4  cyfi_hal.o(.data)
    CYFISNP_XactConfig                       0x200000c9   Data           1  cyfi_radio.o(.data)
    CYFISNP_State                            0x200000ca   Data           1  cyfi_radio.o(.data)
    CYFISNP_RetryCount                       0x200000cc   Data           1  cyfi_radio.o(.data)
    CYFISNP_radioTxConfig                    0x200000ce   Data           1  cyfisnp_isr.o(.data)
    CYFISNP_IsrRxOverflow                    0x200000cf   Data           1  cyfisnp_isr.o(.data)
    CYFISNP_BindProgress                     0x200000d0   Data           1  cyfisnp_isr.o(.data)
    CYFISNP_RssiPolled                       0x200000d1   Data           1  cyfisnp_isr.o(.data)
    devIdMatch                               0x200000d2   Data           1  cyfisnp_isr.o(.data)
    rxStatusVal                              0x200000d3   Data           1  cyfisnp_isr.o(.data)
    CYFISNP_ePhyState                        0x200000d4   Data           1  cyfisnp_isr.o(.data)
    bitMask                                  0x200000d5   Data           1  cyfisnp_isr.o(.data)
    ivar                                     0x200000d6   Data           1  cyfisnp_isr.o(.data)
    bcdRspDly                                0x200000d7   Data           1  cyfisnp_isr.o(.data)
    temp                                     0x200000d8   Data           1  cyfisnp_isr.o(.data)
    CYFISNP_hubSeedMsb                       0x200000d9   Data           1  cyfisnp_isr.o(.data)
    CYFISNP_hubSeedLsb                       0x200000da   Data           1  cyfisnp_isr.o(.data)
    txRetVec                                 0x200000db   Data           1  cyfisnp_isr.o(.data)
    txRetState                               0x200000dc   Data           1  cyfisnp_isr.o(.data)
    CYFISNP_eProtState                       0x200000e1   Data           1  cyfisnp_protocol.o(.data)
    CYFISNP_bCurrentChannel                  0x200000e2   Data           1  cyfisnp_protocol.o(.data)
    CYFISNP_bCurrentChannel_store            0x200000e3   Data           1  cyfisnp_protocol.o(.data)
    CYFISNP_RssiAveQ4                        0x200000e4   Data           1  cyfisnp_protocol.o(.data)
    wallNodePresent                          0x200000e6   Data           1  cyfisnp_protocol.o(.data)
    bcdRetryDelay                            0x200000e7   Data           1  cyfisnp_protocol.o(.data)
    CYFISNP_BindChannel                      0x200000eb   Data           1  cyfisnp_protocol.o(.data)
    EEPROM_Pointer                           0x200000f0   Data           4  cyfisnp_protocol.o(.data)
    beaconTimer                              0x200000f4   Data           4  cyfisnp_protocol.o(.data)
    bcdTimer                                 0x200000f8   Data           4  cyfisnp_protocol.o(.data)
    bindChWaitTimer                          0x200000fc   Data           4  cyfisnp_protocol.o(.data)
    CYFISNP_SleepTimer_TickCount             0x20000100   Data           4  cyfisnp_timer.o(.data)
    length                                   0x20000108   Data           2  cyfisnp_flash_utility.o(.data)
    tbl_size                                 0x2000010a   Data           2  cyfisnp_flash_utility.o(.data)
    i                                        0x2000010c   Data           2  cyfisnp_flash_utility.o(.data)
    FirstPage                                0x20000110   Data           4  cyfisnp_flash_utility.o(.data)
    NbOfPages                                0x20000114   Data           4  cyfisnp_flash_utility.o(.data)
    BankNumber                               0x20000118   Data           4  cyfisnp_flash_utility.o(.data)
    Address                                  0x2000011c   Data           4  cyfisnp_flash_utility.o(.data)
    PAGEError                                0x20000120   Data           4  cyfisnp_flash_utility.o(.data)
    data32                                   0x20000124   Data           4  cyfisnp_flash_utility.o(.data)
    MemoryProgramStatus                      0x20000128   Data           4  cyfisnp_flash_utility.o(.data)
    DATA_32                                  0x2000012c   Data           4  cyfisnp_flash_utility.o(.data)
    pNodeTable                               0x20000130   Data           8  cyfisnp_flash_utility.o(.data)
    pNodeTableFlash                          0x20000138   Data           8  cyfisnp_flash_utility.o(.data)
    DATA_64                                  0x20000140   Data           8  cyfisnp_flash_utility.o(.data)
    USBD_CUSTOM_HID                          0x20000148   Data          60  myusbd_customhid.o(.data)
    max14676Exist                            0x200001c6   Data           1  max14676.o(.data)
    max14676Charge                           0x200001c7   Data           1  max14676.o(.data)
    max14676ChargeStat                       0x200001c8   Data           1  max14676.o(.data)
    hal_status                               0x200001c9   Data           1  max14676.o(.data)
    status                                   0x200001ca   Data           1  max14676.o(.data)
    max14676Voltage                          0x200001cc   Data           2  max14676.o(.data)
    max14676Voltage_old                      0x200001ce   Data           2  max14676.o(.data)
    RCC_CSR_reg                              0x200001d0   Data           4  max14676.o(.data)
    hrtc                                     0x200001d4   Data          36  rtc.o(.bss)
    hUsbDeviceFS                             0x200001f8   Data         548  usb_device.o(.bss)
    hpcd_USB_FS                              0x20000474   Data        1076  usbd_conf.o(.bss)
    hspi1                                    0x200008a8   Data         100  spi.o(.bss)
    hi2c1                                    0x2000090c   Data          76  i2c.o(.bss)
    hlptim1                                  0x20000958   Data          56  lptim.o(.bss)
    ga8TxBuffer                              0x20000990   Data          64  main.o(.bss)
    ga8RxBuffer                              0x200009d0   Data          64  main.o(.bss)
    ga8RfBuffer                              0x20000a10   Data          64  main.o(.bss)
    gRxApiStruct                             0x20000a50   Data        2307  main.o(.bss)
    gaHubMid                                 0x20001353   Data          16  main.o(.bss)
    hqspi                                    0x20001364   Data          76  quadspi.o(.bss)
    htim2                                    0x200013b0   Data          60  tim.o(.bss)
    RxBuffer                                 0x200013ec   Data          64  usart.o(.bss)
    RxDecBuffer                              0x2000142c   Data          64  usart.o(.bss)
    hlpuart1                                 0x2000146c   Data         112  usart.o(.bss)
    hiwdg                                    0x200014dc   Data          16  iwdg.o(.bss)
    TxHexBuffer                              0x200014ec   Data          64  myusbd_custom_hid_if.o(.bss)
    USBD_StrDesc                             0x20001554   Data         512  myusbd_desc.o(.bss)
    pFlash                                   0x20001754   Data          32  stm32l4xx_hal_flash.o(.bss)
    rxIsrBufPkt                              0x20001774   Data          18  cyfisnp_isr.o(.bss)
    txIsrBuf                                 0x20001786   Data          10  cyfisnp_isr.o(.bss)
    CYFISNP_af_BASE                          0x20001790   Data          39  cyfisnp_isr.o(.bss)
    CYFISNP_RxApiPkt                         0x200017b7   Data          18  cyfisnp_protocol.o(.bss)
    CYFISNP_BcdBufs                          0x200017c9   Data         515  cyfisnp_protocol.o(.bss)
    nodeTable1                               0x20001d0c   Data        2048  cyfisnp_flash_utility.o(.bss)
    nodeTable2                               0x2000250c   Data        2048  cyfisnp_flash_utility.o(.bss)
    __initial_sp                             0x20003120   Data           0  startup_stm32l433xx.o(STACK)



==============================================================================

Memory Map of the image

  Image Entry point : 0x0800018d

  Load Region LR_IROM1 (Base: 0x08000000, Size: 0x000111d4, Max: 0x00040000, ABSOLUTE, COMPRESSED[0x000110d0])

    Execution Region ER_IROM1 (Exec base: 0x08000000, Load base: 0x08000000, Size: 0x00011000, Max: 0x00040000, ABSOLUTE)

    Exec Addr    Load Addr    Size         Type   Attr      Idx    E Section Name        Object

    0x08000000   0x08000000   0x0000018c   Data   RO         1850    RESET               startup_stm32l433xx.o
    0x0800018c   0x0800018c   0x00000000   Code   RO         7897  * .ARM.Collect$$$$00000000  mc_w.l(entry.o)
    0x0800018c   0x0800018c   0x00000004   Code   RO         7910    .ARM.Collect$$$$00000001  mc_w.l(entry2.o)
    0x08000190   0x08000190   0x00000004   Code   RO         7913    .ARM.Collect$$$$00000004  mc_w.l(entry5.o)
    0x08000194   0x08000194   0x00000000   Code   RO         7915    .ARM.Collect$$$$00000008  mc_w.l(entry7b.o)
    0x08000194   0x08000194   0x00000000   Code   RO         7917    .ARM.Collect$$$$0000000A  mc_w.l(entry8b.o)
    0x08000194   0x08000194   0x00000008   Code   RO         7918    .ARM.Collect$$$$0000000B  mc_w.l(entry9a.o)
    0x0800019c   0x0800019c   0x00000000   Code   RO         7920    .ARM.Collect$$$$0000000D  mc_w.l(entry10a.o)
    0x0800019c   0x0800019c   0x00000000   Code   RO         7922    .ARM.Collect$$$$0000000F  mc_w.l(entry11a.o)
    0x0800019c   0x0800019c   0x00000004   Code   RO         7911    .ARM.Collect$$$$00002712  mc_w.l(entry2.o)
    0x080001a0   0x080001a0   0x00000024   Code   RO         1851    .text               startup_stm32l433xx.o
    0x080001c4   0x080001c4   0x00000068   Code   RO         7900    .text               mc_w.l(uldiv.o)
    0x0800022c   0x0800022c   0x00000024   Code   RO         7902    .text               mc_w.l(memcpya.o)
    0x08000250   0x08000250   0x00000024   Code   RO         7904    .text               mc_w.l(memseta.o)
    0x08000274   0x08000274   0x0000001a   Code   RO         7906    .text               mc_w.l(memcmp.o)
    0x0800028e   0x0800028e   0x0000001e   Code   RO         7924    .text               mc_w.l(llshl.o)
    0x080002ac   0x080002ac   0x00000020   Code   RO         7926    .text               mc_w.l(llushr.o)
    0x080002cc   0x080002cc   0x00000024   Code   RO         7928    .text               mc_w.l(init.o)
    0x080002f0   0x080002f0   0x00000056   Code   RO         7938    .text               mc_w.l(__dczerorl2.o)
    0x08000346   0x08000346   0x00000002   PAD
    0x08000348   0x08000348   0x00000338   Code   RO         1343    i.BCD_Cmd_Process   myusbd_custom_hid_if.o
    0x08000680   0x08000680   0x0000000c   Code   RO          681    i.BUZZ_Off          lptim.o
    0x0800068c   0x0800068c   0x00000010   Code   RO          682    i.BUZZ_On           lptim.o
    0x0800069c   0x0800069c   0x00000002   Code   RO         1193    i.BusFault_Handler  stm32l4xx_it.o
    0x0800069e   0x0800069e   0x00000004   Code   RO         1344    i.CUSTOM_HID_DeInit_FS  myusbd_custom_hid_if.o
    0x080006a2   0x080006a2   0x00000004   Code   RO         1345    i.CUSTOM_HID_Init_FS  myusbd_custom_hid_if.o
    0x080006a6   0x080006a6   0x00000002   PAD
    0x080006a8   0x080006a8   0x00000068   Code   RO         6870    i.CYFISNP_Abort     cyfi_radio.o
    0x08000710   0x08000710   0x00000038   Code   RO         7332    i.CYFISNP_BindStart  cyfisnp_protocol.o
    0x08000748   0x08000748   0x00000004   Code   RO         6684    i.CYFISNP_ByteWrite  cyfi_hal.o
    0x0800074c   0x0800074c   0x00000060   Code   RO         6872    i.CYFISNP_EndReceive  cyfi_radio.o
    0x080007ac   0x080007ac   0x0000000c   Code   RO         6873    i.CYFISNP_EndTransmit  cyfi_radio.o
    0x080007b8   0x080007b8   0x0000007c   Code   RO         6685    i.CYFISNP_FileRead  cyfi_hal.o
    0x08000834   0x08000834   0x00000048   Code   RO         6686    i.CYFISNP_FileWrite  cyfi_hal.o
    0x0800087c   0x0800087c   0x00000024   Code   RO         6874    i.CYFISNP_ForceState  cyfi_radio.o
    0x080008a0   0x080008a0   0x00000016   Code   RO         6876    i.CYFISNP_GetCrcSeed  cyfi_radio.o
    0x080008b6   0x080008b6   0x00000002   PAD
    0x080008b8   0x080008b8   0x00000038   Code   RO         6878    i.CYFISNP_GetFuses  cyfi_radio.o
    0x080008f0   0x080008f0   0x00000014   Code   RO         7334    i.CYFISNP_GetHubMid  cyfisnp_protocol.o
    0x08000904   0x08000904   0x00000072   Code   RO         7335    i.CYFISNP_GetHubNet  cyfisnp_protocol.o
    0x08000976   0x08000976   0x00000002   PAD
    0x08000978   0x08000978   0x00000030   Code   RO         6881    i.CYFISNP_GetReceiveState  cyfi_radio.o
    0x080009a8   0x080009a8   0x00000006   Code   RO         6882    i.CYFISNP_GetReceiveStatus  cyfi_radio.o
    0x080009ae   0x080009ae   0x00000006   Code   RO         6883    i.CYFISNP_GetRssi   cyfi_radio.o
    0x080009b4   0x080009b4   0x00000054   Code   RO         6886    i.CYFISNP_GetTransmitState  cyfi_radio.o
    0x08000a08   0x08000a08   0x0000000a   Code   RO         7234    i.CYFISNP_IRQ_Read  cyfisnp_isr.o
    0x08000a12   0x08000a12   0x00000002   PAD
    0x08000a14   0x08000a14   0x00000398   Code   RO         7235    i.CYFISNP_ISR_Interrupt  cyfisnp_isr.o
    0x08000dac   0x08000dac   0x00000070   Code   RO         6889    i.CYFISNP_Init      cyfi_radio.o
    0x08000e1c   0x08000e1c   0x00000026   Code   RO         6891    i.CYFISNP_PhyStart  cyfi_radio.o
    0x08000e42   0x08000e42   0x00000010   Code   RO         6892    i.CYFISNP_PhyStop   cyfi_radio.o
    0x08000e52   0x08000e52   0x0000002e   Code   RO         6687    i.CYFISNP_Read      cyfi_hal.o
    0x08000e80   0x08000e80   0x00000020   Code   RO         6688    i.CYFISNP_ReadStatusDebounced  cyfi_hal.o
    0x08000ea0   0x08000ea0   0x0000001a   Code   RO         6689    i.CYFISNP_Reset     cyfi_hal.o
    0x08000eba   0x08000eba   0x00000002   PAD
    0x08000ebc   0x08000ebc   0x00000034   Code   RO         6894    i.CYFISNP_RestartTransmit  cyfi_radio.o
    0x08000ef0   0x08000ef0   0x000000c8   Code   RO         7339    i.CYFISNP_Run       cyfisnp_protocol.o
    0x08000fb8   0x08000fb8   0x00000014   Code   RO         7236    i.CYFISNP_RxdataGet  cyfisnp_isr.o
    0x08000fcc   0x08000fcc   0x000000b4   Code   RO         7341    i.CYFISNP_RxdataPend  cyfisnp_protocol.o
    0x08001080   0x08001080   0x00000044   Code   RO         7237    i.CYFISNP_RxdataRelease  cyfisnp_isr.o
    0x080010c4   0x080010c4   0x00000020   Code   RO          590    i.CYFISNP_SPI_ByteWrite  spi.o
    0x080010e4   0x080010e4   0x00000010   Code   RO         6895    i.CYFISNP_SetChannel  cyfi_radio.o
    0x080010f4   0x080010f4   0x0000001a   Code   RO         6896    i.CYFISNP_SetConstSopPnCode  cyfi_radio.o
    0x0800110e   0x0800110e   0x00000018   Code   RO         6898    i.CYFISNP_SetCrcSeed  cyfi_radio.o
    0x08001126   0x08001126   0x00000008   Code   RO         6899    i.CYFISNP_SetFrameConfig  cyfi_radio.o
    0x0800112e   0x0800112e   0x00000002   PAD
    0x08001130   0x08001130   0x0000000c   Code   RO         6690    i.CYFISNP_SetLength  cyfi_hal.o
    0x0800113c   0x0800113c   0x00000026   Code   RO         6900    i.CYFISNP_SetPreambleCount  cyfi_radio.o
    0x08001162   0x08001162   0x00000002   PAD
    0x08001164   0x08001164   0x0000000c   Code   RO         6691    i.CYFISNP_SetPtr    cyfi_hal.o
    0x08001170   0x08001170   0x00000010   Code   RO         6902    i.CYFISNP_SetSopPnCode  cyfi_radio.o
    0x08001180   0x08001180   0x00000008   Code   RO         6903    i.CYFISNP_SetThreshold32  cyfi_radio.o
    0x08001188   0x08001188   0x00000008   Code   RO         6904    i.CYFISNP_SetThreshold64  cyfi_radio.o
    0x08001190   0x08001190   0x00000008   Code   RO         6905    i.CYFISNP_SetTxConfig  cyfi_radio.o
    0x08001198   0x08001198   0x00000014   Code   RO         6906    i.CYFISNP_SetXactConfig  cyfi_radio.o
    0x080011ac   0x080011ac   0x00000118   Code   RO         7344    i.CYFISNP_Start     cyfisnp_protocol.o
    0x080012c4   0x080012c4   0x00000024   Code   RO         6907    i.CYFISNP_StartReceive  cyfi_radio.o
    0x080012e8   0x080012e8   0x00000010   Code   RO         6908    i.CYFISNP_StartTransmit  cyfi_radio.o
    0x080012f8   0x080012f8   0x00000014   Code   RO         7345    i.CYFISNP_Stop      cyfisnp_protocol.o
    0x0800130c   0x0800130c   0x0000000c   Code   RO         7605    i.CYFISNP_TimeExpired  cyfisnp_timer.o
    0x08001318   0x08001318   0x00000004   Code   RO         7606    i.CYFISNP_TimeSet   cyfisnp_timer.o
    0x0800131c   0x0800131c   0x00000044   Code   RO         7346    i.CYFISNP_TxdataPend  cyfisnp_protocol.o
    0x08001360   0x08001360   0x00000060   Code   RO         7347    i.CYFISNP_TxdataPut  cyfisnp_protocol.o
    0x080013c0   0x080013c0   0x00000038   Code   RO         6692    i.CYFISNP_Write     cyfi_hal.o
    0x080013f8   0x080013f8   0x0000000e   Code   RO         7349    i.CYFISNP_devRecWrite  cyfisnp_protocol.o
    0x08001406   0x08001406   0x0000000e   Code   RO         7350    i.CYFISNP_netRecWrite  cyfisnp_protocol.o
    0x08001414   0x08001414   0x00000044   Code   RO         7351    i.CYFISNP_phyIdle   cyfisnp_protocol.o
    0x08001458   0x08001458   0x00000024   Code   RO         7352    i.CYFISNP_phyRxGo   cyfisnp_protocol.o
    0x0800147c   0x0800147c   0x00000028   Code   RO         7238    i.CYFISNP_startReceive  cyfisnp_isr.o
    0x080014a4   0x080014a4   0x00000020   Code   RO          749    i.Cy_DelayUS2       main.o
    0x080014c4   0x080014c4   0x00000002   Code   RO         1194    i.DebugMon_Handler  stm32l4xx_it.o
    0x080014c6   0x080014c6   0x00000080   Code   RO         1108    i.DecodeToDec       usart.o
    0x08001546   0x08001546   0x00000002   PAD
    0x08001548   0x08001548   0x00000034   Code   RO         1109    i.DecodeToHex       usart.o
    0x0800157c   0x0800157c   0x00000054   Code   RO         7784    i.DisableCHG        max14676.o
    0x080015d0   0x080015d0   0x00000006   Code   RO         1195    i.EXTI0_IRQHandler  stm32l4xx_it.o
    0x080015d6   0x080015d6   0x00000002   PAD
    0x080015d8   0x080015d8   0x00000018   Code   RO         1196    i.EXTI15_10_IRQHandler  stm32l4xx_it.o
    0x080015f0   0x080015f0   0x00000018   Code   RO         1197    i.EXTI3_IRQHandler  stm32l4xx_it.o
    0x08001608   0x08001608   0x00000018   Code   RO         1198    i.EXTI9_5_IRQHandler  stm32l4xx_it.o
    0x08001620   0x08001620   0x000000bc   Code   RO         7786    i.EnableCHG         max14676.o
    0x080016dc   0x080016dc   0x000000d8   Code   RO         1346    i.EnterBootMode     myusbd_custom_hid_if.o
    0x080017b4   0x080017b4   0x0000005c   Code   RO         6487    i.FLASH_FlushCaches  stm32l4xx_hal_flash_ex.o
    0x08001810   0x08001810   0x0000001c   Code   RO         6488    i.FLASH_MassErase   stm32l4xx_hal_flash_ex.o
    0x0800182c   0x0800182c   0x00000068   Code   RO         6489    i.FLASH_OB_PCROPConfig  stm32l4xx_hal_flash_ex.o
    0x08001894   0x08001894   0x000000f8   Code   RO         6490    i.FLASH_OB_UserConfig  stm32l4xx_hal_flash_ex.o
    0x0800198c   0x0800198c   0x00000030   Code   RO         6491    i.FLASH_PageErase   stm32l4xx_hal_flash_ex.o
    0x080019bc   0x080019bc   0x00000018   Code   RO         2073    i.FLASH_Program_DoubleWord  stm32l4xx_hal_flash.o
    0x080019d4   0x080019d4   0x00000024   Code   RO         2074    i.FLASH_Program_Fast  stm32l4xx_hal_flash.o
    0x080019f8   0x080019f8   0x000000cc   Code   RO         2075    i.FLASH_SetErrorCode  stm32l4xx_hal_flash.o
    0x08001ac4   0x08001ac4   0x00000088   Code   RO         2076    i.FLASH_WaitForLastOperation  stm32l4xx_hal_flash.o
    0x08001b4c   0x08001b4c   0x00000120   Code   RO         7650    i.Flash_Program     cyfisnp_flash_utility.o
    0x08001c6c   0x08001c6c   0x0000000c   Code   RO         1024    i.GRN_LED_Config    tim.o
    0x08001c78   0x08001c78   0x00000034   Code   RO         1025    i.GRN_LED_Dime      tim.o
    0x08001cac   0x08001cac   0x00000020   Code   RO         1026    i.GRN_LED_On        tim.o
    0x08001ccc   0x08001ccc   0x00000024   Code   RO         1027    i.GRN_LED_Toggle    tim.o
    0x08001cf0   0x08001cf0   0x0000003c   Code   RO         7651    i.GetPage           cyfisnp_flash_utility.o
    0x08001d2c   0x08001d2c   0x0000001c   Code   RO         1347    i.Get_USB_Out_Buffer  myusbd_custom_hid_if.o
    0x08001d48   0x08001d48   0x0000004a   Code   RO         6559    i.HAL_DMA_Abort_IT  stm32l4xx_hal_dma.o
    0x08001d92   0x08001d92   0x0000001c   Code   RO         2188    i.HAL_Delay         stm32l4xx_hal.o
    0x08001dae   0x08001dae   0x00000002   PAD
    0x08001db0   0x08001db0   0x000000e2   Code   RO         6492    i.HAL_FLASHEx_Erase  stm32l4xx_hal_flash_ex.o
    0x08001e92   0x08001e92   0x00000002   PAD
    0x08001e94   0x08001e94   0x0000008c   Code   RO         6494    i.HAL_FLASHEx_OBGetConfig  stm32l4xx_hal_flash_ex.o
    0x08001f20   0x08001f20   0x00000116   Code   RO         6495    i.HAL_FLASHEx_OBProgram  stm32l4xx_hal_flash_ex.o
    0x08002036   0x08002036   0x00000002   PAD
    0x08002038   0x08002038   0x0000000c   Code   RO         2078    i.HAL_FLASH_GetError  stm32l4xx_hal_flash.o
    0x08002044   0x08002044   0x00000014   Code   RO         2080    i.HAL_FLASH_Lock    stm32l4xx_hal_flash.o
    0x08002058   0x08002058   0x00000018   Code   RO         2081    i.HAL_FLASH_OB_Launch  stm32l4xx_hal_flash.o
    0x08002070   0x08002070   0x00000014   Code   RO         2082    i.HAL_FLASH_OB_Lock  stm32l4xx_hal_flash.o
    0x08002084   0x08002084   0x00000024   Code   RO         2083    i.HAL_FLASH_OB_Unlock  stm32l4xx_hal_flash.o
    0x080020a8   0x080020a8   0x000000aa   Code   RO         2085    i.HAL_FLASH_Program  stm32l4xx_hal_flash.o
    0x08002152   0x08002152   0x00000002   PAD
    0x08002154   0x08002154   0x00000024   Code   RO         2087    i.HAL_FLASH_Unlock  stm32l4xx_hal_flash.o
    0x08002178   0x08002178   0x00000004   Code   RO          750    i.HAL_GPIO_EXTI_Callback  main.o
    0x0800217c   0x0800217c   0x00000018   Code   RO         5063    i.HAL_GPIO_EXTI_IRQHandler  stm32l4xx_hal_gpio.o
    0x08002194   0x08002194   0x00000054   Code   RO          751    i.HAL_GPIO_EXTI_myCallback10  main.o
    0x080021e8   0x080021e8   0x00000030   Code   RO          752    i.HAL_GPIO_EXTI_myCallback3  main.o
    0x08002218   0x08002218   0x00000064   Code   RO          753    i.HAL_GPIO_EXTI_myCallback9  main.o
    0x0800227c   0x0800227c   0x00000014   Code   RO          754    i.HAL_GPIO_EXTI_myIRQHandler10  main.o
    0x08002290   0x08002290   0x00000014   Code   RO          755    i.HAL_GPIO_EXTI_myIRQHandler3  main.o
    0x080022a4   0x080022a4   0x00000014   Code   RO          756    i.HAL_GPIO_EXTI_myIRQHandler9  main.o
    0x080022b8   0x080022b8   0x0000018e   Code   RO         5064    i.HAL_GPIO_Init     stm32l4xx_hal_gpio.o
    0x08002446   0x08002446   0x0000000a   Code   RO         5066    i.HAL_GPIO_ReadPin  stm32l4xx_hal_gpio.o
    0x08002450   0x08002450   0x0000000a   Code   RO         5068    i.HAL_GPIO_WritePin  stm32l4xx_hal_gpio.o
    0x0800245a   0x0800245a   0x00000002   PAD
    0x0800245c   0x0800245c   0x0000000c   Code   RO         2192    i.HAL_GetTick       stm32l4xx_hal.o
    0x08002468   0x08002468   0x00000056   Code   RO         5492    i.HAL_I2CEx_ConfigAnalogFilter  stm32l4xx_hal_i2c_ex.o
    0x080024be   0x080024be   0x00000052   Code   RO         5493    i.HAL_I2CEx_ConfigDigitalFilter  stm32l4xx_hal_i2c_ex.o
    0x08002510   0x08002510   0x000000b8   Code   RO         2779    i.HAL_I2C_Init      stm32l4xx_hal_i2c.o
    0x080025c8   0x080025c8   0x00000136   Code   RO         2785    i.HAL_I2C_Master_Receive  stm32l4xx_hal_i2c.o
    0x080026fe   0x080026fe   0x00000002   PAD
    0x08002700   0x08002700   0x0000012e   Code   RO         2790    i.HAL_I2C_Master_Transmit  stm32l4xx_hal_i2c.o
    0x0800282e   0x0800282e   0x00000002   PAD
    0x08002830   0x08002830   0x0000004c   Code   RO          639    i.HAL_I2C_MspInit   i2c.o
    0x0800287c   0x0800287c   0x0000005e   Code   RO         6652    i.HAL_IWDG_Init     stm32l4xx_hal_iwdg.o
    0x080028da   0x080028da   0x0000000c   Code   RO         6653    i.HAL_IWDG_Refresh  stm32l4xx_hal_iwdg.o
    0x080028e6   0x080028e6   0x00000002   PAD
    0x080028e8   0x080028e8   0x00000010   Code   RO         2196    i.HAL_IncTick       stm32l4xx_hal.o
    0x080028f8   0x080028f8   0x00000016   Code   RO         2197    i.HAL_Init          stm32l4xx_hal.o
    0x0800290e   0x0800290e   0x00000002   PAD
    0x08002910   0x08002910   0x00000028   Code   RO         2198    i.HAL_InitTick      stm32l4xx_hal.o
    0x08002938   0x08002938   0x000000a4   Code   RO         4604    i.HAL_LPTIM_Init    stm32l4xx_hal_lptim.o
    0x080029dc   0x080029dc   0x00000048   Code   RO          685    i.HAL_LPTIM_MspInit  lptim.o
    0x08002a24   0x08002a24   0x00000038   Code   RO         4611    i.HAL_LPTIM_PWM_Start  stm32l4xx_hal_lptim.o
    0x08002a5c   0x08002a5c   0x0000001a   Code   RO         4613    i.HAL_LPTIM_PWM_Stop  stm32l4xx_hal_lptim.o
    0x08002a76   0x08002a76   0x00000002   PAD
    0x08002a78   0x08002a78   0x00000080   Code   RO          958    i.HAL_MspInit       stm32l4xx_hal_msp.o
    0x08002af8   0x08002af8   0x00000016   Code   RO         2396    i.HAL_NVIC_DisableIRQ  stm32l4xx_hal_cortex.o
    0x08002b0e   0x08002b0e   0x00000016   Code   RO         2397    i.HAL_NVIC_EnableIRQ  stm32l4xx_hal_cortex.o
    0x08002b24   0x08002b24   0x00000040   Code   RO         2403    i.HAL_NVIC_SetPriority  stm32l4xx_hal_cortex.o
    0x08002b64   0x08002b64   0x00000024   Code   RO         2404    i.HAL_NVIC_SetPriorityGrouping  stm32l4xx_hal_cortex.o
    0x08002b88   0x08002b88   0x0000001e   Code   RO         3196    i.HAL_PCDEx_ActivateBCD  stm32l4xx_hal_pcd_ex.o
    0x08002ba6   0x08002ba6   0x00000024   Code   RO         3197    i.HAL_PCDEx_ActivateLPM  stm32l4xx_hal_pcd_ex.o
    0x08002bca   0x08002bca   0x00000002   PAD
    0x08002bcc   0x08002bcc   0x00000044   Code   RO          371    i.HAL_PCDEx_LPM_Callback  usbd_conf.o
    0x08002c10   0x08002c10   0x00000034   Code   RO         3203    i.HAL_PCDEx_PMAConfig  stm32l4xx_hal_pcd_ex.o
    0x08002c44   0x08002c44   0x0000000e   Code   RO          374    i.HAL_PCD_DataInStageCallback  usbd_conf.o
    0x08002c52   0x08002c52   0x00000010   Code   RO          375    i.HAL_PCD_DataOutStageCallback  usbd_conf.o
    0x08002c62   0x08002c62   0x00000040   Code   RO         1867    i.HAL_PCD_EP_Close  stm32l4xx_hal_pcd.o
    0x08002ca2   0x08002ca2   0x00000048   Code   RO         1868    i.HAL_PCD_EP_ClrStall  stm32l4xx_hal_pcd.o
    0x08002cea   0x08002cea   0x00000044   Code   RO         1871    i.HAL_PCD_EP_Open   stm32l4xx_hal_pcd.o
    0x08002d2e   0x08002d2e   0x00000030   Code   RO         1872    i.HAL_PCD_EP_Receive  stm32l4xx_hal_pcd.o
    0x08002d5e   0x08002d5e   0x00000058   Code   RO         1873    i.HAL_PCD_EP_SetStall  stm32l4xx_hal_pcd.o
    0x08002db6   0x08002db6   0x0000002c   Code   RO         1874    i.HAL_PCD_EP_Transmit  stm32l4xx_hal_pcd.o
    0x08002de2   0x08002de2   0x0000019e   Code   RO         1876    i.HAL_PCD_IRQHandler  stm32l4xx_hal_pcd.o
    0x08002f80   0x08002f80   0x000000d8   Code   RO         1879    i.HAL_PCD_Init      stm32l4xx_hal_pcd.o
    0x08003058   0x08003058   0x0000005c   Code   RO          380    i.HAL_PCD_MspInit   usbd_conf.o
    0x080030b4   0x080030b4   0x0000001a   Code   RO          381    i.HAL_PCD_ResetCallback  usbd_conf.o
    0x080030ce   0x080030ce   0x00000002   PAD
    0x080030d0   0x080030d0   0x00000028   Code   RO          382    i.HAL_PCD_ResumeCallback  usbd_conf.o
    0x080030f8   0x080030f8   0x00000008   Code   RO          383    i.HAL_PCD_SOFCallback  usbd_conf.o
    0x08003100   0x08003100   0x00000028   Code   RO         1885    i.HAL_PCD_SetAddress  stm32l4xx_hal_pcd.o
    0x08003128   0x08003128   0x0000000e   Code   RO          384    i.HAL_PCD_SetupStageCallback  usbd_conf.o
    0x08003136   0x08003136   0x0000002a   Code   RO         1887    i.HAL_PCD_Start     stm32l4xx_hal_pcd.o
    0x08003160   0x08003160   0x00000024   Code   RO          385    i.HAL_PCD_SuspendCallback  usbd_conf.o
    0x08003184   0x08003184   0x00000064   Code   RO         4846    i.HAL_PWREx_ControlVoltageScaling  stm32l4xx_hal_pwr_ex.o
    0x080031e8   0x080031e8   0x00000010   Code   RO         4868    i.HAL_PWREx_EnableVddUSB  stm32l4xx_hal_pwr_ex.o
    0x080031f8   0x080031f8   0x00000010   Code   RO         4873    i.HAL_PWREx_GetVoltageRange  stm32l4xx_hal_pwr_ex.o
    0x08003208   0x08003208   0x000000d8   Code   RO         4346    i.HAL_QSPI_Init     stm32l4xx_hal_qspi.o
    0x080032e0   0x080032e0   0x00000058   Code   RO          983    i.HAL_QSPI_MspInit  quadspi.o
    0x08003338   0x08003338   0x00000010   Code   RO         4174    i.HAL_RCCEx_EnableMSIPLLMode  stm32l4xx_hal_rcc_ex.o
    0x08003348   0x08003348   0x000002ee   Code   RO         4180    i.HAL_RCCEx_PeriphCLKConfig  stm32l4xx_hal_rcc_ex.o
    0x08003636   0x08003636   0x00000002   PAD
    0x08003638   0x08003638   0x00000174   Code   RO         5547    i.HAL_RCC_ClockConfig  stm32l4xx_hal_rcc.o
    0x080037ac   0x080037ac   0x0000000c   Code   RO         5551    i.HAL_RCC_GetHCLKFreq  stm32l4xx_hal_rcc.o
    0x080037b8   0x080037b8   0x00000020   Code   RO         5553    i.HAL_RCC_GetPCLK1Freq  stm32l4xx_hal_rcc.o
    0x080037d8   0x080037d8   0x00000020   Code   RO         5554    i.HAL_RCC_GetPCLK2Freq  stm32l4xx_hal_rcc.o
    0x080037f8   0x080037f8   0x000000c4   Code   RO         5555    i.HAL_RCC_GetSysClockFreq  stm32l4xx_hal_rcc.o
    0x080038bc   0x080038bc   0x000004b0   Code   RO         5558    i.HAL_RCC_OscConfig  stm32l4xx_hal_rcc.o
    0x08003d6c   0x08003d6c   0x0000000a   Code   RO         3727    i.HAL_RTCEx_BKUPRead  stm32l4xx_hal_rtc_ex.o
    0x08003d76   0x08003d76   0x0000000a   Code   RO         3728    i.HAL_RTCEx_BKUPWrite  stm32l4xx_hal_rtc_ex.o
    0x08003d80   0x08003d80   0x000000b8   Code   RO         3597    i.HAL_RTC_Init      stm32l4xx_hal_rtc.o
    0x08003e38   0x08003e38   0x00000020   Code   RO            5    i.HAL_RTC_MspInit   rtc.o
    0x08003e58   0x08003e58   0x000000d8   Code   RO         3603    i.HAL_RTC_SetDate   stm32l4xx_hal_rtc.o
    0x08003f30   0x08003f30   0x000000f8   Code   RO         3604    i.HAL_RTC_SetTime   stm32l4xx_hal_rtc.o
    0x08004028   0x08004028   0x00000036   Code   RO         3605    i.HAL_RTC_WaitForSynchro  stm32l4xx_hal_rtc.o
    0x0800405e   0x0800405e   0x000000ac   Code   RO         3273    i.HAL_SPI_Init      stm32l4xx_hal_spi.o
    0x0800410a   0x0800410a   0x00000002   PAD
    0x0800410c   0x0800410c   0x0000004c   Code   RO          592    i.HAL_SPI_MspInit   spi.o
    0x08004158   0x08004158   0x00000244   Code   RO         3282    i.HAL_SPI_TransmitReceive  stm32l4xx_hal_spi.o
    0x0800439c   0x0800439c   0x00000018   Code   RO         2406    i.HAL_SYSTICK_CLKSourceConfig  stm32l4xx_hal_cortex.o
    0x080043b4   0x080043b4   0x00000002   Code   RO         2407    i.HAL_SYSTICK_Callback  stm32l4xx_hal_cortex.o
    0x080043b6   0x080043b6   0x00000028   Code   RO         2408    i.HAL_SYSTICK_Config  stm32l4xx_hal_cortex.o
    0x080043de   0x080043de   0x00000008   Code   RO         2409    i.HAL_SYSTICK_IRQHandler  stm32l4xx_hal_cortex.o
    0x080043e6   0x080043e6   0x00000002   PAD
    0x080043e8   0x080043e8   0x0000004c   Code   RO         2536    i.HAL_TIMEx_MasterConfigSynchronization  stm32l4xx_hal_tim_ex.o
    0x08004434   0x08004434   0x00000036   Code   RO         5817    i.HAL_TIM_Base_Init  stm32l4xx_hal_tim.o
    0x0800446a   0x0800446a   0x00000002   PAD
    0x0800446c   0x0800446c   0x00000024   Code   RO         1029    i.HAL_TIM_Base_MspInit  tim.o
    0x08004490   0x08004490   0x000000fc   Code   RO         5826    i.HAL_TIM_ConfigClockSource  stm32l4xx_hal_tim.o
    0x0800458c   0x0800458c   0x0000005a   Code   RO         1030    i.HAL_TIM_MspPostInit  tim.o
    0x080045e6   0x080045e6   0x00000128   Code   RO         5883    i.HAL_TIM_PWM_ConfigChannel  stm32l4xx_hal_tim.o
    0x0800470e   0x0800470e   0x00000036   Code   RO         5886    i.HAL_TIM_PWM_Init  stm32l4xx_hal_tim.o
    0x08004744   0x08004744   0x00000002   Code   RO         5888    i.HAL_TIM_PWM_MspInit  stm32l4xx_hal_tim.o
    0x08004746   0x08004746   0x00000002   PAD
    0x08004748   0x08004748   0x00000044   Code   RO         5890    i.HAL_TIM_PWM_Start  stm32l4xx_hal_tim.o
    0x0800478c   0x0800478c   0x00000068   Code   RO         5893    i.HAL_TIM_PWM_Stop  stm32l4xx_hal_tim.o
    0x080047f4   0x080047f4   0x00000002   Code   RO         5766    i.HAL_UARTEx_WakeupCallback  stm32l4xx_hal_uart_ex.o
    0x080047f6   0x080047f6   0x00000002   PAD
    0x080047f8   0x080047f8   0x00000034   Code   RO         1110    i.HAL_UART_ErrorCallback  usart.o
    0x0800482c   0x0800482c   0x0000019c   Code   RO         5152    i.HAL_UART_IRQHandler  stm32l4xx_hal_uart.o
    0x080049c8   0x080049c8   0x0000006a   Code   RO         5153    i.HAL_UART_Init     stm32l4xx_hal_uart.o
    0x08004a32   0x08004a32   0x00000002   PAD
    0x08004a34   0x08004a34   0x00000058   Code   RO         1112    i.HAL_UART_MspInit  usart.o
    0x08004a8c   0x08004a8c   0x0000008c   Code   RO         5158    i.HAL_UART_Receive_IT  stm32l4xx_hal_uart.o
    0x08004b18   0x08004b18   0x00000088   Code   RO         1113    i.HAL_UART_RxCpltCallback  usart.o
    0x08004ba0   0x08004ba0   0x000000b4   Code   RO         5161    i.HAL_UART_Transmit  stm32l4xx_hal_uart.o
    0x08004c54   0x08004c54   0x0000003e   Code   RO         5163    i.HAL_UART_Transmit_IT  stm32l4xx_hal_uart.o
    0x08004c92   0x08004c92   0x00000002   Code   RO         5164    i.HAL_UART_TxCpltCallback  stm32l4xx_hal_uart.o
    0x08004c94   0x08004c94   0x00000002   Code   RO         1199    i.HardFault_Handler  stm32l4xx_it.o
    0x08004c96   0x08004c96   0x00000022   Code   RO         2821    i.I2C_Flush_TXDR    stm32l4xx_hal_i2c.o
    0x08004cb8   0x08004cb8   0x0000007c   Code   RO         2829    i.I2C_IsAcknowledgeFailed  stm32l4xx_hal_i2c.o
    0x08004d34   0x08004d34   0x00000024   Code   RO         2836    i.I2C_TransferConfig  stm32l4xx_hal_i2c.o
    0x08004d58   0x08004d58   0x00000052   Code   RO         2837    i.I2C_WaitOnFlagUntilTimeout  stm32l4xx_hal_i2c.o
    0x08004daa   0x08004daa   0x00000002   PAD
    0x08004dac   0x08004dac   0x00000080   Code   RO         2838    i.I2C_WaitOnRXNEFlagUntilTimeout  stm32l4xx_hal_i2c.o
    0x08004e2c   0x08004e2c   0x0000004e   Code   RO         2839    i.I2C_WaitOnSTOPFlagUntilTimeout  stm32l4xx_hal_i2c.o
    0x08004e7a   0x08004e7a   0x00000052   Code   RO         2840    i.I2C_WaitOnTXISFlagUntilTimeout  stm32l4xx_hal_i2c.o
    0x08004ecc   0x08004ecc   0x0000000a   Code   RO         6693    i.IsCYFISNP_InterruptActive  cyfi_hal.o
    0x08004ed6   0x08004ed6   0x00000002   PAD
    0x08004ed8   0x08004ed8   0x0000000c   Code   RO         1200    i.LPUART1_IRQHandler  stm32l4xx_it.o
    0x08004ee4   0x08004ee4   0x0000021e   Code   RO          338    i.MX_GPIO_Init      gpio.o
    0x08005102   0x08005102   0x00000002   PAD
    0x08005104   0x08005104   0x00000078   Code   RO          640    i.MX_I2C1_Init      i2c.o
    0x0800517c   0x0800517c   0x00000044   Code   RO         1307    i.MX_IWDG_Init      iwdg.o
    0x080051c0   0x080051c0   0x0000000c   Code   RO         1308    i.MX_IWDG_RESET     iwdg.o
    0x080051cc   0x080051cc   0x00000050   Code   RO          686    i.MX_LPTIM1_Init    lptim.o
    0x0800521c   0x0800521c   0x0000005c   Code   RO         1114    i.MX_LPUART1_UART_Init  usart.o
    0x08005278   0x08005278   0x00000050   Code   RO          984    i.MX_QUADSPI_Init   quadspi.o
    0x080052c8   0x080052c8   0x000000ac   Code   RO            6    i.MX_RTC_Init       rtc.o
    0x08005374   0x08005374   0x00000064   Code   RO          593    i.MX_SPI1_Init      spi.o
    0x080053d8   0x080053d8   0x00000064   Code   RO         1031    i.MX_TIM2_Config    tim.o
    0x0800543c   0x0800543c   0x000000d4   Code   RO         1032    i.MX_TIM2_Init      tim.o
    0x08005510   0x08005510   0x00000044   Code   RO          183    i.MX_USB_DEVICE_Init  usb_device.o
    0x08005554   0x08005554   0x00000002   Code   RO         1201    i.MemManage_Handler  stm32l4xx_it.o
    0x08005556   0x08005556   0x00000002   Code   RO         1202    i.NMI_Handler       stm32l4xx_it.o
    0x08005558   0x08005558   0x00000020   Code   RO         2410    i.NVIC_SetPriority  stm32l4xx_hal_cortex.o
    0x08005578   0x08005578   0x00000024   Code   RO          757    i.NVIC_SystemReset  main.o
    0x0800559c   0x0800559c   0x000001d0   Code   RO         7652    i.Node_Table_Init   cyfisnp_flash_utility.o
    0x0800576c   0x0800576c   0x0000032e   Code   RO         1890    i.PCD_EP_ISR_Handler  stm32l4xx_hal_pcd.o
    0x08005a9a   0x08005a9a   0x00000002   PAD
    0x08005a9c   0x08005a9c   0x00000078   Code   RO          339    i.PROG_Pin_mode     gpio.o
    0x08005b14   0x08005b14   0x00000002   Code   RO         1203    i.PendSV_Handler    stm32l4xx_it.o
    0x08005b16   0x08005b16   0x00000002   PAD
    0x08005b18   0x08005b18   0x000000ec   Code   RO         1348    i.PowerOnPacket_process  myusbd_custom_hid_if.o
    0x08005c04   0x08005c04   0x00000048   Code   RO         4371    i.QSPI_WaitFlagStateUntilTimeout  stm32l4xx_hal_qspi.o
    0x08005c4c   0x08005c4c   0x0000012c   Code   RO         4183    i.RCCEx_PLLSAI1_Config  stm32l4xx_hal_rcc_ex.o
    0x08005d78   0x08005d78   0x0000007c   Code   RO         5559    i.RCC_SetFlashLatencyFromMSIRange  stm32l4xx_hal_rcc.o
    0x08005df4   0x08005df4   0x00000028   Code   RO         1033    i.RED_LED_Toggle    tim.o
    0x08005e1c   0x08005e1c   0x00000012   Code   RO         3606    i.RTC_Bcd2ToByte    stm32l4xx_hal_rtc.o
    0x08005e2e   0x08005e2e   0x00000016   Code   RO         3607    i.RTC_ByteToBcd2    stm32l4xx_hal_rtc.o
    0x08005e44   0x08005e44   0x0000003a   Code   RO         3608    i.RTC_EnterInitMode  stm32l4xx_hal_rtc.o
    0x08005e7e   0x08005e7e   0x00000002   PAD
    0x08005e80   0x08005e80   0x00000040   Code   RO         7787    i.ReStart_Process   max14676.o
    0x08005ec0   0x08005ec0   0x00000050   Code   RO          758    i.RfDataCheck       main.o
    0x08005f10   0x08005f10   0x00000048   Code   RO         3311    i.SPI_EndRxTxTransaction  stm32l4xx_hal_spi.o
    0x08005f58   0x08005f58   0x0000009e   Code   RO         3316    i.SPI_WaitFifoStateUntilTimeout  stm32l4xx_hal_spi.o
    0x08005ff6   0x08005ff6   0x00000094   Code   RO         3317    i.SPI_WaitFlagStateUntilTimeout  stm32l4xx_hal_spi.o
    0x0800608a   0x0800608a   0x00000002   Code   RO         1204    i.SVC_Handler       stm32l4xx_it.o
    0x0800608c   0x0800608c   0x00000054   Code   RO         1349    i.SendToHost        myusbd_custom_hid_if.o
    0x080060e0   0x080060e0   0x00000044   Code   RO         1350    i.SendToHostBLEForNodeInfo  myusbd_custom_hid_if.o
    0x08006124   0x08006124   0x0000003c   Code   RO         1351    i.SendToHostBLEUpload  myusbd_custom_hid_if.o
    0x08006160   0x08006160   0x00000014   Code   RO         1352    i.SendToHostUSB     myusbd_custom_hid_if.o
    0x08006174   0x08006174   0x00000094   Code   RO         1205    i.SysTick_Handler   stm32l4xx_it.o
    0x08006208   0x08006208   0x000000c8   Code   RO          759    i.SystemClock_Config  main.o
    0x080062d0   0x080062d0   0x00000044   Code   RO         1814    i.SystemInit        system_stm32l4xx.o
    0x08006314   0x08006314   0x00000064   Code   RO         5901    i.TIM_Base_SetConfig  stm32l4xx_hal_tim.o
    0x08006378   0x08006378   0x00000016   Code   RO         5902    i.TIM_CCxChannelCmd  stm32l4xx_hal_tim.o
    0x0800638e   0x0800638e   0x00000014   Code   RO         5908    i.TIM_ETR_SetConfig  stm32l4xx_hal_tim.o
    0x080063a2   0x080063a2   0x00000010   Code   RO         5909    i.TIM_ITRx_SetConfig  stm32l4xx_hal_tim.o
    0x080063b2   0x080063b2   0x00000002   PAD
    0x080063b4   0x080063b4   0x00000078   Code   RO         5910    i.TIM_OC1_SetConfig  stm32l4xx_hal_tim.o
    0x0800642c   0x0800642c   0x00000078   Code   RO         5911    i.TIM_OC2_SetConfig  stm32l4xx_hal_tim.o
    0x080064a4   0x080064a4   0x00000074   Code   RO         5912    i.TIM_OC3_SetConfig  stm32l4xx_hal_tim.o
    0x08006518   0x08006518   0x00000060   Code   RO         5913    i.TIM_OC4_SetConfig  stm32l4xx_hal_tim.o
    0x08006578   0x08006578   0x0000005c   Code   RO         5914    i.TIM_OC5_SetConfig  stm32l4xx_hal_tim.o
    0x080065d4   0x080065d4   0x0000005c   Code   RO         5915    i.TIM_OC6_SetConfig  stm32l4xx_hal_tim.o
    0x08006630   0x08006630   0x00000022   Code   RO         5917    i.TIM_TI1_ConfigInputStage  stm32l4xx_hal_tim.o
    0x08006652   0x08006652   0x00000024   Code   RO         5919    i.TIM_TI2_ConfigInputStage  stm32l4xx_hal_tim.o
    0x08006676   0x08006676   0x00000002   PAD
    0x08006678   0x08006678   0x00000124   Code   RO         7653    i.Table_Program     cyfisnp_flash_utility.o
    0x0800679c   0x0800679c   0x000000c8   Code   RO         5166    i.UART_AdvFeatureConfig  stm32l4xx_hal_uart.o
    0x08006864   0x08006864   0x0000005c   Code   RO         5167    i.UART_CheckIdleState  stm32l4xx_hal_uart.o
    0x080068c0   0x080068c0   0x00000014   Code   RO         5168    i.UART_DMAAbortOnError  stm32l4xx_hal_uart.o
    0x080068d4   0x080068d4   0x0000001c   Code   RO         5178    i.UART_EndRxTransfer  stm32l4xx_hal_uart.o
    0x080068f0   0x080068f0   0x00000076   Code   RO         5180    i.UART_Receive_IT   stm32l4xx_hal_uart.o
    0x08006966   0x08006966   0x00000002   PAD
    0x08006968   0x08006968   0x00000030   Code   RO         1115    i.UART_Send         usart.o
    0x08006998   0x08006998   0x00000034   Code   RO         1116    i.UART_SendForNodeInfo  usart.o
    0x080069cc   0x080069cc   0x00000034   Code   RO         1117    i.UART_SendUpload   usart.o
    0x08006a00   0x08006a00   0x00000250   Code   RO         5181    i.UART_SetConfig    stm32l4xx_hal_uart.o
    0x08006c50   0x08006c50   0x00000064   Code   RO         5182    i.UART_WaitOnFlagUntilTimeout  stm32l4xx_hal_uart.o
    0x08006cb4   0x08006cb4   0x0000000e   Code   RO         7707    i.USBD_CUSTOM_HID_DataIn  myusbd_customhid.o
    0x08006cc2   0x08006cc2   0x00000020   Code   RO         7708    i.USBD_CUSTOM_HID_DataOut  myusbd_customhid.o
    0x08006ce2   0x08006ce2   0x00000032   Code   RO         7709    i.USBD_CUSTOM_HID_DeInit  myusbd_customhid.o
    0x08006d14   0x08006d14   0x00000020   Code   RO         7710    i.USBD_CUSTOM_HID_EP0_RxReady  myusbd_customhid.o
    0x08006d34   0x08006d34   0x0000000c   Code   RO         7711    i.USBD_CUSTOM_HID_GetCfgDesc  myusbd_customhid.o
    0x08006d40   0x08006d40   0x0000000c   Code   RO         7712    i.USBD_CUSTOM_HID_GetDeviceQualifierDesc  myusbd_customhid.o
    0x08006d4c   0x08006d4c   0x0000004c   Code   RO         7713    i.USBD_CUSTOM_HID_Init  myusbd_customhid.o
    0x08006d98   0x08006d98   0x00000010   Code   RO         7714    i.USBD_CUSTOM_HID_RegisterInterface  myusbd_customhid.o
    0x08006da8   0x08006da8   0x00000040   Code   RO         7715    i.USBD_CUSTOM_HID_SendReport  myusbd_customhid.o
    0x08006de8   0x08006de8   0x000000b8   Code   RO         7716    i.USBD_CUSTOM_HID_Setup  myusbd_customhid.o
    0x08006ea0   0x08006ea0   0x0000000e   Code   RO         1550    i.USBD_ClrClassConfig  usbd_core.o
    0x08006eae   0x08006eae   0x00000010   Code   RO         1688    i.USBD_CtlContinueRx  usbd_ioreq.o
    0x08006ebe   0x08006ebe   0x00000010   Code   RO         1689    i.USBD_CtlContinueSendData  usbd_ioreq.o
    0x08006ece   0x08006ece   0x00000016   Code   RO         1748    i.USBD_CtlError     usbd_ctlreq.o
    0x08006ee4   0x08006ee4   0x0000001e   Code   RO         1690    i.USBD_CtlPrepareRx  usbd_ioreq.o
    0x08006f02   0x08006f02   0x00000016   Code   RO         1691    i.USBD_CtlReceiveStatus  usbd_ioreq.o
    0x08006f18   0x08006f18   0x0000001a   Code   RO         1692    i.USBD_CtlSendData  usbd_ioreq.o
    0x08006f32   0x08006f32   0x00000016   Code   RO         1693    i.USBD_CtlSendStatus  usbd_ioreq.o
    0x08006f48   0x08006f48   0x00000028   Code   RO         1475    i.USBD_FS_ConfigStrDescriptor  myusbd_desc.o
    0x08006f70   0x08006f70   0x0000000c   Code   RO         1476    i.USBD_FS_DeviceDescriptor  myusbd_desc.o
    0x08006f7c   0x08006f7c   0x0000002c   Code   RO         1477    i.USBD_FS_InterfaceStrDescriptor  myusbd_desc.o
    0x08006fa8   0x08006fa8   0x0000000c   Code   RO         1478    i.USBD_FS_LangIDStrDescriptor  myusbd_desc.o
    0x08006fb4   0x08006fb4   0x00000024   Code   RO         1479    i.USBD_FS_ManufacturerStrDescriptor  myusbd_desc.o
    0x08006fd8   0x08006fd8   0x00000020   Code   RO         1480    i.USBD_FS_ProductStrDescriptor  myusbd_desc.o
    0x08006ff8   0x08006ff8   0x00000018   Code   RO         1481    i.USBD_FS_SerialStrDescriptor  myusbd_desc.o
    0x08007010   0x08007010   0x0000000c   Code   RO         1482    i.USBD_FS_USR_BOSDescriptor  myusbd_desc.o
    0x0800701c   0x0800701c   0x00000108   Code   RO         1749    i.USBD_GetDescriptor  usbd_ctlreq.o
    0x08007124   0x08007124   0x00000046   Code   RO         1750    i.USBD_GetString    usbd_ctlreq.o
    0x0800716a   0x0800716a   0x0000002a   Code   RO         1552    i.USBD_Init         usbd_core.o
    0x08007194   0x08007194   0x00000012   Code   RO          386    i.USBD_LL_BatteryCharging  usbd_conf.o
    0x080071a6   0x080071a6   0x00000020   Code   RO          387    i.USBD_LL_ClearStallEP  usbd_conf.o
    0x080071c6   0x080071c6   0x00000020   Code   RO          388    i.USBD_LL_CloseEP   usbd_conf.o
    0x080071e6   0x080071e6   0x000000aa   Code   RO         1553    i.USBD_LL_DataInStage  usbd_core.o
    0x08007290   0x08007290   0x0000006a   Code   RO         1554    i.USBD_LL_DataOutStage  usbd_core.o
    0x080072fa   0x080072fa   0x00000002   PAD
    0x080072fc   0x080072fc   0x00000094   Code   RO          393    i.USBD_LL_Init      usbd_conf.o
    0x08007390   0x08007390   0x0000001c   Code   RO          394    i.USBD_LL_IsStallEP  usbd_conf.o
    0x080073ac   0x080073ac   0x00000026   Code   RO          395    i.USBD_LL_OpenEP    usbd_conf.o
    0x080073d2   0x080073d2   0x00000020   Code   RO          396    i.USBD_LL_PrepareReceive  usbd_conf.o
    0x080073f2   0x080073f2   0x0000003e   Code   RO         1559    i.USBD_LL_Reset     usbd_core.o
    0x08007430   0x08007430   0x0000000c   Code   RO         1560    i.USBD_LL_Resume    usbd_core.o
    0x0800743c   0x0800743c   0x00000018   Code   RO         1561    i.USBD_LL_SOF       usbd_core.o
    0x08007454   0x08007454   0x00000006   Code   RO         1562    i.USBD_LL_SetSpeed  usbd_core.o
    0x0800745a   0x0800745a   0x00000020   Code   RO          397    i.USBD_LL_SetUSBAddress  usbd_conf.o
    0x0800747a   0x0800747a   0x0000005a   Code   RO         1563    i.USBD_LL_SetupStage  usbd_core.o
    0x080074d4   0x080074d4   0x00000020   Code   RO          398    i.USBD_LL_StallEP   usbd_conf.o
    0x080074f4   0x080074f4   0x00000020   Code   RO          399    i.USBD_LL_Start     usbd_conf.o
    0x08007514   0x08007514   0x00000012   Code   RO         1564    i.USBD_LL_Suspend   usbd_core.o
    0x08007526   0x08007526   0x00000020   Code   RO          401    i.USBD_LL_Transmit  usbd_conf.o
    0x08007546   0x08007546   0x00000028   Code   RO         1751    i.USBD_ParseSetupRequest  usbd_ctlreq.o
    0x0800756e   0x0800756e   0x00000010   Code   RO         1565    i.USBD_RegisterClass  usbd_core.o
    0x0800757e   0x0800757e   0x00000016   Code   RO         1567    i.USBD_SetClassConfig  usbd_core.o
    0x08007594   0x08007594   0x00000074   Code   RO         1752    i.USBD_SetConfig    usbd_ctlreq.o
    0x08007608   0x08007608   0x0000000a   Code   RO         1568    i.USBD_Start        usbd_core.o
    0x08007612   0x08007612   0x000000f2   Code   RO         1753    i.USBD_StdDevReq    usbd_ctlreq.o
    0x08007704   0x08007704   0x000000dc   Code   RO         1754    i.USBD_StdEPReq     usbd_ctlreq.o
    0x080077e0   0x080077e0   0x00000034   Code   RO         1755    i.USBD_StdItfReq    usbd_ctlreq.o
    0x08007814   0x08007814   0x00000002   Code   RO          402    i.USBD_static_free  usbd_conf.o
    0x08007816   0x08007816   0x00000002   PAD
    0x08007818   0x08007818   0x00000008   Code   RO          403    i.USBD_static_malloc  usbd_conf.o
    0x08007820   0x08007820   0x0000024c   Code   RO         3966    i.USB_ActivateEndpoint  stm32l4xx_ll_usb.o
    0x08007a6c   0x08007a6c   0x00000004   Code   RO         3969    i.USB_CoreInit      stm32l4xx_ll_usb.o
    0x08007a70   0x08007a70   0x00000124   Code   RO         3971    i.USB_DeactivateEndpoint  stm32l4xx_ll_usb.o
    0x08007b94   0x08007b94   0x00000014   Code   RO         3972    i.USB_DevConnect    stm32l4xx_ll_usb.o
    0x08007ba8   0x08007ba8   0x00000014   Code   RO         3973    i.USB_DevDisconnect  stm32l4xx_ll_usb.o
    0x08007bbc   0x08007bbc   0x00000012   Code   RO         3974    i.USB_DevInit       stm32l4xx_ll_usb.o
    0x08007bce   0x08007bce   0x0000000e   Code   RO         3975    i.USB_DisableGlobalInt  stm32l4xx_ll_usb.o
    0x08007bdc   0x08007bdc   0x00000004   Code   RO         3976    i.USB_EP0_OutStart  stm32l4xx_ll_usb.o
    0x08007be0   0x08007be0   0x0000006a   Code   RO         3977    i.USB_EPClearStall  stm32l4xx_ll_usb.o
    0x08007c4a   0x08007c4a   0x0000004a   Code   RO         3978    i.USB_EPSetStall    stm32l4xx_ll_usb.o
    0x08007c94   0x08007c94   0x00000124   Code   RO         3979    i.USB_EPStartXfer   stm32l4xx_ll_usb.o
    0x08007db8   0x08007db8   0x0000000e   Code   RO         3980    i.USB_EnableGlobalInt  stm32l4xx_ll_usb.o
    0x08007dc6   0x08007dc6   0x00000002   PAD
    0x08007dc8   0x08007dc8   0x0000000c   Code   RO         1206    i.USB_IRQHandler    stm32l4xx_it.o
    0x08007dd4   0x08007dd4   0x00000006   Code   RO         3987    i.USB_ReadInterrupts  stm32l4xx_ll_usb.o
    0x08007dda   0x08007dda   0x0000001a   Code   RO         3988    i.USB_ReadPMA       stm32l4xx_ll_usb.o
    0x08007df4   0x08007df4   0x00000004   Code   RO         3990    i.USB_SetCurrentMode  stm32l4xx_ll_usb.o
    0x08007df8   0x08007df8   0x0000000c   Code   RO         3991    i.USB_SetDevAddress  stm32l4xx_ll_usb.o
    0x08007e04   0x08007e04   0x00000026   Code   RO         3993    i.USB_WritePMA      stm32l4xx_ll_usb.o
    0x08007e2a   0x08007e2a   0x00000002   Code   RO         1207    i.UsageFault_Handler  stm32l4xx_it.o
    0x08007e2c   0x08007e2c   0x00000002   Code   RO          760    i._Error_Handler    main.o
    0x08007e2e   0x08007e2e   0x0000000e   Code   RO         7932    i.__scatterload_copy  mc_w.l(handlers.o)
    0x08007e3c   0x08007e3c   0x00000002   Code   RO         7933    i.__scatterload_null  mc_w.l(handlers.o)
    0x08007e3e   0x08007e3e   0x0000000e   Code   RO         7934    i.__scatterload_zeroinit  mc_w.l(handlers.o)
    0x08007e4c   0x08007e4c   0x000000c4   Code   RO         7357    i.bcdSendPacket     cyfisnp_protocol.o
    0x08007f10   0x08007f10   0x00000064   Code   RO         7358    i.bcdServeWall      cyfisnp_protocol.o
    0x08007f74   0x08007f74   0x0000007c   Code   RO         7359    i.bindAllow         cyfisnp_protocol.o
    0x08007ff0   0x08007ff0   0x00000070   Code   RO         7239    i.chkSeqBit         cyfisnp_isr.o
    0x08008060   0x08008060   0x0000003c   Code   RO         6909    i.forceState        cyfi_radio.o
    0x0800809c   0x0800809c   0x00000034   Code   RO         7361    i.goTodataMode      cyfisnp_protocol.o
    0x080080d0   0x080080d0   0x00000020   Code   RO         7363    i.gotoPingMode      cyfisnp_protocol.o
    0x080080f0   0x080080f0   0x0000038c   Code   RO          761    i.main              main.o
    0x0800847c   0x0800847c   0x00000024   Code   RO         7790    i.max14676_GetVer   max14676.o
    0x080084a0   0x080084a0   0x00000038   Code   RO         7791    i.max14676_Read     max14676.o
    0x080084d8   0x080084d8   0x00000044   Code   RO         7792    i.max14676_ReadReg  max14676.o
    0x0800851c   0x0800851c   0x00000024   Code   RO         7794    i.max14676_WriteReg  max14676.o
    0x08008540   0x08008540   0x0000009c   Code   RO         7796    i.max14676_init     max14676.o
    0x080085dc   0x080085dc   0x00000016   Code   RO         7797    i.max14676_poweroff  max14676.o
    0x080085f2   0x080085f2   0x00000002   PAD
    0x080085f4   0x080085f4   0x00000070   Code   RO         7364    i.myDevNvramWrite   cyfisnp_protocol.o
    0x08008664   0x08008664   0x00000074   Code   RO         7365    i.myNetNvramWrite   cyfisnp_protocol.o
    0x080086d8   0x080086d8   0x00000034   Code   RO         7366    i.nextChan          cyfisnp_protocol.o
    0x0800870c   0x0800870c   0x00000060   Code   RO         7368    i.phySynth          cyfisnp_protocol.o
    0x0800876c   0x0800876c   0x00000050   Code   RO         7369    i.pingNextChan      cyfisnp_protocol.o
    0x080087bc   0x080087bc   0x00000070   Code   RO         7370    i.pingRun           cyfisnp_protocol.o
    0x0800882c   0x0800882c   0x00000058   Code   RO         7240    i.postAndRxGo       cyfisnp_isr.o
    0x08008884   0x08008884   0x0000000e   Code   RO         7371    i.purgeRxdata       cyfisnp_protocol.o
    0x08008892   0x08008892   0x00000022   Code   RO         1353    i.putBcdPacket      myusbd_custom_hid_if.o
    0x080088b4   0x080088b4   0x0000004c   Code   RO         7241    i.sendRspViaIsrBuf  cyfisnp_isr.o
    0x08008900   0x08008900   0x0000008c   Code   RO          762    i.serveRfPkt        main.o
    0x0800898c   0x0800898c   0x00000030   Code   RO         7372    i.setBindChannel    cyfisnp_protocol.o
    0x080089bc   0x080089bc   0x0000005c   Code   RO         7373    i.setNetParams      cyfisnp_protocol.o
    0x08008a18   0x08008a18   0x00000028   Code   RO         6910    i.wakeupRadio       cyfi_radio.o
    0x08008a40   0x08008a40   0x0000007c   Code   RO         7374    i.writeHwPa         cyfisnp_protocol.o
    0x08008abc   0x08008abc   0x00000011   Data   RO          765    .constdata          main.o
    0x08008acd   0x08008acd   0x00000003   PAD
    0x08008ad0   0x08008ad0   0x00000040   Data   RO         1815    .constdata          system_stm32l4xx.o
    0x08008b10   0x08008b10   0x00000008   Data   RO         1816    .constdata          system_stm32l4xx.o
    0x08008b18   0x08008b18   0x00000050   Data   RO         6911    .constdata          cyfi_radio.o
    0x08008b68   0x08008b68   0x00000006   Data   RO         7376    .constdata          cyfisnp_protocol.o
    0x08008b6e   0x08008b6e   0x00000002   PAD
    0x08008b70   0x08008b70   0x00000020   Data   RO         7930    Region$$Table       anon$$obj.o
    0x08008b90   0x08008b90   0x00006c70   PAD
    0x0800f800   0x0800f800   0x00000800   Data   RO         7129    .ARM.__AT_0x0800F800  cyfisnp_eeprom.o
    0x08010000   0x08010000   0x00000800   Data   RO         7654    .ARM.__AT_0x08010000  cyfisnp_flash_utility.o
    0x08010800   0x08010800   0x00000800   Data   RO         7655    .ARM.__AT_0x08010800  cyfisnp_flash_utility.o


    Execution Region RW_IRAM1 (Exec base: 0x20000000, Load base: 0x08011000, Size: 0x00003120, Max: 0x0000c000, ABSOLUTE, COMPRESSED[0x000000d0])

    Exec Addr    Load Addr    Size         Type   Attr      Idx    E Section Name        Object

    0x20000000   COMPRESSED   0x00000028   Data   RW          766    .data               main.o
    0x20000028   COMPRESSED   0x00000003   Data   RW         1035    .data               tim.o
    0x2000002b   COMPRESSED   0x00000001   Data   RW         1208    .data               stm32l4xx_it.o
    0x2000002c   COMPRESSED   0x00000028   Data   RW         1355    .data               myusbd_custom_hid_if.o
    0x20000054   COMPRESSED   0x00000010   Data   RW         1356    .data               myusbd_custom_hid_if.o
    0x20000064   COMPRESSED   0x0000000c   Data   RW         1357    .data               myusbd_custom_hid_if.o
    0x20000070   COMPRESSED   0x00000020   Data   RW         1484    .data               myusbd_desc.o
    0x20000090   COMPRESSED   0x00000024   Data   RW         1485    .data               myusbd_desc.o
    0x200000b4   COMPRESSED   0x00000001   Data   RW         1756    .data               usbd_ctlreq.o
    0x200000b5   COMPRESSED   0x00000003   PAD
    0x200000b8   COMPRESSED   0x00000004   Data   RW         1817    .data               system_stm32l4xx.o
    0x200000bc   COMPRESSED   0x00000004   Data   RW         2213    .data               stm32l4xx_hal.o
    0x200000c0   COMPRESSED   0x00000008   Data   RW         6694    .data               cyfi_hal.o
    0x200000c8   COMPRESSED   0x00000005   Data   RW         6912    .data               cyfi_radio.o
    0x200000cd   COMPRESSED   0x00000001   PAD
    0x200000ce   COMPRESSED   0x00000012   Data   RW         7244    .data               cyfisnp_isr.o
    0x200000e0   COMPRESSED   0x00000020   Data   RW         7377    .data               cyfisnp_protocol.o
    0x20000100   COMPRESSED   0x00000004   Data   RW         7607    .data               cyfisnp_timer.o
    0x20000104   COMPRESSED   0x00000004   PAD
    0x20000108   COMPRESSED   0x00000040   Data   RW         7657    .data               cyfisnp_flash_utility.o
    0x20000148   COMPRESSED   0x0000003c   Data   RW         7717    .data               myusbd_customhid.o
    0x20000184   COMPRESSED   0x00000042   Data   RW         7718    .data               myusbd_customhid.o
    0x200001c6   COMPRESSED   0x0000000a   Data   RW         7799    .data               max14676.o
    0x200001d0   COMPRESSED   0x00000004   Data   RW         7800    .data               max14676.o
    0x200001d4        -       0x00000024   Zero   RW            7    .bss                rtc.o
    0x200001f8        -       0x00000224   Zero   RW          184    .bss                usb_device.o
    0x2000041c        -       0x0000048c   Zero   RW          404    .bss                usbd_conf.o
    0x200008a8        -       0x00000064   Zero   RW          594    .bss                spi.o
    0x2000090c        -       0x0000004c   Zero   RW          641    .bss                i2c.o
    0x20000958        -       0x00000038   Zero   RW          687    .bss                lptim.o
    0x20000990        -       0x00000040   Zero   RW          763    .bss                main.o
    0x200009d0        -       0x00000993   Zero   RW          764    .bss                main.o
    0x20001363   COMPRESSED   0x00000001   PAD
    0x20001364        -       0x0000004c   Zero   RW          985    .bss                quadspi.o
    0x200013b0        -       0x0000003c   Zero   RW         1034    .bss                tim.o
    0x200013ec        -       0x000000f0   Zero   RW         1118    .bss                usart.o
    0x200014dc        -       0x00000010   Zero   RW         1309    .bss                iwdg.o
    0x200014ec        -       0x00000068   Zero   RW         1354    .bss                myusbd_custom_hid_if.o
    0x20001554        -       0x00000200   Zero   RW         1483    .bss                myusbd_desc.o
    0x20001754        -       0x00000020   Zero   RW         2088    .bss                stm32l4xx_hal_flash.o
    0x20001774        -       0x00000043   Zero   RW         7243    .bss                cyfisnp_isr.o
    0x200017b7        -       0x00000555   Zero   RW         7375    .bss                cyfisnp_protocol.o
    0x20001d0c        -       0x00001010   Zero   RW         7656    .bss                cyfisnp_flash_utility.o
    0x20002d1c   COMPRESSED   0x00000004   PAD
    0x20002d20        -       0x00000400   Zero   RW         1848    STACK               startup_stm32l433xx.o


==============================================================================

Image component sizes


      Code (inc. data)   RO Data    RW Data    ZI Data      Debug   Object Name

       394         26          0          8          0       7955   cyfi_hal.o
      1012         76         80          5          0      17425   cyfi_radio.o
         0          0       2048          0          0       1127   cyfisnp_eeprom.o
      1104         78       4096         64       4112       6179   cyfisnp_flash_utility.o
      1334         78          0         18         67      12732   cyfisnp_isr.o
      2516        218          6         32       1365      25899   cyfisnp_protocol.o
        16          0          0          4          0       1827   cyfisnp_timer.o
       662         42          0          0          0       1919   gpio.o
       196         40          0          0         76       1753   i2c.o
        80         32          0          0         16       1227   iwdg.o
       180         48          0          0         56       2672   lptim.o
      1694        130         17         40       2515      42997   main.o
       710         50          0         14          0       6835   max14676.o
      1578        144          0         68        104      39706   myusbd_custom_hid_if.o
       492         22          0        126          0       9027   myusbd_customhid.o
       212        108          0         68        512       6138   myusbd_desc.o
       168         42          0          0         76       1781   quadspi.o
       204         34          0          0         36     792495   rtc.o
       208         46          0          0        100       2321   spi.o
        36          8        396          0       1024        832   startup_stm32l433xx.o
       118         18          0          4          0       4351   stm32l4xx_hal.o
       250         14          0          0          0      33103   stm32l4xx_hal_cortex.o
        74          0          0          0          0       1139   stm32l4xx_hal_dma.o
       718         80          0          0         32       8531   stm32l4xx_hal_flash.o
      1164         52          0          0          0       8089   stm32l4xx_hal_flash_ex.o
       442         34          0          0          0       3914   stm32l4xx_hal_gpio.o
      1360         34          0          0          0      11190   stm32l4xx_hal_i2c.o
       168          0          0          0          0       1995   stm32l4xx_hal_i2c_ex.o
       106          0          0          0          0       1855   stm32l4xx_hal_iwdg.o
       246          8          0          0          0       2656   stm32l4xx_hal_lptim.o
       128          6          0          0          0        962   stm32l4xx_hal_msp.o
      1910          0          0          0          0      10457   stm32l4xx_hal_pcd.o
       118          0          0          0          0       2570   stm32l4xx_hal_pcd_ex.o
       132         24          0          0          0       1991   stm32l4xx_hal_pwr_ex.o
       288          8          0          0          0       2826   stm32l4xx_hal_qspi.o
      1968         94          0          0          0       7548   stm32l4xx_hal_rcc.o
      1066         34          0          0          0       3673   stm32l4xx_hal_rcc_ex.o
       800         12          0          0          0       6208   stm32l4xx_hal_rtc.o
        20          0          0          0          0       2299   stm32l4xx_hal_rtc_ex.o
      1130          0          0          0          0       5801   stm32l4xx_hal_spi.o
      1694        148          0          0          0      15307   stm32l4xx_hal_tim.o
        76          4          0          0          0       1488   stm32l4xx_hal_tim_ex.o
      2052         66          0          0          0      12250   stm32l4xx_hal_uart.o
         2          0          0          0          0       1060   stm32l4xx_hal_uart_ex.o
       266         64          0          1          0       7698   stm32l4xx_it.o
      1532         12          0          0          0      13615   stm32l4xx_ll_usb.o
        68         12         72          4          0       1301   system_stm32l4xx.o
       610         76          0          3         60       5906   tim.o
       700        100          0          0        240       6842   usart.o
        68         18          0          0        548     579882   usb_device.o
       780         62          0          0       1164      14873   usbd_conf.o
       592          0          0          0          0       9968   usbd_core.o
      1026         22          0          1          0       8252   usbd_ctlreq.o
       132          0          0          0          0       4712   usbd_ioreq.o

    ----------------------------------------------------------------------
     34682       2224      34512        468      12108    1787159   Object Totals
         0          0         32          0          0          0   (incl. Generated)
        82          0      27765          8          5          0   (incl. Padding)

    ----------------------------------------------------------------------

      Code (inc. data)   RO Data    RW Data    ZI Data      Debug   Library Member Name

        86          0          0          0          0          0   __dczerorl2.o
         0          0          0          0          0          0   entry.o
         0          0          0          0          0          0   entry10a.o
         0          0          0          0          0          0   entry11a.o
         8          4          0          0          0          0   entry2.o
         4          0          0          0          0          0   entry5.o
         0          0          0          0          0          0   entry7b.o
         0          0          0          0          0          0   entry8b.o
         8          4          0          0          0          0   entry9a.o
        30          0          0          0          0          0   handlers.o
        36          8          0          0          0         68   init.o
        30          0          0          0          0         68   llshl.o
        32          0          0          0          0         68   llushr.o
        26          0          0          0          0         80   memcmp.o
        36          0          0          0          0         68   memcpya.o
        36          0          0          0          0        108   memseta.o
       104          0          0          0          0         92   uldiv.o

    ----------------------------------------------------------------------
       438         16          0          0          0        552   Library Totals
         2          0          0          0          0          0   (incl. Padding)

    ----------------------------------------------------------------------

      Code (inc. data)   RO Data    RW Data    ZI Data      Debug   Library Name

       436         16          0          0          0        552   mc_w.l

    ----------------------------------------------------------------------
       438         16          0          0          0        552   Library Totals

    ----------------------------------------------------------------------

==============================================================================


      Code (inc. data)   RO Data    RW Data    ZI Data      Debug   

     35120       2240      34512        468      12108    1750287   Grand Totals
     35120       2240      34512        208      12108    1750287   ELF Image Totals (compressed)
     35120       2240      34512        208          0          0   ROM Totals

==============================================================================

    Total RO  Size (Code + RO Data)                69632 (  68.00kB)
    Total RW  Size (RW Data + ZI Data)             12576 (  12.28kB)
    Total ROM Size (Code + RO Data + RW Data)      69840 (  68.20kB)

==============================================================================

